:020000040800F2
:1000000000400020A1020008A9020008AB0200087D
:1000100000000000000000000000000000000000E0
:10002000000000000000000000000000AD02000819
:100030000000000000000000AF020008B10200084C
:10004000B302000800000000B3020008B302000879
:10005000B3020008B3020008B3020008B3020008AC
:1000600000000000B3020008B3020008B302000859
:10007000B3020008B3020008B30200080000000049
:10008000B3020008B3020008B3020008B30200087C
:10009000B3020008B3020008B3020008B30200086C
:1000A000B3020008B3020008B3020008B30200085C
:1000B000B3020008B302000800000000B302000809
:1000C00000F002F800F0C3F80CA030C8083824187B
:1000D0002D18A246671EAB4654465D46AC4201D180
:1000E00000F0B5F87E460F3E0FCCB64601263342EF
:1000F00000D0FB1AA246AB46334318477477000082
:1001000094770000103A02D378C878C1FAD8520721
:1001100001D330C830C101D504680C6070470000BD
:100120000023002400250026103A01D378C1FBD813
:10013000520700D330C100D50B60704710B56E294F
:1001400002D101F09BFA10BD702902D100F08FF9A5
:1001500010BD662902D107F0CDF810BD652902D186
:1001600007F0C8F810BD672902D107F0C3F810BD29
:10017000612902D107F0C6F810BD03681B0A01D33C
:1001800080231943692902D101F042FA10BD642984
:1001900002D101F03DFA10BD752902D101F038FA03
:1001A00010BD6F2902D101F067FB10BD782902D183
:1001B00000F04AF910BDE92902D101F003FB10BD9E
:1001C000E42902D101F0FEFA10BDF52902D101F0B7
:1001D000F9FA10BDEF2902D101F05AFB10BDF82940
:1001E00002D100F03FF910BD0368DB0901D3802381
:1001F0001943632902D102F064FB10BD732902D1B7
:1002000002F067FB10BDE32902D102F071FB10BDC3
:10021000F32902D102F074FB10BD002010BD1FB500
:100220000098019901F005F902F00AFE040000208F
:10023000002106F093FE401C60600020002106F0C3
:1002400077FEE06001F0B6FE00F06CFD1FBD05F02A
:1002500045FB114603B405F050FB03BCFFF7DFFF7D
:1002600003F0C5F905F090FD70B505460C4616463D
:1002700002E00FCC0FC5103E102EFAD2082E02D38A
:1002800003CC03C5083E042E07D301CC01C5361F9D
:1002900003E021782970641C6D1C761EF9D270BDB4
:1002A0000448804704480047FEE7FEE7FEE7FEE714
:1002B000FEE7FEE711420008C10000080048704751
:1002C0004005002070B5064601F096F805683046F6
:1002D0000B30C408E400B44201D8002070BD686847
:1002E0002A46002818D00168A14211D30B462146A6
:1002F00008318B4208D3436801194B6003681B1B0C
:100300000B605160046001E041685160001D70BDE8
:10031000024640680028E6D12146284601F074F8DC
:100320000028DCD170BD70B50446051F01F064F8EB
:100330000068002C1AD0446801E020466468002C54
:1003400001D0AC42F9D301680A18AA4204D12A6844
:1003500005468918016000E0456028684119A142FE
:1003600005D16168696021684018286070BD6C60C3
:1003700070BD00001CB50C46064B7B4469460090DE
:10038000204601F094F904460020694601F0A2F9E4
:1003900020461CBD5713000010B50B4601461846F9
:1003A00001F09EF910BD00000FB4054910B503AA75
:1003B000029801F095F910BC08BC04B01847000081
:1003C000980500200FB41CB5084B06AA7B4469466B
:1003D0000090059801F06BF904460020694601F091
:1003E00079F920461CBC08BC04B01847051300006E
:1003F000F8B50F460188090502D5224C7C4402E07D
:10040000204C7C440E3405460021243508E01607B4
:100410001209360FA65D6E541E0732431B09491C94
:1004200016461E43F3D1224604780023240705D53F
:10043000702F06D0002901D00223113201F08FF86D
:10044000F8BD01231032F9E770B504460D46214688
:10045000106801F052F80023024629462046FFF7B3
:10046000C7FF70BDD21DD308DB000CCBC0E730B492
:10047000036820241268234303600823C36130BC4F
:100480000023B5E788700000F3B50446002081B072
:1004900020622046E1688847002872D0252802D0D3
:1004A0006268A168ABE0594F00267F442046E168AE
:1004B00088472028054608DB312D06D278192038D8
:1004C0000078002801D00643F0E7B00701D50420EA
:1004D00086430020E0610746A0612A2D0AD0284605
:1004E00005F004FA002827D0B8000019303D00902C
:1004F000856119E00298BA00121902C89161029050
:100500002046E1688847012F054617D1E069002899
:100510001FDA202086431CE000980A2180694843A6
:1005200000994019303888612046E16888470546BF
:1005300005F0DCF90028EFD1012F0AD02E2D08D1CB
:100540002046E16888470546202006437F1C022F8D
:10055000C3DBA069002803DA4042A0610120064302
:10056000F00701D0102086436C2D0BD0682D09D0E8
:100570004C2D3CD06A2D38D0742D38D07A2D36D001
:1005800016E040E0E1682F4620468847B84205461D
:1005900009D16C2F29D001208002E1680643204652
:1005A0008847054604E06C2F1DD0FF20013006432C
:1005B000002D28D028464138192803D80120C00230
:1005C00006432035204626602946029A1646FFF744
:1005D000B5FD002810D001280BD0F61DF008C00092
:1005E0000830029055E74020E1E78020D5E7002061
:1005F000D3E7361D02964CE762682846A16890470B
:10060000206A401C44E7206AFEBD00000270000022
:100610000FB400B58DB010A909900B900020C04315
:1006200000910A9000200C900748784406900748F3
:1006300078446A4607900F9909A801F049F90DB06E
:1006400008BC04B018470000C7120000E112000007
:10065000FFB51D460027FF4383B05C680020019072
:100660009E68A96904987F1C88470090296A88477A
:100670000028F6D10098401C0CD00320400284438F
:10068000002E19DD600614D500982B2809D02D28DE
:100690000FD103E00020C04307B0F0BD012080026D
:1006A0000443A96904987F1C8847761E002E009099
:1006B00002DD0098302803D00598002825D035E0C9
:1006C0000120A96940020443761E04987F1C8847D4
:1006D000002E009003DD782805D0582803D0059817
:1006E000002810D022E00598002801D010281DD144
:1006F0000120A96940028443761E04987F1C884724
:100700000090102002E0082000E00A2005900DE093
:100710000121059A49020C430199761E514308189C
:100720000190A96904987F1C88470090002E05DD80
:100730000599009801F0B6F80028E9DAE96904980B
:100740008847A00502D40120C043A5E7E00722D1D5
:10075000600611D56005019800D5404229680A1D40
:100760002A600968220501D5087014E0220701D526
:10077000088010E008600EE02868011D296000680C
:10078000210502D50199017005E02107019901D5E4
:10079000018000E0016038467EE7000070B5044645
:1007A000C068810713D0800601D5A56A04E0A1695D
:1007B000606840182169451A204601F0B3FB002209
:1007C00006462946204601F0DDFA304670BD00207D
:1007D00070BD70B5002802D0FFF7E0FF70BD0025A6
:1007E000074C6E1E08E02046FFF7D8FF002800D017
:1007F0003546206D44086400002CF4D1284670BDB5
:100800004405002070B50D46044604E0294605F075
:1008100011FB401C04D02078641C0028F6D170BD68
:100820000020C04370BD0000F7B516460C461046C8
:1008300000F07CF82078611C61280AD0722802D070
:10084000772839D102E00125002404E002250424A0
:1008500001E02D4D08240222032301270878491CBA
:100860002B2806D0622807D02039C87F742807D0EB
:1008700008E01D431443F1E7042005433C43EDE742
:10088000102004430098214605F09EF8411C13D027
:100890000021316171600121F5604902F1617061EF
:1008A000200704D530460222002101F06BFA306D9A
:1008B000384330653046FEBD0020FEBDF8B50D461C
:1008C0000646124C206DC10704D0410804D04408EC
:1008D0006400F7E7224610E05420FFF7F3FC07001E
:1008E00010D07908206D490001221143084354219A
:1008F0002065384600F0D0F83A4629463046FFF7E2
:1009000093FFF8BD0020F8BD0280000044050020E0
:1009100010B5002902D0FF22013201E0012292022B
:1009200001235B0201F0A8FA10BD0000FEB50446E9
:10093000466900690F4F0190E56800200090A80704
:1009400007D0204601F0EEFA304604F0DBFF002825
:1009500001DA3846FEBD280502D50198FFF7E3FC11
:100960004C21204600F098F8206D4008400020659A
:100970000098FEBDFFFFFFFF30B5441C03E0017887
:10098000401C00290DD08107F9D10B4BDD0104C8B3
:10099000D11A91432940FAD0001B0A0603D0C01E89
:1009A00030BD001B30BD0A0401D0801E30BD0902DD
:1009B000FCD0401E30BD0000010101010346F0B52E
:1009C0000B439B072DD1244DEF01042A29D308C8DE
:1009D00010C95E1B9E43121F3E4017D0D8B2E1B231
:1009E000401A3106014310D198B2A1B2401A310425
:1009F00001430AD118022102000A090A401A3102F1
:100A0000014302D1180E210E401AF0BDA342DCD0E2
:100A100018BA21BA884201D90120F0BD0020C04394
:100A2000F0BD002A01D10020F0BD03780C78401CF5
:100A3000491C002B0DD0A3420BD1521E09D00378C4
:100A40000C78401C491C002B03D0A34201D1521E3C
:100A5000EBD1181BF0BD00000101010101E004C051
:100A6000091F0429FBD28B0701D50280801CC9070E
:100A700000D00270704700290BD0C30702D002706B
:100A8000401C491E022904D3830702D50280801C22
:100A9000891EE3E70022EEE70022DFE782078B07EB
:100AA0009A4237D170B5920F0AD0032402780B789E
:100AB000401C491C002A2BD09A4229D12042F5D152
:100AC0001D4EF40104C808C9951B9543254010D15B
:100AD0009A4207D104C808C9951B9543254008D1FF
:100AE0009A42EFD012BA1BBA01209A4200D2404279
:100AF00070BD12BA1BBA2DBA18241000E0401900BC
:100B0000E140401A05D12E00E64002D1083CF4D164
:100B1000D01A70BD02780B78401C491C002A09D0FD
:100B20009A4207D102780B78401C491C002A01D058
:100B30009A42EFD0D01A7047010101010022030947
:100B40008B4273D3030A8B4258D3030B8B423CD3A3
:100B5000030C8B4221D312E003460B437FD40022C7
:100B600043088B4274D303098B425FD3030A8B4241
:100B700044D3030B8B4228D3030C8B420DD3FF22AB
:100B8000090212BA030C8B4202D31212090265D079
:100B9000030B8B4219D300E0090AC30B8B4201D32C
:100BA000CB03C01A5241830B8B4201D38B03C01A73
:100BB0005241430B8B4201D34B03C01A5241030BEA
:100BC0008B4201D30B03C01A5241C30A8B4201D39B
:100BD000CB02C01A5241830A8B4201D38B02C01A46
:100BE0005241430A8B4201D34B02C01A5241030ABD
:100BF0008B4201D30B02C01A5241CDD2C3098B42A2
:100C000001D3CB01C01A524183098B4201D38B011E
:100C1000C01A524143098B4201D34B01C01A5241C1
:100C200003098B4201D30B01C01A5241C3088B4206
:100C300001D3CB00C01A524183088B4201D38B00F1
:100C4000C01A524143088B4201D34B00C01A524193
:100C5000411A00D201465241104670475DE0CA0F6A
:100C600000D04942031000D34042534000229C462A
:100C700003098B422DD3030A8B4212D3FC22890134
:100C800012BA030A8B420CD3890192118B4208D30A
:100C9000890192118B4204D389013AD0921100E06C
:100CA0008909C3098B4201D3CB01C01A5241830980
:100CB0008B4201D38B01C01A524143098B4201D3AD
:100CC0004B01C01A524103098B4201D30B01C01AD8
:100CD0005241C3088B4201D3CB00C01A5241830852
:100CE0008B4201D38B00C01A5241D9D243088B42A8
:100CF00001D34B00C01A5241411A00D2014663464B
:100D000052415B10104601D34042002B00D54942AE
:100D1000704763465B1000D3404201B50020C046D7
:100D2000C04602BD70B5064C7C44064D7D4403E0D0
:100D3000206800198047241DAC42F9D170BD000025
:100D4000906C0000946C0000F8B517460E460546FE
:100D5000002B07D0104658434419E41B2046B047E7
:100D6000A542FAD128460838F8BD00000246C80F4F
:100D7000C00781434B0030B54B405B009B0D20D03A
:100D80001923DB06C91801231B05994220DB032424
:100D9000A40704251346AB400BD3002B04D1EB066C
:100DA00013409B00E34204D401246407002312197A
:100DB0005941FF231B0599420BD2C9000143500F33
:100DC00009E0CB0204D501430803024305D00548DE
:100DD00030BDFF21C905084330BD0846072109057C
:100DE000884330BD0000C07FF0B50C46871A9C4197
:100DF0000D46861A9D4103D2C01BA141D219634101
:100E00000D0D1F0DC94EEC1BAE435CD07F057F0D51
:100E10000026002F51D02D05AC46A943DD02012349
:100E2000ED0A1B051D4320231B1B24D41746E74056
:100E3000381871412F46E740CC199D40281831469B
:100E400061410C0D27D161449A4013D50023401C09
:100E5000594152000ED14008400001224B0052057A
:100E6000D34207D305204007C14201D5B04900E075
:100E7000B0493046F0BD6B00002A00D001229A181C
:100E80001F23203C1B1B01D5002302E0E54028184E
:100E900071410C0DD7D0012424050919C407CD07D1
:100EA00040084908E40F28436144002CD5D00024B1
:100EB000401C61419A40D0D1CDE76A05520DD9D18D
:100EC000C90FC907D5E79C4D4E00002801D0012469
:100ED00000E0002434195F00002A01D0012600E060
:100EE0000026BE19954FAC420CD8AE420AD8B44287
:100EF00006D001256D05EC42BCD010461946F0BD68
:100F00009942FCD000203946F0BDF0B51FB40C4624
:100F10000F46811A9F412546861A9D4106D201251A
:100F2000ED076F40401ABC4152187B41210D1E0D48
:100F30008D1BAC467D4D8D437ED075056D0D7CD0EF
:100F40000D05AE46AC431B031B0B794D52429D4130
:100F5000202366469B1B14D31746F74038180026FB
:100F60000090744160462F460741E41900989D4067
:100F70002818664116D4714671189A4025D5012368
:100F800020E093182A466A415200002B00D0521CE0
:100F90001E23203E9B1B002B61DD3541EE172818D8
:100FA0006641E8D5001876415B1C9A4000D3401C8E
:100FB0004B05F3181524E34010D3002B52D0714693
:100FC0007118D30FC01802D3491C05B0F0BD01231E
:100FD000DB079A42F9D140084000F6E701225205AA
:100FE000B21801D1002853D00123CC0ADB02994367
:100FF000891E002A08D1020C03D0020C000410390B
:1010000002E00246002020390023550B05D11202D0
:101010000823550B01D152010D23550C01D11201AA
:101020001B1DD50C01D192009B1C150D01D1520046
:101030005B1C2025EE1A01E02CE022E00546F5407D
:1010400015439840CA1AE10769181305C918002A00
:10105000BBDA032040070818C10FC9070FE071462B
:101060006118B2E7F10740080843711071444A0063
:101070000CD001235B059A42A7D2C90FC9070020F3
:10108000A3E74905490D26D1002001E00028F4D14D
:1010900000219AE7284D6600002801D0012100E0D8
:1010A000002171185F00002A01D0012600E000260F
:1010B000BE19224FA94210D8AE420ED8B14208D074
:1010C00001256D05E94206D01946A80241401046A7
:1010D0007BE79C4201D0214677E70020394674E740
:1010E00010B50C465C4005D50124E4076340FFF7CA
:1010F0000CFF10BDFFF778FE10BD30B40C465C400D
:1011000004D50124E407634030BC6DE630BCFCE646
:1011100070B50124E40761400D465D4002D4FFF73D
:1011200063FE70BD6340FFF7F0FE70BDFF07000077
:101130000000F0FF0000F07F0000E0FF0000F87FFB
:101140001F22030C02D10F22000402D0030E03D091
:1011500004E00020014670470002083A030F01D165
:101160000001121F830F01D18000921E002801DBB5
:101170004000521E120551184205C0124118104677
:101180007047C10FC90700D04042012292071143A6
:10119000D6E701218907D3E70121C90501234118B9
:1011A00042001B06D3185B0E0AD0C1100722D206DC
:1011B000891840075242D14201D552008918704720
:1011C000090208D50146002A03D0C10FC907002033
:1011D000704710467047420202D000200249704713
:1011E000072109050143F4E70000F87FF0B5FF256A
:1011F0002D04C609C209FF2704462E400137CB093A
:101200003E4348402A402B400746002A6BD0002B23
:1012100069D0AA4267D0AB4265D0002800DA3246D6
:101220000125ED0529432C4309022002090AD21A9F
:101230004B0C7F24E31A434C000A7C44E35C7D247E
:101240002404121914145B00A218884201D3521C02
:1012500000E0400049420C465C4324115C43DB0142
:101260006415E318040A5C43C502200D0C46444390
:101270006419250A5D432303EC0C0D466543000306
:101280000019EB184C42A34201D35B18401CD40553
:101290002018002B07D05B00C91804D3401C00297C
:1012A00001D1400840003F2189048A4209D3002A25
:1012B00008DC1106090F04D0032149074018C00FAC
:1012C000C007F0BD01224100120689187F22520694
:1012D0009142F6D205214907C84201D59010F0BDD0
:1012E000FF20C005F0BD002F00DA32461648AA42A2
:1012F00007D2AB4205D21902090E17D0F80FC0076A
:10130000F0BDFF2563002D06AB42F9D84900A94284
:10131000F6D8AB4201D1A942F2D0A94201D10021B5
:1013200001E061004908D0050843F0BD1102090E33
:10133000FBD0FF200243D005F0BD0A46014610460F
:1013400054E70000836200000000C07F10B5014632
:101350009E240002CA15A307002A02D01843002ABF
:1013600004DBA21A002A0CDDD04010BD1206120EBA
:1013700001D140004008A21A03D4D04040420028C6
:10138000F3DDFF2248001206904201D9002010BD73
:10139000C817C043584010BD1F22030C02D10F22B2
:1013A00000041CD0030E01D10002083A030F01D142
:1013B0000001121F830F01D18000921E002801DB63
:1013C0004000521ED20551180212511819229040A5
:1013D00004D3491C002801D1490849000846704738
:1013E000C10FC90700D04042012292071143D3E741
:1013F00001218907D0E7000000487047400600201F
:10140000704770477047704738B504460A46002059
:10141000694601F0EBFC002805D002462046009901
:1014200000F06CFE012038BD10B5012001F0A0FCD9
:1014300010BDF8B501F0CEFC054600200C4610208A
:10144000C0460646A819A0420DD93246694600207A
:1014500001F0CCFC070001D101F08AFC0098A04209
:1014600000D00546C419FFF7C7FFF61D0746056003
:10147000F008C0004619284600F008F8B44204D02D
:1014800031463868A21B00F039FEF8BD002101602A
:101490004160806070471020704770B504468569D0
:1014A0000068C10601D5302600E02026C00707D01D
:1014B00070BD62683046A1689047206A401C206277
:1014C0006D1EF6D570BD70B5044685690078C007FD
:1014D00007D170BD6268A16820209047206A401C37
:1014E00020626D1EF6D570BD09684A0501D540B26F
:1014F0007047C905FCD500B2704709684A0501D597
:10150000C0B27047C905FCD580B2704770B50C46B3
:101510000546012A05D02878800600D5EA6900230F
:1015200002E0012305E05B1C934202D2E05C00284C
:10153000F9D1A869E618C01AA861286AC0182862FB
:101540002846FFF7AAFF04E06A682078A968641CAF
:101550009047B442F8D32846FFF7B5FF70BDFFB5FA
:1015600004460D4681B0243000902168880604D5D9
:101570001022E0699143216000E00120A84201DDD2
:10158000471B00E000270498A1697A191018081A6F
:10159000A0612078C00602D42046FFF77EFF002617
:1015A00008E003986268A168805D9047206A401C4B
:1015B000761C206204988642F3DB2078C0060AD5A8
:1015C0002046FFF76AFF06E06268A1683020904776
:1015D000206A401C206238467F1E0028F4DC07E0A9
:1015E00000986268A168405D9047206A401C2062B4
:1015F00028466D1E0028F3DC2046FFF764FF2078A4
:10160000000602D5022005B0F0BD0120FBE7000076
:10161000F7B5002575291068009914A611D0FFF7B9
:1016200063FF002802DA404211A608E00099096829
:101630008A0701D50FA602E0490704D50EA60125A9
:1016400001E0FFF75AFF009F0024243704E001F077
:10165000ADFB30313955641C0028F8D12B46324699
:1016600021460098FFF77BFFFEBD00000000000050
:101670002D0000002B00000020000000116802680F
:10168000006A530501D5087009E0D30501D508802B
:1016900005E0130602D5C21705C100E0086001206D
:1016A0007047000001694A1C02610878704700B564
:1016B0008FB002910021059105490193794403916E
:1016C000114604906846FEF7DFFE0FB000BD000033
:1016D000E5FFFFFF0A681070521C0A6070470000A7
:1016E000084B70B50D467B44FFF7E1FF04462846E2
:1016F00000F022F9002802D00020C04370BD20462F
:1017000070BD00004B470000F7B50446154686B093
:101710002B487844002703C83E460090019111E011
:1017200007986A467100415A02A801F0F5FA411C77
:1017300007D02178890603D5E269391891420ED87D
:101740003F18761C2078800602D5E069B84206DD95
:10175000AE42E5DB07987100405A0028E0D1A0694D
:10176000C01BA0612046FFF798FE154878445A3800
:1017700003C800900020019116E041006A460798D6
:10178000415A02A801F0C8FA0590401C0AD0002571
:1017900005E0626802A8A168405D90476D1C05984D
:1017A0008542F6D30498401CB0420490E5DB206AE1
:1017B000C01920622046FFF786FE09B0F0BD000088
:1017C000EE5D0000F7B5D21D0025D20815A6D200A7
:1017D000F52905CA11D0002A05DA002140429141BD
:1017E00011A60A4608E0009909688B0701D50FA6E3
:1017F00002E0490701D50EA601251146009F0024ED
:10180000243704E000F094FC30323A55641C024660
:101810000A43F7D12B46324621460098FFF79FFE38
:10182000FEBD0000000000002D0000002B000000A5
:101830002000000070B504460021243408E055075C
:10184000D2086D0F303565545D072A43DB08491C0B
:1018500015461D43F3D10468002310A2250708D5BF
:10186000A40601D4002904D0C46901230CA2641E7B
:10187000C461FFF774FE70BD10B5044621461068C0
:10188000FFF73BFE002302462046FFF7D3FF10BDC3
:10189000D21DD108C9000CC9CCE70000000000002F
:1018A000300000003A2800D23038202302469A4304
:1018B000412A01D310463738884201D30020C04363
:1018C000704700000268511813780160184670478D
:1018D00010B5D160054979445161054979441162D7
:1018E00000211161114601F00FF810BDEBFFFFFF61
:1018F000CB0800004268002A08D001680B78491C18
:10190000002B03D0521E06C0184670470121C1604B
:10191000881E70474268002A0BD0C3680168002BFC
:1019200007D183688B4204D0491E521C06C0002098
:1019300070470020C0437047C0688021084070474E
:1019400070B50D4601461446D36850692A4604F026
:1019500007F9002808DA411C08D0E168012240009C
:10196000920311434008E160281A70BD204600F040
:10197000A9FA0020C04370BDC16840221143920102
:10198000914300220260C1604905890F01D0826045
:10199000704702694168891AC269891A8160704773
:1019A000FEB504460121C0688905774B0843E06015
:1019B000010310D599108843E060810606D4E26ADD
:1019C00061688A4200D80A46511A21601843E060D3
:1019D00020346079FEBD9843E060800602D5204641
:1019E00000F0C6FA6949E0680140012903D02046A9
:1019F00000F068FABFE02168002600290BDAC9432D
:101A000021600121A66009030843E0606068411C71
:101A100061600078FEBD5E4908420DD00521266058
:101A20000903884340210843E06021696068401A47
:101A3000E169401AA0609EE02169002915D1C00328
:101A400013D4E069FEF73EFC0028206118D0E0685E
:101A50000121C9020843E0608105890F03D1FF21FC
:101A600001310843E0602069606060690090E068CF
:101A7000C1061BD5C0030FD5204600F053FA15E070
:101A800020460321243020610120E061E068090242
:101A9000884301218902E4E721696068401AA1694D
:101AA0004118009804F096F80028A0DBE068C00315
:101AB0002AD56168E06A884200D808462169451A3B
:101AC000E069471B1BD0A0690190204600F02AFA6C
:101AD00001984119A061009804F07CF8002886DB89
:101AE000E068012149040843E060000202D5A069D2
:101AF0004019A061E1692069C91B45180DE0204625
:101B000000F010FAE769F5E725696168A069E769FF
:101B1000491BE56240186560A061E06810218843B8
:101B2000E0604005800F02D0204601F0D9F8E0685F
:101B30000121A66009030843E060000205D5206981
:101B4000E06260600120C043FEBD2246394628465F
:101B5000FFF7F6FE411C0ED029180028E1620DD0D7
:101B6000401E2060681C6060E06801214904084351
:101B7000E0602878FEBD0020C043FEBD65602046C1
:101B8000FFF7FAFEF7E700000000200081200000C8
:101B900040400000F8B505460C46C8680521C90458
:101BA0008843012189050843E060800602D520466C
:101BB00000F0DEF97149E0680140022903D02046B7
:101BC00000F080F9BCE00521012249030140D20365
:101BD00091420FD1C00306D56168E06A884200D8FF
:101BE0000846606006E02069E0626060606903F0BA
:101BF000ADFEA061A1680022EEB200290EDAE06815
:101C000083050BD4C943A16009212260490308431D
:101C1000E0606068411C61600670ACE0E068012132
:101C200049030843E060002020602069002831D18A
:101C3000606903F0A5FE012527462437ED02002840
:101C400016D0A0898005800F08D0E069FEF73AFB26
:101C50000028206102D0E068284318E001202761B5
:101C6000E061E068032109028843012189020DE057
:101C7000E069FEF727FB00282061EFD0E0682843E9
:101C8000E0608105890F03D1FF2101310843E06045
:101C900020696060E2683A4F2569D0051FD5616808
:101CA000E06A884200D80846411B05D022462846F3
:101CB00000F012F9002843D1E068010204D5E56282
:101CC00000206560A06053E0691CE1626160E16929
:101CD000491E3843A160E06030462E70F8BD100206
:101CE00001D53A4009E06068411C61600670E06817
:101CF00038430A2EE06006D00022E16A6068814223
:101D000003D90B4602E00122F7E70346A7895B1BD4
:101D10007F0504D4E7699F4201DD002A1ED081427D
:101D200000D801460F1A0020E5626560002BA06014
:101D300009DD22461946284600F0CEF8002802D0D8
:101D40000020C043F8BD002F08D0A069E56265609F
:101D5000C01BA061E06810210843E060E068000259
:101D600009D56168A069E562491B40186560A061FA
:101D70000120C043F8BD3046F8BD000082100000CD
:101D800000000100F8B5044616460D464769007B81
:101D9000800730D0384603F0F3FD00282BD13246BF
:101DA0001026002A25D0012A02D0022A23D104E0DD
:101DB000204600F073FF45191BE0384603F0C6FDCE
:101DC000E16831430028E16004DA204600F07AF847
:101DD0000120F8BDC9030BD56268E16A914200D8C1
:101DE0001146A26989182269891A814200DD0846D4
:101DF0002D18002D01DA0220F8BDE16A6068E26862
:101E0000814206D29103E06203D5012149048A434D
:101E10003243A669AE4211DCE16A814201D90B4628
:101E200000E003469F192369FF1AAF4206DD814295
:101E300001D90F4600E007469F4206D12020024309
:101E40000020A060A56220600DE0AD1BE669AE1B1E
:101E50008142A66000D90846C01A281A2060581985
:101E6000606020208243034802400020E26040344A
:101E70002072F8BDBFCFD7FF70B5C468A50713D0D7
:101E8000650211D4D51FF93D0AD0FF3D6D1E07D064
:101E9000FF3DFF3D022D07D101462431012305E01E
:101EA000074E5D1EB54201D3012070BD0161C361C3
:101EB00041600F2109028C431443C460002070BDAF
:101EC000FFFFFF00C1688022114392039143C1606C
:101ED0000021816001607047F7B514460E46334813
:101EE000D5685769054209D03846A16903F072FEEA
:101EF000002811DB2D48C0430540E5602B463246E3
:101F00003846009903F084FE4200A1695208B21AD3
:101F100089180028A16104D02046FFF7D3FF0020D4
:101F2000C043FEBD70B504460569C06A6168884259
:101F300000D80846E1680522D2049143E160C90354
:101F400014D5A84209D02246411B2846FFF7C4FFFA
:101F5000002802D00020C04370BDE562002065600B
:101F6000A060E068012109048843E060002070BDA2
:101F700010B50446C06820218843E060A16AA069CA
:101F800088420ED02046FFF7CDFFE0680321090309
:101F9000884310210843E060A06AA0612069E062E4
:101FA00060600349E0680840E06010BD1000020076
:101FB000BFBFFFFF10B543485421FEF76DFD4248F7
:101FC0005421FEF769FD41485421FEF765FD404864
:101FD0003C493D4B404A01603E4803603B4810602D
:101FE0005A1C0A65411C1965012101653C48354AA6
:101FF0003AA17844FEF718FC002804D13848784408
:102000000C3800F0AFFE38482F4A36A17844FEF76E
:102010000BFC002804D1344878440C3800F0A2FEB0
:1020200032482A4A2FA17844FEF7FEFB002804D14B
:102030002E4878440C3800F095FE40232148DC00FF
:1020400000212246FFF718FF002804D024487844D6
:102050005C3800F087FE1C48224640230021FFF731
:102060000BFF002804D0204878445C3800F07AFE4A
:102070001648224610230021FFF7FEFE002804D058
:102080001A4878445C3800F06DFE10BD0F4870B5FA
:10209000006D44080B486400FEF748FC0A48FEF750
:1020A00045FC0A48FEF742FC09E0206D4508204641
:1020B0006D00FEF73BFC2046FEF735F92C46002C60
:1020C000F3D170BD4405002098050020EC050020E8
:1020D0001C010020200100202401002072000000CB
:1020E0001E530000770000000B530000F95200005F
:1020F00010B500F043FE00F02FFE10BD10B50346F2
:10210000406801E003464068002801D08842F9D3C6
:102110001868C3188B4206D0CB1CD808C000001D1D
:10212000411A521A0146081D0A60FEF7FCF810BD5C
:102130000B4670B5024689078008084319469D087A
:10214000141AA94125090807054308092C19484113
:10215000250A01060D43010A2C194141200C0D04EA
:1021600028430D0C00194D41002140194D41C00874
:1021700069070843E908840F8D002543840024186B
:102180004D4124196D41121BAB4107E00925ED4378
:102190002C11521963410024401C61411C460A2540
:1021A0000026551BB441F1D270BD10B5044600F0B5
:1021B0003FFE0068005DC007C00F10BD7047FFB54F
:1021C0000C461E468FB003CA089009914F007D0D42
:1021D00000D16D1E002108460020C0460321099A47
:1021E00089050840002A03DA820080184008084068
:1021F000800D01280A9002DD0020C0430A90089853
:1022000007430DD0F048F14928184843071418989F
:1022100000281DD07542291E1DDD0A9842421BE090
:102220001898012802D00020302104E00020F24359
:1022300005E02154401CB042FBDB30460022189BD5
:10224000002121540F998B600A60486013B0F0BDE3
:10225000BD1B6D1CDFE70A9A002900DA69420BA852
:1022600000F036FE0BAB07CB03AB07C30899099808
:1022700000F09AFE6B4607C30146D5480918002DA9
:1022800000910BDDD24903980A9A49424018002375
:1022900003A90390684601F0F7F808E003990A9A49
:1022A0000023081803A90390684601F097F86B46CD
:1022B00007C30004000C03D00020C043410800E025
:1022C0001046189A002A03D00022009215461EE0FC
:1022D000751E05D4FFF72CFF303262556D1EF9D5FF
:1022E00001220843079602D000227F1C04E02078D8
:1022F000302801D100227F1E002A069787D01EE0D9
:10230000112D07DAFFF714FF303262556D1C0246BB
:102310000A43F5D1084303D00098002819D00EE0F5
:102320000021681E05E0235C625C63542254401E59
:10233000491C8142F7DBA81B401E07950690079AAF
:1023400018990020A0540F98079B069A81600CC032
:102350007CE711260020189059E7D21DF0B50D46F4
:102360000446D10893B0C90003C90C900D9103F045
:1023700047FA02460D98C00F01D02D2007E02068D3
:10238000810701D52B2002E04007C00F4001032A3E
:102390000F9001D0072A05DB03462946204600F0AE
:1023A00053FD0EE12078800601D5E76900E006279D
:1023B0002846652D04D0662814D0672D69D12DE0FC
:1023C0000020112F009001DB112300E07B1C0CAAE0
:1023D00003A910A8FFF7F3FE1199002610987D1CA1
:1023E0000E9142E001203B460CAAC0070B90012051
:1023F000009003A910A8FFF7E2FE119D1298109912
:10240000002600280E9501D1781C0D18781B02D4E7
:1024100046427D1C761EE81B00903AE0012F00DA50
:1024200001270020112F009001DD112300E03B4621
:102430000CAA03A910A8FFF7C2FE11993D461098F7
:1024400000260E91217809070BD40E99A94200DAD3
:102450000D4603A9012D04DD4A19203AD27F302A06
:1024600006D0B84201DA011D04DA012100910FE023
:102470006D1EEFE7002802DC86192D1A03E0411CCF
:10248000A94200DD0D46801B401C00900120C007C2
:102490000B902078000705D40098A84202DB0020AA
:1024A000C043009069460020C8720B98012102AF1A
:1024B0000337C907884225D0022010902B201190A5
:1024C0000B9800280BDA40420B902D20119006E06B
:1024D0000B9800F06BFC30317F1E0B903970109917
:1024E000481E00291090F3DC0B980028F0D11198B9
:1024F0007F1E38702088000501D5452000E065204A
:102500007F1E387001A8C01BC01D0B900F980028BB
:1025100000D0012041190098C01709180B9808181D
:10252000A169081A401EA0612078C00602D4204686
:10253000FEF7B3FF0F98002805D06268A1689047A6
:10254000206A401C20622078C00625D52046FEF770
:10255000A4FF21E0002E07DB0E98B04204DD03A8A3
:102560006268805DA16802E06268A16830209047DF
:10257000206A761C401C20620098401E00280090B3
:102580000AD100F05DFCC06862680168405CA16827
:102590009047206A401C206228466D1E0028D9DC26
:1025A00007E062683878A1687F1C9047206A401C69
:1025B00020620B99481E00290B90F2DC2046FEF7A2
:1025C00082FF032042E6000001FCFFFF104D0000E7
:1025D000E1DFFFFFD21DF0B504460D46D0088DB0F7
:1025E000C000466807683146384603F009F90246DC
:1025F000F00F01D02D2307E02068810701D52B23A0
:1026000002E04007C00F43016846002B037001D071
:10261000012000E00020032A0A9001D0072A04DBF1
:102620002946204600F010FC2DE12078800601D4D8
:102630000D2500E0E5697000400D0D2D01904BDA8D
:10264000300D00210B9008460020C046032189056B
:102650000840002E05DA82008018C20F10184010C2
:1026600008408015012801DD0020C043A900002397
:10267000182906D39C460A460123183A1B07D34063
:1026800003E001221205CA4094460C31202902D3EE
:102690003A46203900E032468A40002802DD002A0E
:1026A00006D119E0002817D10121C9078A4213D3A6
:1026B000194663467F185E41002806D10120C007F5
:1026C000824202D1084687439E430B98310D8142D6
:1026D00002D00198401C01902088000502D5714964
:1026E000794402E06F49794419396B460A983022DF
:1026F0001A540A980A7C401C1A54401C0A900198EB
:10270000002801DC302000E031201872019A0120FD
:10271000002A02D0644BD21804E072003A4302D07F
:10272000614A521C0192002D02DC2278120703D567
:102730006A462E20507202200022864694460CE003
:1027400032033601120F6D1E8B5C02AA13546246CF
:10275000521C401C9446052A01DA002DF0DC0022B0
:1027600002AE08E03B0F3F01CB5C521C6D1E3354A0
:10277000401C082A01DA002DF4DC23689A0601D5F2
:1027800011E0401E704504DD3218203AD27F302A15
:10279000F7D0002807DD3218203AD27F2E2A02D146
:1027A0001A0700D4401E002D03DD3E223254401C87
:1027B0006D1E497C31540199401C002906DA2D21F7
:1027C000471C315401984042019003E02B21471CE3
:1027D000315401987D21C900884206DBFEF7BCF91F
:1027E0003030F0557F1C019101E0642808DB01982E
:1027F0006421FEF7B1F93030F0557F1C019101E002
:102800000A2806DB01980A21FEF7A6F93030F055B8
:102810007F1C01980A21FEF79FF93031F1550A9883
:10282000A1697F1C7A191018081AA0612078C006C7
:1028300002D42046FEF731FE216A6E460A98081837
:10284000206204E062683078A168761C90470A989C
:10285000401E0A90401CF5D12078C00602D52046C3
:10286000FEF71BFE02AE09E03078761C3E280DD044
:102870006268A1689047206A401C20627F1EF3D2E4
:102880002046FEF720FE0DB00320F0BD206A40195F
:10289000206203E06268A168302090476D1EEDD38E
:1028A000F8E700003B4E000001FCFFFF10B5436954
:1028B000002B02D0C046C04601E0FEF727FE0120F3
:1028C00010BD1278014624310A7000224A7001229C
:1028D000ECE711680022D243E8E710B54369002B0A
:1028E00002D0C046C04601E0FEF70EFF012010BD39
:1028F00012880146243182840022C2840122ECE73E
:1029000011680022D243E8E7F3B50C468FB00020EF
:102910000C90012000260E9008460C30039062694E
:10292000039801219047051E2ED0252D2DD0216A18
:102930008847002818D06269039801219047216ACE
:1029400088470028F7D16269411E0398904700E04C
:10295000761CA1690F988847216A88470028F7D11B
:10296000E1690F988847DAE7A1690F988847A8427C
:10297000074601D1761CD2E7E1690F9888477F1C92
:1029800002D10C98002877D075E16269039800277E
:102990003D46394690472A280CD1626903980121A7
:1029A0009047012506E00A214F433F18303FEBD402
:1029B0001020054362690398012190470146303990
:1029C0000A2903D2B1498F42DEDCECE7E90600D4E4
:1029D000AF4F6C280AD04C2810D0682824D06A2821
:1029E0002ED074280CD07A280AD00DE062690398A2
:1029F000012190476C2823D004211CE020200543AE
:102A00006269039801219047A760652865604FD0EF
:102A100026DC582839D01ADC452849D012DC252874
:102A200034D04128B0D143E0626903980121904736
:102A3000682802D008210D43E6E70120C002DEE746
:102A40000220DCE7462833D047289DD130E05B28C0
:102A500070D061282CD063286CD0642894D161E0B8
:102A60006F284FD009DC662822D0672820D069283B
:102A700026D06E2888D12EE0F9E070284DD073283A
:102A80006FD075284ED078280DD154E0A1690F98E9
:102A900088472528054600D16CE7E1690F988847EB
:102AA0006D1C00D16DE7E6E00A224CE00A2252E0FC
:102AB000012023466A460F99C043C046C046CFE076
:102AC00040212846234608436060A80701D500221C
:102AD00039E000223FE0E80700D020E72068011D30
:102AE00021600068290501D5067018E7290701D57E
:102AF000068014E7A90703D5F117066041600EE7C9
:102B000006600CE740212846234608436060A8077A
:102B100001D5082217E008221DE05E49284608403A
:102B2000606016E040212846234608436060A807FD
:102B3000BCD5B9E715E04021284608436060A807E6
:102B400007D52346102201200F99C043C046C04636
:102B500086E01022234601200F99C043FDF778FD3F
:102B60007EE0002163280B460191009102910D91B6
:102B700002D05B2808D03CE02079C00601D40120B7
:102B8000A0600120009034E0E06801210D906269AE
:102B9000039890475E2807D101200190E068012149
:102BA0000D906269039890472169002906D10B4670
:102BB00004AA8F00491C0829D351FADB00285AD0F7
:102BC0002169002927D00298401C0290626903986D
:102BD000012190475D28F1D10198002808D00020FC
:102BE00004AB8100401C5A58D24308285A50F8DBE5
:102BF00004AB2069002820791DD0400726D5029A11
:102C000000980D9B00922246029001200F99C0432C
:102C1000C046C04624E0C117C90E09184A11490927
:102C2000930004AA9A184901411A136801208840A8
:102C300003431360CAE74007224617480F9902D59D
:102C4000C046C0460CE0C046C04609E00298224695
:102C500000990D9B009002910F480F99C046C04605
:102C600000280ADA401C06D10E98002803D0002064
:102C7000C04311B0F0BD0C98FBE7E90702D10C99F5
:102C8000491C0C91361800200E9048E6CCCCCC0C98
:102C9000FFFFFF7FF1F7FFFFFEFFFFFF10B50146CB
:102CA000C268900703D0900607D5886A0AE0FDF74E
:102CB00005FB01210160881E10BD8B694868C018A2
:102CC0000B69C01A40310B7A002B02D0497A401AA6
:102CD00010BD1103FCD50028FADD401E10BD000018
:102CE00070B505460A4C0B4E0EE0206DC00708D0AB
:102CF000AC4206D03146E068814302D12046FDF760
:102D00004DFD206D44086400002CEED170BD000024
:102D1000440500200202000070B516460C46054628
:102D200000F086F80368FF200230C05C012807D05D
:102D3000FF2C0ED8185D00280BD001202C7070BD20
:102D4000FF333246214608331868C318284698478F
:102D500070BD0020C04370BD10B5002801D000F048
:102D600061F810BD10B500F0F9FBFFF7F5FF10BDDD
:102D700010B500F00DFCFFF7EFFF10BD10B50021FE
:102D800002A000F0D1FB012010BD000053494750C4
:102D900056464E3A20507572652076697274756198
:102DA0006C20666E2063616C6C656400014680086F
:102DB000081A02091018020A1018020C1018C0088C
:102DC000820012185200891A01E0401C0A390A29AF
:102DD000FBD2704701226946114B120382188A42C6
:102DE0001A6001D8114670471960704770B50C4CD5
:102DF0006D46012636032368AD1B9A18AA420ED8E9
:102E0000AD1A9019EE0F75196D10AA18904200D9DD
:102E10001046C01D0B60C208D200D01A226070BDDF
:102E20002801002001491820ABBEFEE72600020061
:102E300010B500F005F8001D10BD00BF21410000D5
:102E40000048704744060020F8B51F460446012399
:102E50000068DB02032601461840072A05DB00282C
:102E600001D017A506E017A504E0002801D016A59B
:102E700000E016A5102081432160A069C01E002F2C
:102E8000A06101D0401EA0612046FEF706FB002F86
:102E900009D038466268A1689047206A401C2062C9
:102EA000C01C206206E0206AFAE762682878A16800
:102EB0006D1C9047761EF8D22046FEF704FBF8BD45
:102EC0004E414E006E616E00494E4600696E6600CE
:102ED000F7B516468AB0334878446C4603467C33CF
:102EE000C06F5A689B680DC42E487844763003AC96
:102EF0000DC80DC43720C001081837211B30FDF75D
:102F00002BFE05460C46803D1B3C02D56442012049
:102F100000E000200027099010E0E0070CD00C2012
:102F200020497843794432464C3941186846012398
:102F300000F054FA6B4607C364107F1C002CECD1E0
:102F4000184F7F442E3F16E0E80712D02001C01929
:102F50000EC80691089307920068F04201D19819B3
:102F600008903246012306A903A800F037FA03AB04
:102F700007C36D10641C002DE6D10998002806D007
:102F800032466946012303A800F07EFA05E00123DA
:102F90003246694603A800F021FA0A9B07C30DB028
:102FA000F0BD000058460000034640000A4610B538
:102FB000400D0BD00121C9070F24A40200191C03E6
:102FC00064082143540D2143D20207E0002101206F
:102FD000F2E7D40F490021435200401E0029F8DADD
:102FE000DB0FDB07184310BDFFB50D46144685B057
:102FF0004868516802F0ECFB00910190A868A16854
:1030000002F0E6FB02910390A868616802F0E0FB21
:10301000029A12188242029201D2012000E000209E
:10302000019A0B18D2180028019202D08A4202D9C4
:1030300003E08A4201D2012000E000200099081834
:1030400000906868A16802F0C3FB029A12188242DD
:10305000029201D2012000E00020019A0B18D21840
:103060000028019202D08A4202D903E08A4201D2AA
:10307000012000E0002000990818009028682168CD
:1030800040004900400849084018FA49471814E030
:1030900001994000C90F084300900198029940002F
:1030A000C90F08430190029803994000C90F0843D3
:1030B0000290039840007F1E039000980028E7DAF2
:1030C0000898002801D0EC4E00E00026B74201DA53
:1030D000012000E00020002804902AD0F71BF80609
:1030E000C00E15D0029B2021091A039A8B401A4367
:1030F0000392029A019BC2408B401A430292019AAA
:10310000009BC2408B4000991A430192C14000913C
:103110007B110DD06F460320C11A03D50021820018
:10312000B95003E08A008100BA587A50401EF3D5A6
:10313000374603980299002800D0012001430898DF
:103140000291002808460CD0002800D001200199E7
:10315000019A490508430121D20AC902D20201920B
:1031600000E001210E9B0122D207012B02D0002B8F
:1031700003D013E0002807D120E0904204D8904209
:103180000CD1019B0B4209D0019B5918019105D12B
:103190000099491C009101D17F1C009200280DD09C
:1031A000102108460020C0460498002806D00F9839
:1031B000002803D0082108460020C046286821685E
:1031C000019B009A4840C10F0598C90739430EC0BA
:1031D00009B0F0BDFFB587B0099A089808995368FF
:1031E0009268406889689646002203931746944681
:1031F000089A12685300099A5B0812685200520834
:103200009A1A9E4BD4180A9A002A01D0352200E05F
:10321000402206920022012315460492DB07059303
:1032200024E0002D05D175460346039E4D1BB34196
:1032300009D375466646039B491B049D9841059B2F
:103240007519AC465F4163463B4308D0059B049E1D
:10325000DD0776082E435B080496059301E0521EB5
:10326000641EC50FED0749184041521C069B9A4247
:10327000D7DB002D04D17546039A6B1A824101D227
:1032800003200CE0039A0B466B404240134303D0EB
:10329000014303D0012002E0022000E0002061464B
:1032A00001910021009702910A99002905D06146F9
:1032B00040020143704B019102E08007002302901D
:1032C0009C4201DA012000E0002007003AD01A1BDE
:1032D000D006C00E15D0029D2021019C091AC540C0
:1032E0008C402543029C8C4000D001242543019C46
:1032F0000295009DC4408D4000992C430194C1402B
:10330000009154111DD06D460221002202290CD1DA
:103310000320001B07E0002804DB8600AE59002EC6
:1033200000D00122401C0328F5DB081B02D58800D1
:103330002A5004E08000285810438A00A850491EF3
:10334000E3D51C460A98002802980CD0002800D02B
:1033500001200199019A490508430121D20AC902B5
:10336000D202019200E00121109B0122D207012B21
:1033700002D0002B03D013E0002807D11FE09042B9
:1033800004D890420CD1019B0B4209D0019B5918E3
:10339000019105D10099491C009101D1641C009252
:1033A00000280CD0102108460020C046002F06D06F
:1033B0001198002803D0082108460020C04608982C
:1033C0000999019A009B006809684840C10F079855
:1033D000C907214382600AC00BB0F0BD00B585B0BB
:1033E000019300920A460146002302A8FFF7FCFD64
:1033F00002A807C805B000BDFFB50A461F4685B044
:103400000799019301230091014602A8FFF7ECFD03
:1034100002990398049ECA0F4900D20700920F2216
:10342000490892028C1A0021002800DB0C46450056
:1034300013486D08844214D3079A002A04DA441E04
:103440000026104DF64302E004460D460E461021BC
:1034500008460020C046002F03D004210846002063
:10346000C0462005E90A0843009908436905F20AA5
:103470001143ADE602C0FFFF013C0000FF3F00002A
:10348000FF070000FFFFFF7F00B585B001930092AA
:103490000A460146002302A8FFF79CFE02A807C8BF
:1034A000A8E7FFB50A461F4685B007990193012397
:1034B0000091014602A8FFF78DFE02990398049E31
:1034C000CA0F4900D20700920F22490892028C1AB3
:1034D0000021002800DB0C46450011486D0884429D
:1034E00014D3079A002A04DA441E00260D4DF64331
:1034F00002E004460D460E46102108460020C04654
:10350000002F03D0042108460020C0462005E90A08
:103510000843009908436905F20A114358E6000080
:10352000FF070000FFFFFF7F70B505460C460A202D
:1035300000E06D1C00F054F8002D06D0287800281B
:10354000F7D102E0641C00F04BF8002C02D0207888
:103550000028F7D10A2000F043F870BD10B50146ED
:1035600002A0FFF7E1FF012010BD000053494752C0
:10357000545245443A2052656469726563743A2036
:1035800063616E2774206F70656E3A200000000042
:1035900010B5012805D0002103A0FFF7C5FF0120C9
:1035A00010BD09A1F8E7000053494752544D454D5D
:1035B0003A204F7574206F662068656170206D65D4
:1035C0006D6F7279000000003A2048656170206DCF
:1035D000656D6F727920636F7272757074656400C7
:1035E00008B5694608700320ABBE08BD704710B52A
:1035F00002F060FF02F0D0FC10BD0021C1607047F6
:1036000070B50024014620314A78022A03D00421F3
:103610008163012416E0026813680E25AB43136032
:10362000026813685B085B0013600122056C134697
:10363000AB40C56B6B604A7000220A70416B002979
:1036400000D08847204670BD0148006870470000E0
:10365000E400002002480168491C01607047000036
:10366000E400002010B506480168102211430160F3
:10367000032000F007F800F07BF8002010BD0000E8
:1036800000200240F8B52F488169C0142D4A01433B
:103690009161916901400091D1680143D160D16885
:1036A0008143D16000F088FD284C274820602848DD
:1036B000E060294827490068FDF740FA401E606035
:1036C00000202061A060A061204600F03FFB0021A7
:1036D000204600F061FB0421204600F05DFB2168DC
:1036E0004A6A1E48026000687D22D2008018886302
:1036F0001B490D2000F0A4FC01271A4E780330600E
:10370000194D2868FF2109028843286017490E20B7
:1037100000F096FCB80330602868FF210904884354
:10372000B905084328602068C1683943C160206832
:10373000C16804221143C160204600F021FB002033
:10374000F8BD000000100240002C014000050020E0
:10375000FFFF000040420F00E8000020D0000020E2
:10376000B96C000800E100E00CE400E0156C000812
:1037700070470000F0B505465F4889B000680F4605
:10378000C007C00FB8420AD25B4801684908490027
:10379000394301600068C007C00FB84271D1287872
:1037A000800706D555484168F0229143AA68114325
:1037B00041602878C00754D06868012821D04F495B
:1037C0000228096822D089075BD54C4C61688908BA
:1037D000890001436160FFF737FF06466968484882
:1037E000012916D06268022925D01207920F38D01D
:1037F0000446FFF729FF801BA0422DD9032009B002
:10380000F0BD3E49096889033BD5DEE7890138D51B
:10381000DBE762681207920F012A22D00446FFF705
:1038200013FF801BA042E9D8344840680007800F8E
:103830000128F4D115E01207920F022A11D0044694
:10384000FFF702FF801BA042D8D82C484068000731
:10385000800F0228F4D104E0284840680007800F58
:10386000C7D125480168C907C90FB9420CD90168F9
:1038700049084900394301600068C007C00FB842D9
:1038800002D0012009B0F0BD2878400707D51B49B8
:103890004868072212029043EA6810434860194AB8
:1038A0006C460FCA0FC4184B04AD0FCB0FC5134C99
:1038B00062680C2011460140144804290DD00829E3
:1038C0000BD19102090F6B465D5CE16A04AB0907FD
:1038D000090F595CFDF732F9684361680C4A090623
:1038E000090F515CC8400B4908600320FFF7CAFE6E
:1038F000002009B0F0BD000000200240001002408E
:1039000088130000803900089039000800127A00FE
:1039100044740008E800002004480549006849682C
:10392000044A4905490F515CC8407047E80000202F
:10393000001002405474000810B511A30FCB88B0DA
:103940006C460FC412A00FC80FC415494A680C205A
:10395000134603401348042B0FD0082B0DD19302BC
:103960001B0F6C46E45CC96A04AB0907090FD2035C
:10397000595C920FFDF7E2F8604308B010BD0000FB
:1039800002030405060708090A0B0C0D0E0F1010A0
:103990000102030405060708090A0B0C0D0E0F109F
:1039A0000010024000127A00F8B504460078E44D99
:1039B000C0074DD068680007800F01282BD06868C9
:1039C0000007800F022804D16868C003800F022816
:1039D00021D0012062680004012A23D08100002A3E
:1039E00001D0052A22D02A6882432A6028688843A9
:1039F0002860606800281DD0FFF726FE064628686C
:103A0000800325D4FFF720FE801B64287ED8286819
:103A10008003F7D51CE02868800319D5606800286A
:103A200075D015E0296801432960E2E72A680A4356
:103A30002A60F7E7FFF708FE06462868800307D5E7
:103A4000FFF702FE801B642860D828688003F7D443
:103A50002078800743D568680007800F26D0686803
:103A60000007800F022804D16868C003800F012876
:103A70001CD0E068002820D029680120014329607B
:103A8000FFF7E2FD06462868800707D4FFF7DCFD54
:103A9000801B02283AD828688007F7D52868F821C3
:103AA00088432169C9000843286018E02868800716
:103AB000F4D5E06801282AD1F0E7286840084000E2
:103AC0002860FFF7C1FD06462868800707D5FFF785
:103AD000BBFD801B022819D828688007F7D42078FE
:103AE00000072AD5E069002815D0696A0120014342
:103AF0006962FFF7A9FD0646686A80071DD4FFF7D3
:103B0000A3FD801B022801D8686A01E090E014E15F
:103B10008007F4D511E0686A400840006862FFF74A
:103B200093FD0646686A800707D5FFF78DFD801B69
:103B300002287DD8686A8007F7D42078400768D5C6
:103B400000200090E869C00008D4E969012000075E
:103B50000143E961E969014001200090794F38682B
:103B6000C00511D43868B91508433860FFF76CFDFB
:103B700006463868C00507D4FFF766FD801B642839
:103B800056D83868C005F7D5A06801281ED000288F
:103B900001D005281ED0286A400840002862286A03
:103BA000042188432862A068674E00281BD0FFF7D5
:103BB0004BFD0746286A800723D4FFF745FDC01B4D
:103BC000B04260D8286A8007F7D51AE0286A012138
:103BD0000843E7E7296A042001432962296A012092
:103BE00001432962DFE7FFF72FFD0746286A8007B8
:103BF00007D5FFF729FDC01BB04244D8286A8007CB
:103C0000F7D40098002804D0E86901210907884307
:103C1000E8612078C0061CD56069012835D0401DB8
:103C2000686B50D0042108436863686B400800E06B
:103C300029E040006863FFF707FD0646686B8007D0
:103C400007D5FFF701FD801B02281CD8686B800791
:103C5000F7D4606A00286ED069680907890F0229C5
:103C60006BD001273F060228286830D0B84328606F
:103C7000FFF7EAFC0446286880015CD5FFF7E4FC06
:103C8000001B022854D90320F8BD686B04210843A7
:103C90006863686B012108436863FFF7D5FC06463B
:103CA000686B800707D4FFF7CFFC801B0228EAD897
:103CB000686B8007F7D5686BF8218843A169C90054
:103CC00008436863C5E7042188436863F3E7B843A2
:103CD0002860FFF7B9FC06462868800107D5FFF782
:103CE000B3FC801B0228CED828688001F7D4E86A8C
:103CF000216B000900010843E862E16AA06A014300
:103D000068687B22D2039043014369602868384386
:103D10002860FFF799FC0446286880010BD4FFF760
:103D200093FC001B0228AED828688001F7D502E07A
:103D300028688001A2D40020F8BD0120F8BD000051
:103D4000001002400070004088130000002801D1DC
:103D50000120704770B5054604462035687F00286D
:103D600003D12877204600F00AF802206877211D49
:103D7000206800F0BDFA01206877002070BD704710
:103D80000222014620314A7702681368012003436A
:103D9000136048770020704710B40124224603685E
:103DA0008A40196A91431962196A114319620C4ACF
:103DB0000168914208D00B4A914205D00A4A9142CB
:103DC00002D00A4A914204D14A6C0123DB031A4310
:103DD0004A64006801682143016010BC00207047FC
:103DE000002C0140004001400044014000480140D7
:103DF0000168CA69D243D20701D101220A6201686F
:103E0000CA69D243920701D402220A620168CA69D0
:103E1000D243520701D404220A620068C169C9432F
:103E2000090701D40821016270470000F8B5026853
:103E30000446D16910680B0725461B0F6035002B1F
:103E400066D09368FF27DE07F60F21370740374318
:103E500067D0CF0706D0C70504D501271762E26EE9
:103E60003A43E2668A0708D5DA0706D027680222B5
:103E70003A62E26E04273A43E2664A0708D5DA0757
:103E800006D0236804221A62E26E02231A43E26615
:103E90000A0709D520220240324305D023680822B0
:103EA0001A62E36E1343E366E26E002A2FD089069E
:103EB00004D5800602D5204600F0D0FAE06E000757
:103EC00003D42068806840064DD520680168FF2231
:103ED000213291430160206881684908490081606E
:103EE0002020A87220688168490638D58268402160
:103EF0008A438260606E002831D02E494163606E33
:103F0000FFF77EFB002802D0606E416B8847F8BD4A
:103F10008B0605D5830603D5204600F09FFAF8BD31
:103F200093680B0638D5030636D5687A2128F6D172
:103F300020464030418A00291BD00123A1681B0381
:103F4000994202D1216900291DD0E16C4A1CE2642A
:103F5000226809781185418A491E4182F8BD2046B0
:103F6000FFF746FFF8BD2046FFF742FF0020E0665E
:103F7000F8BD1068802188431060206801684022E5
:103F800011430160F8BDE16C0988C905C90D1185AF
:103F9000E16C891CE164DEE74906F3D54006F1D502
:103FA0001368204640218B4313602021697200F082
:103FB0003EF8F8BD49440008002801D101207047AF
:103FC00070B5054604466035687A0026002803D19E
:103FD0002E72204600F029F82420687220680168BB
:103FE000490849000160204600F076FA01281BD0FC
:103FF000606A002802D0204600F0C0F920684168BD
:104000000122D202914341602068816808229143D5
:104010008160206801680122114301603046E66634
:1040200020216972A9722E7270BD704770470068B6
:10403000C169C943490601D44021016270470000AB
:10404000F0B484460D4802680D4FD24392070FD05A
:10405000C40200229300E658DD191B192E605B682C
:10406000921C6B60302AF5DB026803231A4302605E
:1040700060468000C0190164F0BC70470000014038
:104080000000002070B592B0002506460F951095EF
:10409000342168461195FCF7FFFC012421460EA847
:1040A0000E94FFF767FB00281FD10094002E0FD05D
:1040B000052001900226F0030A900520C0040B9011
:1040C00009960C946846FFF76FFC00280DD101E0BB
:1040D0000194EFE707200E90109501210F9611959E
:1040E0000EA8FFF747FB002802D0002012B070BDD9
:1040F000012012B070BD000038B500242049062808
:1041000038D202007A44127992189744020D161F91
:10411000332909244A69E4060120400402434A6124
:1041200049690140009128E0164C4A692002024387
:104130004A614969014000911FE0134C4A6920021D
:1041400002434A6149690140009116E00F4C4A69F7
:104150000120000502434A614969014000910CE0D9
:104160000B4C4A690120800502434A6149690140BC
:10417000009102E007A001F0FDFD204638BD0000DF
:10418000001002400004004800080048000C0048ED
:104190000014004850696E6D6170206572726F7214
:1041A0003A2077726F6E6720706F7274206E756D33
:1041B0006265722E0000000070B5114D69680C2018
:1041C00001401048104C03D0042901D0082901D027
:1041D00020600CE069686A6889020E0FE96AB61C03
:1041E0000907090F491CFCF7A9FC704320606868A7
:1041F00006490006000F085C2168C140216070BDBF
:104200000010024000127A00E80000204474000808
:10421000F0B5324C93B020680126304320606068CE
:104220002F490840606020682E49084020602068BF
:10423000B1048843206060683F21090488436060BE
:10424000E06A00090001E062206BFF21943188439D
:104250002063206B802108432063606BB043606360
:104260000025A560A0693043A06120491E48086070
:10427000FFF7F8F90120FFF705FF002824D1FFF729
:1042800001FF002820D102271020009701950295F8
:1042900006A9039605950490E1C1C0020A90052085
:1042A000C0040B900C956846FFF77EFB00280AD1EE
:1042B00007200E90109501210F9711950EA8FFF77A
:1042C00059FA002800D0FEE7E1680120C00201434E
:1042D000E160E1688143E16013B0F0BD001002408D
:1042E0000CB8FF08FFFFF6FE00127A00E80000207D
:1042F000F0B402681B4B1C4C984201D0A04203D181
:104300007025AA434D682A43184D194E194F9842FB
:104310000AD0A04208D0184CA04205D0A84203D031
:10432000B04201D0B84205D1144603221202944390
:10433000CA6822438024A2434C69224302608A68EF
:10434000C2620A688262984205D0A84203D0B04295
:1043500001D0B84201D10969016301214161F0BC7A
:1043600070470000002C0140000400400040014064
:1043700000440140004801400020004010B4818CFE
:10438000C90707D001684A6801235B049A43836A1E
:104390001A434A60818C890707D501684A6801235E
:1043A0001B049A43C36A1A434A60818C490707D5A4
:1043B00001684A6801239B049A43036B1A434A60CD
:1043C000818C090707D501684A680123DB039A43FA
:1043D000436B1A434A60818CC90607D5026891680D
:1043E00001231B039943836B19439160818C8906D8
:1043F00007D501688A6801235B039A43C36B1A439C
:104400008A60818C490612D503685A680121090522
:10441000046C8A4322435A60026C8A4207D10268C4
:10442000516803235B059943436C19435160818CA8
:10443000090607D501684A680123DB04806C9A43AA
:1044400002434A6010BC704710B5406A0022014622
:1044500040314A834A82FFF7CBFC10BD70B502465B
:10446000403203466033948B9D7A0168222D05D03B
:104470008869082210438861022070BD898C01265A
:1044800085683603B54202D10569002D0CD0214064
:10449000446D651C45652170518B491E0904090C4A
:1044A000518308D0002070BD456D21402980416DA9
:1044B000891C4165F0E701680A68FF242134A243A2
:1044C0000A6001688A68520852008A602021997245
:1044D000FFF7ACFD002070BDF8B504462369A26863
:1044E000E5691A43636910202B43002125681A43AC
:1044F0002B680E46504F3B4013432B6023685A688D
:1045000003252D03AA43E5682A435A60236AA2695A
:1045100025681A43AB680B273F02BB431343AB60CC
:10452000464A2568954210D1454A126B9207920F70
:1045300014D0012A05D0022A05D0032A0FD1022067
:104540000DE004200BE0082009E03E4A954205D02A
:104550003D4A954202D03D4A954200D100200122B9
:10456000E369D203934235D100280ED0022816D039
:1045700004281CD0082824D001260A0908071201A3
:10458000400F21681043C8602DE0FFF7C5F961684E
:1045900040004A088018FCF7D1FA81B2EDE7616863
:1045A0002B4A48088018FCF7C9FA81B2E5E7FFF703
:1045B000C3F9616840004A088018FCF7BFFA81B26D
:1045C000DBE761680122480812048018FCF7B6FA9C
:1045D00081B2D2E7002808D0022811D0042818D0D0
:1045E000082821D001263046F8BDFFF795F961680B
:1045F0004A088018FCF7A2FA216880B2C860F2E786
:104600006168144A48088018FCF798FA80B2E8609C
:10461000E9E7FFF791F961684A088018FCF78EFA1C
:10462000216880B2C860DEE7616848088018FCF73E
:1046300085FA80B2E860D6E7F369FFEF0038014001
:10464000001002400044004000480040004C004080
:104650000024F40000127A00002903D08368026865
:104660001A6002E0C36802681A607047F0B58BB048
:1046700004460D46502001F091F80A90002807D01A
:1046800000235A1E21460A9800F0EEFF0A9000E02F
:104690000020064605A9304600F020FF05AB2A465B
:1046A00014A11B4800F038FB00BF3078002801D06F
:1046B00018A000E018A007463A4618A1144800F0D8
:1046C0002BFB6946304600F062FF6A4619A110488C
:1046D00000F022FB304600F034FC07463A4618A1B1
:1046E0000B4800F019FB15A1094800F015FB3046F6
:1046F0000BB0F0BD466F756E64202564206465764E
:104700006963652C20524F4D3D25730D0A00000052
:104710003C020020596573004E6F00000970617201
:10472000617369746520706F77657265643A2025DE
:10473000730D0A000952414D3A2025730D0A0000FD
:10474000097265736F6C7574696F6E3A2025642009
:10475000626974730D0A000010B529E0184800F072
:1047600075FAC4B217480068502803DA1648007872
:10477000002800D01CE00A2C01D00D2C0FD1012004
:104780001149087000210F4802680068401C0D4B59
:1047900018600E4881540020194608600EE0094850
:1047A00001680068401C074A10600848445400BF74
:1047B0000348BC3800F0F7F80028CFD100BF10BD87
:1047C0003C020020C8000020C40000205402002049
:1047D000FEB507460C463846FCF7DEFC0546F820D9
:1047E000224600950191029002A10A4800F094FA35
:1047F000FEBD00004465766963652025642072650E
:104800007475726E732025332E3166202573430D27
:104810000A0000003C02002070B504460D4601224B
:104820001146204600F022FD70BD70B504460D46CD
:1048300029462046FFF710FF70BD70B504460D46AF
:104840001C212046FCF728F92946204601F049FBA7
:10485000204670BD70B504460D4629462046FFF738
:10486000E4FF204670BD10B54C3001F093FF10BD41
:1048700010B50C464C3002F079F9204610BD00000E
:1048800010B509010C189834E068002804D1054AD5
:104890000549064801F082FDE06801682046884726
:1048A00010BD00001F0200003D77000838770008A7
:1048B00070B505464C3002F045F83F210446090228
:1048C0006B6C0840002B07D0002805D02A463832F0
:1048D00001461B6810469847FC2021466A6B014040
:1048E000002A05D0002903D02846126828309047B6
:1048F00070BD7047F0B5064600680D46016887B088
:1049000017463046884701F0C3F93801841930460C
:104910004C30E96898340090002916D0AC420ED093
:10492000E1682046002901D089688847E8680028A6
:1049300003D04268294620469047E868E06001229B
:104940003946009802F0A8F820E01448029002AD21
:1049500013480590AC420ED0E1682046002901D0F2
:104960008968884705982946002802D04268204671
:1049700090470598E060059902A8002901D0896850
:10498000884700223946009802F086F801F0C6F9FF
:10499000306841683046884707B0F0BD394F00089D
:1049A0002C770008704770B50446006801682046FF
:1049B000884720464C3002F0EBF8054620684168F5
:1049C00020468847284670BDFFB5044685B0334869
:1049D000334920601E46CB688A680021A260E360EC
:1049E000304A2261304A6261E161A46121460831A6
:1049F00021622E496162BFF36F8FBFF34F8F00209A
:104A00006063214640316064087248724C2160182E
:104A1000FCF742F82046022310222549983000F086
:104A200007FF0546983D1838049000278663380133
:104A30004419204800906E461F4898340390B442B1
:104A40000ED0E1682046002901D089688847039884
:104A50003146002802D04268204690470398E06023
:104A600003996846002901D0896888477F1C022F76
:104A7000DDD328464C300446079A069901F09CFE87
:104A80000498816B204601F07FFE2A460B492046A0
:104A900001F04CFF284609B0F0BD0000D0750008B9
:104AA0005C74000801A00FC818470000B970000826
:104AB000FB350008394F00082C77000881480008B2
:104AC00070B504460D4601F0E3F82946204601F092
:104AD0001CFA01F023F970BD014600BF4868006868
:104AE0000A681040002801D0012000E00020704733
:104AF00010B5044601F0CCF80021204601F0A9F9D8
:104B000001F00CF910BD70B504460D46294620464B
:104B1000FFF7A2FD70BD10B5044601F0B9F8012100
:104B2000204601F096F901F0F9F810BD70B5044681
:104B30000D461C212046FBF7AFFF2946204601F019
:104B4000BFF9204670BD0000F8B5174D044628682F
:104B5000002801D1281D28600146281D00908142AF
:104B600004D059221149124801F018FC0021114AC1
:104B70002F6810230E4688001558A54200D1165004
:104B8000491C5B1EF7D10848002F01D0016801E0E5
:104B9000011D01600098814204D059220349044854
:104BA00001F0FCFBF8BD0000D4000020DE76000818
:104BB000CA760008A402002010B50021FBF7A8FE69
:104BC00010BD70477047000010B51C46029BFFF7F0
:104BD000FBFE2146BC3000F0B9F8BC380249016048
:104BE0000249BC22115010BDE87500080876000883
:104BF00010B5124901601249BC221150BC3000F0BE
:104C0000C5F80446BC3C0F48206020460223102211
:104C10000D499830FCF798F83834E068002802D045
:104C2000816820468847103CE068002802D08168EF
:104C3000204688472046283810BD0000E875000847
:104C400008760008D0750008A570000870B5044605
:104C50000068816B204688472069FBF7BAFD206910
:104C600000F06BF905462068C16B2046884728464E
:104C700070BD70B5044600680D46826B20469047B3
:104C80002069FBF7A6FD28462169FBF7BBFD054619
:104C90002068C16B20468847284670BDF8B5054698
:104CA00000680E460C468F18816B28468847BC4228
:104CB00009D02868416C28468847411C03D02070E1
:104CC000641CBC42F5D12868C16B28468847A01BEC
:104CD000F8BD002070470020704700207047F8B5ED
:104CE000054600680E460C468F18816B284688479B
:104CF000BC4209D028682178026C2846641C904781
:104D0000401C01D0BC42F5D12868C16B28468847B9
:104D1000A01BF8BD002070470FB470B504460068B2
:104D2000816B2046884706AD2069FBF752FD2A4675
:104D300020690599FBF730FB05462068C16B2046CA
:104D40008847284670BC08BC04B0184710B584B02A
:104D5000002200F063F8044609482060002020612A
:104D6000224608A16846FBF72DFB07A16846FBF722
:104D7000A5FD2061FFF720FF204604B010BD000014
:104D8000587600083A257000772B000010B50446CD
:104D9000044820602069FBF7C9FD204600F05EF85A
:104DA00010BD000058760008007B704770B50646BD
:104DB0000D46164802F058F915480468002C20D01A
:104DC000A06800281AD02A463146FBF7F7FD0028D4
:104DD00014D1A068FBF7D0FDA8420FD10B480168A1
:104DE000002901D1011D0160001D814204D059221A
:104DF0000849094801F0D2FA204670BD6468002CC9
:104E0000DED1024802F030F9002070BD140100200C
:104E100010010020DE760008CA76000870B504464E
:104E2000002666600A48A16020600D46227309488A
:104E300002F01AF9002D04D007480168616004608F
:104E400000E06660034802F00FF9204670BD0000E4
:104E5000A8760008140100201001002010B50446B7
:104E600011482060114802F0FFF8A06800280FD018
:104E70000F490868A04202D16068086008E04168F4
:104E8000A14203D008464968A142FBD16168416054
:104E9000064802F0E9F8207B002802D12046FFF7FF
:104EA00053FE204610BD0000A87600081401002023
:104EB000100100207047704710B504464068002874
:104EC00003D0FFF771FF002801D0002010BD6068FB
:104ED00010BD4068002800D00120704710B5406820
:104EE000002804D0FFF760FF002801D0002010BD8B
:104EF000012010BD10B504460020206060600878D5
:104F00002F280FD1487800280CD04B1C00211A46BE
:104F1000236010782F2807D0002807D0521C491C86
:104F20002260F6E7204610BD501C20601846FFF7AF
:104F30003DFF6060204610BD704710B500F034FFA3
:104F400010BD01464820405C602318404211002AF1
:104F500006D0012A06D0022A06D0032A08D105E08D
:104F6000092070470A20FCE70B20FAE70C20F8E73D
:104F70000020F6E710B503E00121044802F043F8F1
:104F8000024802F037F8041EF6D110BDC000002020
:104F9000F0B587B004460E46204600F029FB2046B7
:104FA00000F038F9002804D0364F37A0FBF7FCF9A1
:104FB00064E04520005D01024420005D0D180120E1
:104FC000C0032840002804D0284637494840401CE8
:104FD00045422846FCF7D5F800221346019100907F
:104FE000FCF77EF803910290FBF7C0FE07463C20D9
:104FF000005D282803D03C20005D222806D18321B3
:10500000C9053846FCF7F2F8074625E04A21085D55
:10501000FCF7EEF905904B21085DFCF7E9F90490E7
:105020000599049802F0FEF801900499FCF7DEF867
:105030000121890703903846FCF7D8F800900098C2
:1050400000F0C0FE7D21C905019002F0EBF802904E
:10505000039902F049F80746462E01D0662E0DD17D
:105060001249384602F086F811490290FCF7BEF862
:1050700021214906039002F037F80746384607B069
:10508000F0BD000000007AC44572726F72206F6339
:1050900075726564206F6E2052414D20435243204B
:1050A000636865636B0D0A00FFFF0000000010419C
:1050B0000000A04070B50446002500212046FFF7FF
:1050C00022FDFF20F53001F027FF01212046FFF7E8
:1050D0001AFD5A2001F020FF2046FFF7FDFC0028B2
:1050E00000D10125FF209B3001F016FF284670BD3E
:1050F00070B5044600212046FFF705FD032001F0AE
:105100000BFF01212046FFF7FEFC0A2001F004FFFF
:105110002046FFF7E1FC002801D0012000E000203C
:1051200005462D2001F0F8FE284670BD70B50546F5
:105130000C4600212846FFF7E6FC032001F0ECFEB8
:10514000002C07D001212846FFF7DDFC372001F0B5
:10515000E3FE09E0372001F0DFFE01212846FFF7DA
:10516000D2FC0A2001F0D8FE70BD70B506460024BE
:10517000002508E06410301DFFF7BAFF002801D0B9
:10518000802004436D1C082DF4DB204670BD30B533
:1051900089B00446214602A8FFF7C8FC02A8FFF721
:1051A000BAFC032102A8FFF78BFC6A46F02102A893
:1051B00000F0C8F80546284609B030BD70B5054670
:1051C0000C462246F021284600F0BCF870BD70B5B0
:1051D00005460C46002606E0E107C90F281DFFF72B
:1051E000A5FF6410761C082EF6DB70BD70B5054671
:1051F0000C46012C03D1284600F00FFA02E02846A5
:1052000000F01CFAB4212846FFF7E1FF281DFFF744
:105210006FFF70BD70B504460026002507E02046EC
:105220004430415D304600F08AF906466D1C082D79
:10523000F5DB4C20005DB04201D0012070BD0020A4
:10524000FCE770B504460026002505E0615D3046A8
:1052500000F075F906466D1C072DF7DBE079B042CA
:1052600001D0012070BD0020FCE70000F8B5044625
:105270000E46174631480090012F03D1204600F01A
:10528000CCF91BE0204600F0D9F93C20005D28282D
:1052900003D03C20005D222810D14820055D60210C
:1052A0000D40002D01D15E200090202D01D1BC20A9
:1052B0000090402D02D1FF207830009044212046FC
:1052C000FFF785FF01211E48FFF7AFFA207800287D
:1052D00026D06078002815D0A17820462030FFF72E
:1052E000B9FA009801F00AFEA078002801D1012047
:1052F00000E00020014620462030FFF7ABFA0020F6
:10530000009014E0201DFFF706FC0121201DFFF78F
:10531000FAFB009801F0F2FD201DFFF7E9FB06E023
:10532000002E04D0009801F0E9FD0020009000213B
:105330000348FFF77AFA0098F8BD0000EE0200007B
:1053400048010020F7B58CB000200B900A9008901F
:1053500009900690B9E00C98FFF7ACFE002801D147
:105360000FB0F0BD0126002007900D98049000209A
:1053700003900BE00498C107C90F0C98FFF7D6FE05
:105380000498401004900398401C03900398082848
:10539000F0DB0024012551E00C98FFF7A9FE074639
:1053A0000C98FFF7A5FE059005983840002803D01B
:1053B00000200790FF2641E00598384300280DD0D3
:1053C000002F05D008A8005D284308A908551EE055
:1053D00008A8005DA84308A9085518E00A98864265
:1053E00005D108A8005D284308A908550FE00A98D0
:1053F000864206DD08A8005DA84308A9085507965F
:1054000005E008A8005D2840002800D1079608A8FC
:10541000005D2840002801D0012000E00020014666
:105420000C98FFF783FE761C80202840002803D0CC
:10543000601CC4B2012501E06806050E402EABDDFC
:1054400007980A90FF2E3AD00120039034E02248BA
:10545000039901F099FD02900298002812D108A842
:10546000FFF7EFFE002801D0002079E7002405E0D7
:1054700008A8015D0E980155601CC4B2082CF7DB2A
:1054800001206DE70120029A11680A463C32019220
:10549000002408E0019A125D08AB1B5D9A4200D01F
:1054A0000020621CD4B2082CF4DB002800D004E0F9
:1054B000039A521C039200BFC9E700BF00BF00BFA0
:1054C0000A98002801D101200B900B98002800D1E8
:1054D00041E7069844E70000C0000020F8B5024606
:1054E000002027E016463C36365C33071B0F164675
:1054F0003C36365C3411002500260096092C04DC6D
:1055000026463036F6B2009603E026463736F6B227
:1055100000964700009ECE55092B03DC1E46303610
:10552000F5B202E01E463736F5B24600761C8D55C0
:10553000431CD8B20828D5DB00230B74F8BD10B586
:10554000002221E0CB07DB0FC407E40F6340002BF0
:1055500015D040108023184304230340002B02D0B1
:10556000FB23184001E00423184308230340002BC9
:1055700002D0F723184005E00823184302E040104A
:105580004006400E4910521C082ADBDB10BDF8B55E
:105590000246002027E016464436365C33071B0FD0
:1055A00016464436365C3411002500260096092C38
:1055B00004DC26463036F6B2009603E0264637363F
:1055C000F6B200964700009ECE55092B03DC1E461E
:1055D0003036F5B202E01E463736F5B24600761C8C
:1055E0008D55431CD8B20928D5D300230B74F8BDC0
:1055F00070B50546284600F021F8BE212846FFF781
:10560000E6FD002406E02846FFF7AFFD29464431B9
:105610000855641C092CF6DB70BD10B50446201D2E
:10562000FFF748FDCC212046FFF7D1FD10BD00005B
:105630000149096801607047C000002070B5044648
:10564000201DFFF737FD55212046FFF7C0FD00253F
:1056500006E020463C30415D2046FFF7B8FD6D1C5A
:10566000082DF6DB70BD0000FFB581B0044615467D
:10567000201D0299FFF75AFA041F274620371C21E4
:105680003846FBF709FA2946384600F02AFC00BFE5
:105690003C46203C0498A070681C002801D00120E2
:1056A00000E000206070002604E000212046443025
:1056B0008155761C092EF8DB201DFFF72CFA0321FB
:1056C000201DFFF7FDF90120009021463C31201DEF
:1056D000FFF774FD00900098002803D10FA000F0A0
:1056E00049FB17E0201DFFF703FA2146134801F09C
:1056F00061FC00212046FFF779FD01214840207020
:10570000201DFFF708FA0321201DFFF7D9F92046D5
:10571000FFF76EFF204605B0F0BD00004E6F20750C
:105720006E61737369676E6564204453313832303B
:1057300020666F756E64210A00000000C000002022
:10574000704710B5BC38FFF78EF810BD10B5BC38E7
:10575000FFF78EF810BD7047002803D010B5FAF798
:10576000E2FD10BD7047000010B5FAF7ABFD040074
:1057700002D102A000F0FEFA204610BD4F70657203
:1057800061746F72206E65775B5D206F7574206F3A
:1057900066206D656D6F72790D0A000010B5FAF71D
:1057A00091FD040002D102A000F0E4FA204610BDF1
:1057B0004F70657261746F72206E6577206F7574BB
:1057C000206F66206D656D6F72790D0A0000000014
:1057D000F8B5040C8BB2264682B25E43104658439D
:1057E0000D0C370C360400218019164679416E43A2
:1057F000370C36048019264679416E438919F8BD65
:105800004900CA020243100000D004204A0D01D012
:1058100001221043044A490D914201D1022108435B
:10582000012800D105207047FF07000001207047C4
:10583000FFB581B01C4617460E0007D0019D02E05F
:105840002846B047ED192046641EF9D2019805B0EC
:10585000F0BD10B50020FCF74BFC10BD10B504489E
:1058600001F0F3FB0446034A0349FFF7DFFF10BDD5
:10587000C0000020000000085170000838B5114C2D
:105880002D251C212046FBF707F92946204600F06C
:1058900017FB00BF0021C9430B48FEF7CEFF0521CF
:1058A0000A48FEF7CAFF4B20C00100230322022151
:1058B00000900748FFF788F90446064A0649FFF7B3
:1058C000B5FF38BD2C0100204801002064010020F4
:1058D0008001002000000008F14B000802486A46E1
:1058E000C008C000704700005F06002030380A285A
:1058F00001D2012070470020704710B500F0DBFD99
:1059000010BD0000032801DA0020704770B504467E
:10591000FAF7D4FC092105460160A1000A480022DB
:1059200009188039486F541E4A67002808D001685A
:1059300009698847010005D549422960204670BDA4
:10594000204670BD002070BDA402002010B50446A2
:10595000FAF7B4FC09210160032C01DA002010BD24
:105960000649A00040188038406F002803D0016825
:10597000896A884710BD0020C04310BDA4020020E2
:1059800070B50446FAF79AFC092105460160032C1C
:1059900001DA012070BDA0000A49002440188038B7
:1059A000406FE443002808D00168896988470100F6
:1059B00005D549422960204670BD204670BD0020B3
:1059C00070BD0000A4020020F3B583B05A490398CB
:1059D000FBF764F84B25594CED01002815D05849C8
:1059E0000398FBF75BF800281ED056490398FBF795
:1059F00055F8002827D0FAF761FC092102900160D0
:105A0000514C206800282DD02EE02068002808D1B5
:105A1000032202214D4800F0CFFE29464B4800F0FA
:105A2000B3FE002005B0F0BD2068002808D1032295
:105A30000221464800F0C0FE2946444800F0A4FE7A
:105A4000012005B0F0BD2068002808D10322022102
:105A50003E4800F0B1FE29463C4800F095FE022089
:105A600005B0F0BD201D2060261DB04204D0592293
:105A70003749384800F092FC0025374F21686C1EEA
:105A8000A8003858002803D06D1C102DF8D301E071
:105A9000102D12D30298182101602B4801680029AB
:105AA00001D1011D0160B14204D059222849294881
:105AB00000F074FC204605B0F0BD0020C043AC00EF
:105AC00038512148002901D1011D01600068B04210
:105AD00004D059221E491F4800F060FC039800269C
