:020000040800F2
:1000000000400020A1020008A9020008AB0200087D
:1000100000000000000000000000000000000000E0
:10002000000000000000000000000000AD02000819
:100030000000000000000000AF020008B10200084C
:10004000B302000800000000B3020008B302000879
:10005000B3020008B3020008B3020008B3020008AC
:1000600000000000B3020008B3020008B302000859
:10007000B3020008B3020008B30200080000000049
:10008000B3020008B3020008B3020008B30200087C
:10009000B3020008B3020008B3020008B30200086C
:1000A000B3020008B3020008B3020008B30200085C
:1000B000B3020008B302000800000000B302000809
:1000C00000F002F800F0C3F80CA030C8083824187B
:1000D0002D18A246671EAB4654465D46AC4201D180
:1000E00000F0B5F87E460F3E0FCCB64601263342EF
:1000F00000D0FB1AA246AB4633431847A8A1000024
:10010000C8A10000103A02D378C878C1FAD85207C3
:1001100001D330C830C101D504680C6070470000BD
:100120000023002400250026103A01D378C1FBD813
:10013000520700D330C100D50B60704710B56E294F
:1001400002D100F0C9FF10BD702902D100F0F7F90B
:1001500010BD662902D109F04FFA10BD652902D100
:1001600009F04AFA10BD672902D109F045FA10BD1D
:10017000612902D109F048FA10BD03681B0A01D3B6
:1001800080231943692902D100F064F910BD642964
:1001900002D100F05FF910BD752902D100F05AF9C3
:1001A00010BD6F2902D101F0ABF810BD782902D142
:1001B00000F0B2F910BDE92902D101F047F810BDF5
:1001C000E42902D101F042F810BDF52902D101F075
:1001D0003DF810BDEF2902D101F09EF810BDF829BD
:1001E00002D100F0A7F910BD0368DB0901D3802319
:1001F0001943632902D100F0ABFF10BD732902D16E
:1002000000F0AEFF10BDE32902D101F068FF10BD80
:10021000F32902D101F06BFF10BD002010BD1FB506
:100220000098019900F093FE02F0F0FC0400002019
:10023000002108F04DF8401C60600020002108F00B
:100240005DF8E06001F01AFA00F0E4FD1FBD07F070
:100250000FF8114603B407F01AF803BCFFF7DFFFED
:1002600004F019F907F036FA70B505460C46164643
:1002700002E00FCC0FC5103E102EFAD2082E02D38A
:1002800003CC03C5083E042E07D301CC01C5361F9D
:1002900003E021782970641C6D1C761EF9D270BDB4
:1002A0000448804704480047FEE7FEE7FEE7FEE714
:1002B000FEE7FEE7A54E0008C100000800487047B1
:1002C0003004002070B5064600F024FE0568304674
:1002D0000B30C408E400B44201D8002070BD686847
:1002E0002A46002818D00168A14211D30B462146A6
:1002F00008318B4208D3436801194B6003681B1B0C
:100300000B605160046001E041685160001D70BDE8
:10031000024640680028E6D12146284600F002FE49
:100320000028DCD170BD70B50446051F00F0F2FD59
:100330000068002C1AD0446801E020466468002C54
:1003400001D0AC42F9D301680A18AA4204D12A6844
:1003500005468918016000E0456028684119A142FE
:1003600005D16168696021684018286070BD6C60C3
:1003700070BD00001CB50C46064B7B4469460090DE
:10038000204600F0C2FE04460020694600F0D0FE80
:1003900020461CBDB30D00000FB4054910B503AADB
:1003A000029800F0E1FE10BC08BC04B01847000041
:1003B0008804002070B5044685690068C10601D52F
:1003C000302600E02026C00707D070BD62683046A6
:1003D000A1689047206A401C20626D1EF6D570BD52
:1003E00070B5044685690078C00707D170BD6268A2
:1003F000A16820209047206A401C20626D1EF6D51F
:1004000070BD70B50C460546012A05D028788006D7
:1004100000D5EA69002302E0012305E05B1C93425A
:1004200002D2E05C0028F9D1A869E618C01AA861D8
:10043000286AC01828622846FFF7BCFF04E06A68F3
:100440002078A968641C9047B442F8D32846FFF787
:10045000C7FF70BDF7B5002575291068009914A66F
:1004600011D000F0CFFD002802DA404211A608E0CA
:10047000009909688A0701D50FA602E0490704D54B
:100480000EA6012501E000F0C6FD009F00242437E0
:1004900004E001F009FA30313955641C0028F8D124
:1004A0002B4632462146009800F0BEFDFEBD0000FE
:1004B000000000002D0000002B00000020000000C4
:1004C000F8B50F460188090502D5224C7C4402E0AC
:1004D000204C7C440E3405460021243508E01607E4
:1004E0001209360FA65D6E541E0732431B09491CC4
:1004F00016461E43F3D1224604780023240705D56F
:10050000702F06D0002901D00223113200F08CFD9B
:10051000F8BD01231032F9E770B504460D462146B7
:10052000106800F078FD0023024629462046FFF7B8
:10053000C7FF70BDD21DD308DB000CCBC0E730B4C1
:10054000036820241268234303600823C36130BC7E
:100550000023B5E7DC920000F3B50446002081B02B
:1005600020622046E1688847002872D0252802D002
:100570006268A168ABE0594F00267F442046E168DD
:1005800088472028054608DB312D06D27819203807
:100590000078002801D00643F0E7B00701D5042019
:1005A00086430020E0610746A0612A2D0AD0284634
:1005B00006F066FE002827D0B8000019303D0090F4
:1005C000856119E00298BA00121902C8916102907F
:1005D0002046E1688847012F054617D1E0690028C9
:1005E0001FDA202086431CE000980A2180694843D6
:1005F00000994019303888612046E16888470546EF
:1006000006F03EFE0028EFD1012F0AD02E2D08D192
:100610002046E16888470546202006437F1C022FBC
:10062000C3DBA069002803DA4042A0610120064331
:10063000F00701D0102086436C2D0BD0682D09D017
:100640004C2D3CD06A2D38D0742D38D07A2D36D030
:1006500016E040E0E1682F4620468847B84205464C
:1006600009D16C2F29D001208002E1680643204681
:100670008847054604E06C2F1DD0FF20013006435B
:10068000002D28D028464138192803D80120C0025F
:1006900006432035204626602946029A1646FFF773
:1006A0004DFD002810D001280BD0F61DF008C00029
:1006B0000830029055E74020E1E78020D5E7002090
:1006C000D3E7361D02964CE762682846A16890473A
:1006D000206A401C44E7206AFEBD000056920000DC
:1006E0000FB400B58DB010A909900B900020C04345
:1006F00000910A9000200C90074878440690074823
:1007000078446A4607900F9909A800F045FE0DB09D
:1007100008BC04B018470000BF0C0000D90C000052
:10072000FFB51D460027FF4383B05C6800200190A1
:100730009E68A96904987F1C88470090296A8847A9
:100740000028F6D10098401C0CD0032040028443BE
:10075000002E19DD600614D500982B2809D02D280D
:100760000FD103E00020C04307B0F0BD012080029C
:100770000443A96904987F1C8847761E002E0090C8
:1007800002DD0098302803D00598002825D035E0F8
:100790000120A96940020443761E04987F1C884703
:1007A000002E009003DD782805D0582803D0059846
:1007B000002810D022E00598002801D010281DD173
:1007C0000120A96940028443761E04987F1C884753
:1007D0000090102002E0082000E00A2005900DE0C3
:1007E0000121059A49020C430199761E51430818CC
:1007F0000190A96904987F1C88470090002E05DDB0
:100800000599009800F0B2FD0028E9DAE96904983A
:100810008847A00502D40120C043A5E7E00722D104
:10082000600611D56005019800D5404229680A1D6F
:100830002A600968220501D5087014E0220701D555
:10084000088010E008600EE02868011D296000683B
:10085000210502D50199017005E02107019901D513
:10086000018000E0016038467EE7000070B5044674
:10087000C068810713D0800601D5A56A04E0A1698C
:10088000606840182169451A204600F0AFFE00223A
:1008900006462946204600F0B7FD304670BD0020D0
:1008A00070BD70B5002802D0FFF7E0FF70BD0025D5
:1008B000074C6E1E08E02046FFF7D8FF002800D046
:1008C0003546206D44086400002CF4D1284670BDE4
:1008D000340400200EB5044615460E4612A003F05F
:1008E000C7FA204603F0C4FA15A003F0C1FA304657
:1008F00003F0BEFA14A003F0BBFA6C460020E072CD
:100900000A20A0720A3407E00A21284600F09CF968
:1009100030310546641E2170002DF5DC204603F0C1
:10092000A7FA00F06FFF00002A2A2A20617373657E
:100930007274696F6E206661696C65643A200000AC
:100940002C2066696C6520002C206C696E65200087
:1009500030B5441C03E00178401C00290DD081070C
:10096000F9D10B4BDD0104C8D11A91432940FAD0CB
:10097000001B0A0603D0C01E30BD001B30BD0A0498
:1009800001D0801E30BD0902FCD0401E30BD0000E9
:10099000010101010346F0B50B439B072DD1244D06
:1009A000EF01042A29D308C810C95E1B9E43121FF9
:1009B0003E4017D0D8B2E1B2401A3106014310D1FF
:1009C00098B2A1B2401A310401430AD1180221029F
:1009D000000A090A401A3102014302D1180E210E01
:1009E000401AF0BDA342DCD018BA21BA884201D91E
:1009F0000120F0BD0020C043F0BD002A01D100203D
:100A0000F0BD03780C78401C491C002B0DD0A3428C
:100A10000BD1521E09D003780C78401C491C002BC6
:100A200003D0A34201D1521EEBD1181BF0BD000030
:100A300001010101F8B5042A2CD3830712D00B78E9
:100A4000491C0370401C521E83070BD00B78491CB5
:100A50000370401C521E830704D00B78491C03709E
:100A6000401C521E8B079B0F05D0C91ADF002023A4
:100A7000DE1B08C90AE0FFF7F7FBF8BD1D4608C9F1
:100A8000FD401C46B4402C4310C0121F042AF5D26E
:100A9000F308C91A521EF0D40B78491C0370401C8D
:100AA000521EEAD40B78491C0370401C012AE4D47E
:100AB00009780170F8BD431A70B593421BD28918AA
:100AC000801804E0491E401E0B78521E03709307E5
:100AD000F8D106E01039103878C9103978C01038CC
:100AE000103A102AF6D203E0091F001F0B680360BA
:100AF000121FF9D570BDFFF7B7FB70BDF8B50646FC
:100B000014460843800707D0751AA54219D2081960
:100B1000102D13D2311907E03046FFF7CCFFF8BD96
:100B2000401E491E02780A70641EF9D2F8BD471BA8
:100B30002A463946FFF77EFF641B3846A542F6D3A6
:100B4000011B22463046FFF775FFF8BD01E004C0E7
:100B5000091F0429FBD28B0701D50280801CC9071D
:100B600000D00270704700290BD0C30702D002707A
:100B7000401C491E022904D3830702D50280801C31
:100B8000891EE3E70022EEE70022DFE782078B07FA
:100B90009A4237D170B5920F0AD0032402780B78AD
:100BA000401C491C002A2BD09A4229D12042F5D161
:100BB0001D4EF40104C808C9951B9543254010D16A
:100BC0009A4207D104C808C9951B9543254008D10E
:100BD0009A42EFD012BA1BBA01209A4200D2404288
:100BE00070BD12BA1BBA2DBA18241000E0401900CB
:100BF000E140401A05D12E00E64002D1083CF4D174
:100C0000D01A70BD02780B78401C491C002A09D00C
:100C10009A4207D102780B78401C491C002A01D067
:100C20009A42EFD0D01A7047010101010022030956
:100C30008B4273D3030A8B4258D3030B8B423CD3B2
:100C4000030C8B4221D312E003460B437FD40022D6
:100C500043088B4274D303098B425FD3030A8B4250
:100C600044D3030B8B4228D3030C8B420DD3FF22BA
:100C7000090212BA030C8B4202D31212090265D088
:100C8000030B8B4219D300E0090AC30B8B4201D33B
:100C9000CB03C01A5241830B8B4201D38B03C01A82
:100CA0005241430B8B4201D34B03C01A5241030BF9
:100CB0008B4201D30B03C01A5241C30A8B4201D3AA
:100CC000CB02C01A5241830A8B4201D38B02C01A55
:100CD0005241430A8B4201D34B02C01A5241030ACC
:100CE0008B4201D30B02C01A5241CDD2C3098B42B1
:100CF00001D3CB01C01A524183098B4201D38B012E
:100D0000C01A524143098B4201D34B01C01A5241D0
:100D100003098B4201D30B01C01A5241C3088B4215
:100D200001D3CB00C01A524183088B4201D38B0000
:100D3000C01A524143088B4201D34B00C01A5241A2
:100D4000411A00D201465241104670475DE0CA0F79
:100D500000D04942031000D34042534000229C4639
:100D600003098B422DD3030A8B4212D3FC22890143
:100D700012BA030A8B420CD3890192118B4208D319
:100D8000890192118B4204D389013AD0921100E07B
:100D90008909C3098B4201D3CB01C01A524183098F
:100DA0008B4201D38B01C01A524143098B4201D3BC
:100DB0004B01C01A524103098B4201D30B01C01AE7
:100DC0005241C3088B4201D3CB00C01A5241830861
:100DD0008B4201D38B00C01A5241D9D243088B42B7
:100DE00001D34B00C01A5241411A00D2014663465A
:100DF00052415B10104601D34042002B00D54942BE
:100E0000704763465B1000D3404201B50020C046E6
:100E1000C04602BD70B5064C7C44064D7D4403E0DF
:100E2000206800198047241DAC42F9D170BD000034
:100E3000F4950000149600000246C80FC0078143D5
:100E40004B0030B54B405B009B0D20D01923DB06D7
:100E5000C91801231B05994220DB0324A40704259C
:100E60001346AB400BD3002B04D1EB0613409B0081
:100E7000E34204D401246407002312195941FF23DB
:100E80001B0599420BD2C9000143500F09E0CB0268
:100E900004D501430803024305D0054830BDFF21B6
:100EA000C905084330BD084607210905884330BD00
:100EB0000000C07F70B505464800440D124B00206D
:100EC000002C0AD0634008D09A4206DA6642B24249
:100ED00003DD12054019514170BD002C08D0002BD4
:100EE00009D0C90FC907002AF6DB084A114370BDB3
:100EF000C90FC90770BD28460A03104302D000205D
:100F0000034970BD284670BDFF0700000000F07F58
:100F10000000F87F00487047782200207047704733
:100F20007047704738B504460A460020694601F00C
:100F300017FE002805D002462046009900F0E4FC88
:100F4000012038BD10B5012001F0D4FD10BDF8B569
:100F500001F0FAFD054600200C461020C04606466A
:100F6000A819A0420DD932466946002001F0F8FDCB
:100F7000070001D101F0BEFD0098A04200D0054657
:100F8000C419FFF7C7FFF61D07460560F008C0004B
:100F90004619284600F008F8B44204D031463868B3
:100FA000A21B00F0B1FCF8BD00210160416080602F
:100FB0007047102070470FB4014610B504AA03987B
:100FC00000F0D2F810BC08BC04B018477CB51D4630
:100FD00016460C00009001D00019401E084B7B44BF
:100FE0002A4669460190304600F08FF8002C0546ED
:100FF00003D06946002000F09BF828467CBD000025
:10100000D710000009684A0501D540B27047C905EC
:10101000FCD500B2704709684A0501D5C0B27047D7
:10102000C905FCD580B27047FFB504460D4681B0B6
:10103000243000902168880604D51022E06991438D
:10104000216000E00120A84201DD471B00E00027ED
:101050000498A1697A191018081AA0612078C006AE
:1010600002D42046FFF7A6F9002608E0039862683C
:10107000A168805D9047206A401C761C206204981D
:101080008642F3DB2078C0060AD52046FFF792F9A6
:1010900006E06268A16830209047206A401C206208
:1010A00038467F1E0028F4DC07E000986268A168DB
:1010B000405D9047206A401C206228466D1E002833
:1010C000F3DC2046FFF78CF92078000602D50220D9
:1010D00005B0F0BD0120FBE711680268006A530506
:1010E00001D5087009E0D30501D5088005E0130695
:1010F00002D5C21705C100E008600120704700005A
:1011000001694A1C02610878704700B58FB00291EE
:1011100000210591054901937944039111460490FA
:101120006846FFF719FA0FB000BD0000E5FFFFFFAA
:101130000A681070521C0A60704710B54369002B92
:1011400002D0C046C04601E0FFF75BF9012010BDA8
:101150001278014624310A7000224A700122ECE71D
:1011600011680022D243E8E7084B70B50D467B4476
:10117000FFF7CBFF0446284600F042F9002802D0D2
:101180000020C04370BD204670BD00008365000094
:10119000F7B50446154686B02B487844002703C8A7
:1011A0003E460090019111E007986A467100415A4D
:1011B00002A801F06DFC411C07D02178890603D5F7
:1011C000E269391891420ED83F18761C20788006C3
:1011D00002D5E069B84206DDAE42E5DB0798710052
:1011E000405A0028E0D1A069C01BA0612046FFF74B
:1011F000E1F8154878445A3803C80090002001915E
:1012000016E041006A460798415A02A801F040FCE6
:101210000590401C0AD0002505E0626802A8A1687C
:10122000405D90476D1C05988542F6D30498401C9C
:10123000B0420490E5DB206AC01920622046FFF727
:10124000CFF809B0F0BD0000A6860000F7B5D21DAA
:101250000025D20815A6D200F52905CA11D0002A0A
:1012600005DA00214042914111A60A4608E00099A2
:1012700009688B0701D50FA602E0490701D50EA624
:1012800001251146009F0024243704E000F056FB9E
:1012900030323A55641C02460A43F7D12B46324697
:1012A00021460098FFF7C0FEFEBD000000000000D0
:1012B0002D0000002B0000002000000070B5044647
:1012C0000021243408E05507D2086D0F30356554ED
:1012D0005D072A43DB08491C15461D43F3D104680A
:1012E000002310A2250708D5A40601D4002904D0A4
:1012F000C46901230CA2641EC461FFF795FE70BD92
:1013000010B5044621461068FFF785FE002302460B
:101310002046FFF7D3FF10BDD21DD108C9000CC96C
:10132000CCE7000000000000300000000FB400B562
:101330008DB010A909900B900020C04300910A9035
:1013400000200C90074878440690074878446A4685
:1013500007900F9909A800F01FF80DB008BC04B061
:1013600018470000730000008D0000003A2800D2EA
:101370003038202302469A43412A01D31046373899
:10138000884201D30020C043704700000268511812
:10139000137801601846704710B5D160054979444B
:1013A000516105497944116200211161114600F033
:1013B000A3FE10BDEBFFFFFF0F0600004268002AEE
:1013C00008D001680B78491C002B03D0521E06C0C0
:1013D000184670470121C160881E70474268002A84
:1013E0000BD0C3680168002B07D183688B4204D0FF
:1013F000491E521C06C0002070470020C0437047A1
:10140000C068802108407047F8B5044616460D466E
:101410004769007B800730D0384605F07BFF002805
:101420002BD132461026002A25D0012A02D0022ACA
:1014300023D104E0204600F061F845191BE038464E
:1014400005F04EFFE16831430028E16004DA2046F0
:1014500000F09CF80120F8BDC9030BD56268E16A71
:10146000914200D81146A26989182269891A8142DD
:1014700000DD08462D18002D01DA0220F8BDE16AD2
:101480006068E268814206D29103E06203D50121DF
:1014900049048A433243A669AE4211DCE16A8142C3
:1014A00001D90B4600E003469F192369FF1AAF429A
:1014B00006DD814201D90F4600E007469F4206D172
:1014C000202002430020A060A56220600DE0AD1B3B
:1014D000E669AE1B8142A66000D90846C01A281AE8
:1014E0002060581960602020824303480240002099
:1014F000E26040342072F8BDBFCFD7FF10B501467F
:10150000C268900703D0900607D5886A0AE0FEF704
:10151000D5FE01210160881E10BD8B694868C01886
:101520000B69C01A40310B7A002B02D0497A401A5D
:1015300010BD1103FCD50028FADD401E10BD0000CF
:1015400070B5C468A50713D0650211D4D51FF93D45
:101550000AD0FF3D6D1E07D0FF3DFF3D022D07D194
:1015600001462431012305E0074E5D1EB54201D33B
:10157000012070BD0161C36141600F2109028C43EC
:101580001443C460002070BDFFFFFF00C1688022CB
:10159000114392039143C160002181600160704753
:1015A000F7B514460E463348D5685769054209D049
:1015B0003846A16905F09EFF002811DB2D48C04385
:1015C0000540E5602B4632463846009905F0B0FFED
:1015D0004200A1695208B21A89180028A16104D0FA
:1015E0002046FFF7D3FF0020C043FEBD70B5044680
:1015F0000569C06A6168884200D80846E16805222A
:10160000D2049143E160C90314D5A84209D022460F
:10161000411B2846FFF7C4FF002802D00020C0432A
:1016200070BDE56200206560A060E06801210904EA
:101630008843E060002070BD10B50446C0682021DA
:101640008843E060A16AA06988420ED02046FFF777
:10165000CDFFE06803210903884310210843E060BF
:10166000A06AA0612069E06260600349E068084008
:10167000E06010BD10000200BFBFFFFF10B543487F
:101680005421FFF781FA42485421FFF77DFA41487F
:101690005421FFF779FA40483C493D4B404A0160EC
:1016A0003E4803603B4810605A1C0A65411C19659E
:1016B000012101653C48354A3AA1784401F06AF9B4
:1016C000002804D1384878440C3801F00DFA384825
:1016D0002F4A36A1784401F05DF9002804D134483E
:1016E00078440C3801F000FA32482A4A2FA1784495
:1016F00001F050F9002804D12E4878440C3801F04C
:10170000F3F940232148DC0000212246FFF718FFAF
:10171000002804D0244878445C3801F0E5F91C48DE
:10172000224640230021FFF70BFF002804D0204869
:1017300078445C3801F0D8F916482246102300217D
:10174000FFF7FEFE002804D01A4878445C3801F008
:10175000CBF910BD0F4870B5006D44080B4864000C
:1017600000F02AF80A4800F027F80A4800F024F8A8
:1017700009E0206D450820466D0000F01DF8204668
:10178000FEF7D1FD2C46002CF3D170BD34040020AF
:1017900088040020DC040020200100202401002017
:1017A00028010020720000008A7F000077000000FE
:1017B000777F0000657F0000FEB50446466900693A
:1017C0000F4F0190E56800200090A80707D0204641
:1017D000FFF70CFF304605F05FFD002801DA3846C0
:1017E000FEBD280502D50198FEF79DFD4C2120463F
:1017F000FFF7CAF9206D4008400020650098FEBD43
:10180000FFFFFFFF10B5002001F068F9C046C04699
:10181000012000F06BF810BD10B501F071F901F076
:1018200057F910BD034670B502460B439B070FD115
:101830000E4CE60100E008C208C91D1B9D4335425D
:10184000F9D0D9B21170521C00290DD01B0AF8E74B
:101850000B78491C1370521C002B05D00B78491CC7
:101860001370521C002BF3D170BD00000101010167
:101870000022CBB20178401C994200D1421E0029BF
:10188000F8D11046704710B5520001F057F910BD5D
:10189000421E5378521C002BFBD10B78491C13704D
:1018A000521C002BF9D1704701468008081A020922
:1018B0001018020A1018020C1018C0088200121822
:1018C0005200891A01E0401C0A390A29FBD27047EC
:1018D00000DE10B505F086FB05F0C0FA10BD08B5B6
:1018E000694608700320ABBE08BD000001491820FE
:1018F000ABBEFEE72600020010B501F087F9001D1F
:1019000010BD00BFCD69000010B50346406801E07E
:1019100003464068002801D08842F9D31868C318EC
:101920008B4206D0CB1CD808C000001D411A521AA9
:101930000146081D0A60FEF7F6FC10BD0B4670B5A7
:10194000024689078008084319469D08141AA941D0
:1019500025090807054308092C194841250A0106ED
:101960000D43010A2C194141200C0D0428430D0C94
:1019700000194D41002140194D41C0086907084335
:10198000E908840F8D002543840024184D41241953
:101990006D41121BAB4107E00925ED432C11521993
:1019A00063410024401C61411C460A250026551B4A
:1019B000B441F1D270BD10B50446FFF79DFF006839
:1019C000005DC007C00F10BD7047FFB50C461E4636
:1019D0008FB003CA089009914F007D0D00D16D1E94
:1019E000002108460020C0460321099A89050840C5
:1019F000002A03DA8200801840080840800D012880
:101A00000A9002DD0020C0430A90089807430DD0D9
:101A1000F048F149281848430714189800281DD0A9
:101A20007542291E1DDD0A9842421BE018980128C4
:101A300002D00020302104E00020F24305E02154D0
:101A4000401CB042FBDB30460022189B0021215491
:101A50000F998B600A60486013B0F0BDBD1B6D1C10
:101A6000DFE70A9A002900DA69420BA801F0D2FBED
:101A70000BAB07CB03AB07C30899099801F036FC01
:101A80006B4607C30146D5480918002D00910BDDB0
:101A9000D24903980A9A49424018002303A90390A7
:101AA000684601F093FE08E003990A9A002308189B
:101AB00003A90390684601F033FE6B4607C3000498
:101AC000000C03D00020C043410800E01046189AE3
:101AD000002A03D00022009215461EE0751E05D490
:101AE000FFF72CFF303262556D1EF9D501220843F5
:101AF000079602D000227F1C04E02078302801D114
:101B000000227F1E002A069787D01EE0112D07DADB
:101B1000FFF714FF303262556D1C02460A43F5D1BF
:101B2000084303D00098002819D00EE00021681E59
:101B300005E0235C625C63542254401E491C8142D0
:101B4000F7DBA81B401E07950690079A18990020FE
:101B5000A0540F98079B069A81600CC07CE7112661
:101B60000020189059E7D21DF0B50D460446D10863
:101B700093B0C90003C90C900D9105F01BFA024601
:101B80000D98C00F01D02D2007E02068810701D5F6
:101B90002B2002E04007C00F4001032A0F9001D024
:101BA000072A05DB03462946204601F04FF80EE1DF
:101BB0002078800601D5E76900E006272846652DD4
:101BC00004D0662814D0672D69D12DE00020112F94
:101BD000009001DB112300E07B1C0CAA03A910A8D4
:101BE000FFF7F3FE1199002610987D1C0E9142E03C
:101BF00001203B460CAAC0070B900120009003A9CE
:101C000010A8FFF7E2FE119D1298109900260028F7
:101C10000E9501D1781C0D18781B02D446427D1C0C
:101C2000761EE81B00903AE0012F00DA0127002021
:101C3000112F009001DD112300E03B460CAA03A9FF
:101C400010A8FFF7C2FE11993D46109800260E918C
:101C5000217809070BD40E99A94200DA0D4603A991
:101C6000012D04DD4A19203AD27F302A06D0B8422D
:101C700001DA011D04DA012100910FE06D1EEFE78A
:101C8000002802DC86192D1A03E0411CA94200DD60
:101C90000D46801B401C00900120C0070B9020784F
:101CA000000705D40098A84202DB0020C043009042
:101CB00069460020C8720B98012102AF0337C9079B
:101CC000884225D0022010902B2011900B980028DC
:101CD0000BDA40420B902D20119006E00B98FFF795
:101CE000E3FD30317F1E0B9039701099481E00299A
:101CF0001090F3DC0B980028F0D111987F1E3870FB
:101D00002088000501D5452000E065207F1E387041
:101D100001A8C01BC01D0B900F98002800D0012007
:101D200041190098C01709180B980818A169081ADA
:101D3000401EA0612078C00602D42046FEF73AFB80
:101D40000F98002805D06268A1689047206A401C5F
:101D500020622078C00625D52046FEF72BFB21E027
:101D6000002E07DB0E98B04204DD03A86268805D98
:101D7000A16802E06268A16830209047206A761C62
:101D8000401C20620098401E002800900AD100F0FC
:101D90003DFFC06862680168405CA1689047206AA6
:101DA000401C206228466D1E0028D9DC07E06268CE
:101DB0003878A1687F1C9047206A401C20620B99EC
:101DC000481E00290B90F2DC2046FEF709FB032099
:101DD00042E6000001FCFFFF104D0000E1DFFFFFC5
:101DE000D21DF0B504460D46D0088DB0C00046683F
:101DF00007683146384605F0DDF80246F00F01D09D
:101E00002D2307E02068810701D52B2302E040073E
:101E1000C00F43016846002B037001D0012000E091
:101E20000020032A0A9001D0072A04DB2946204615
:101E300000F00CFF2DE12078800601D40D2500E094
:101E4000E5697000400D0D2D01904BDA300D002139
:101E50000B9008460020C046032189050840002E4B
:101E600005DA82008018C20F101840100840801553
:101E7000012801DD0020C043A9000023182906D352
:101E80009C460A460123183A1B07D34003E001226F
:101E90001205CA4094460C31202902D33A46203913
:101EA00000E032468A40002802DD002A06D119E00F
:101EB000002817D10121C9078A4213D31946634666
:101EC0007F185E41002806D10120C007824202D15E
:101ED000084687439E430B98310D814202D00198FA
:101EE000401C01902088000502D57149794402E028
:101EF0006F49794419396B460A9830221A540A9866
:101F00000A7C401C1A54401C0A900198002801DCED
:101F1000302000E031201872019A0120002A02D0FE
:101F2000644BD21804E072003A4302D0614A521C5A
:101F30000192002D02DC2278120703D56A462E207A
:101F4000507202200022864694460CE0320336018D
:101F5000120F6D1E8B5C02AA13546246521C401C69
:101F60009446052A01DA002DF0DC002202AE08E0DA
:101F70003B0F3F01CB5C521C6D1E3354401C082AA2
:101F800001DA002DF4DC23689A0601D511E0401E29
:101F9000704504DD3218203AD27F302AF7D000286D
:101FA00007DD3218203AD27F2E2A02D11A0700D438
:101FB000401E002D03DD3E223254401C6D1E497C24
:101FC00031540199401C002906DA2D21471C315457
:101FD00001984042019003E02B21471C31540198A5
:101FE0007D21C900884206DBFEF72EFE3030F05519
:101FF0007F1C019101E0642808DB01986421FEF751
:1020000023FE3030F0557F1C019101E00A2806DBE9
:1020100001980A21FEF718FE3030F0557F1C019818
:102020000A21FEF711FE3031F1550A98A1697F1C93
:102030007A191018081AA0612078C00602D4204628
:10204000FEF7B8F9216A6E460A980818206204E083
:1020500062683078A168761C90470A98401E0A9002
:10206000401CF5D12078C00602D52046FEF7A2F923
:1020700002AE09E03078761C3E280DD06268A16877
:102080009047206A401C20627F1EF3D22046FEF754
:10209000A7F90DB00320F0BD206A4019206203E0CB
:1020A0006268A168302090476D1EEDD3F8E700000C
:1020B0006F7B000001FCFFFF0CC908399A4202D275
:1020C000531C0B601070704710B54369002B02D091
:1020D000C046C04601E0FFF75BF8012010BD128842
:1020E0000146243182840022C2840122ECE7116877
:1020F0000022D243E8E70000F3B50C468FB0002081
:102100000C90012000260E9008460C300390626966
:10211000039801219047051E2ED0252D2DD0216A30
:102120008847002818D06269039801219047216AE6
:1021300088470028F7D16269411E0398904700E064
:10214000761CA1690F988847216A88470028F7D133
:10215000E1690F988847DAE7A1690F988847A84294
:10216000074601D1761CD2E7E1690F9888477F1CAA
:1021700002D10C98002877D075E162690398002796
:102180003D46394690472A280CD1626903980121BF
:102190009047012506E00A214F433F18303FEBD41A
:1021A00010200543626903980121904701463039A8
:1021B0000A2903D2B1498F42DEDCECE7E90600D4FC
:1021C000AF4F6C280AD04C2810D0682824D06A2839
:1021D0002ED074280CD07A280AD00DE062690398BA
:1021E000012190476C2823D004211CE020200543C6
:1021F0006269039801219047A760652865604FD008
:1022000026DC582839D01ADC452849D012DC25288C
:1022100034D04128B0D143E062690398012190474E
:10222000682802D008210D43E6E70120C002DEE75E
:102230000220DCE7462833D047289DD130E05B28D8
:1022400070D061282CD063286CD0642894D161E0D0
:102250006F284FD009DC662822D0672820D0692853
:1022600026D06E2888D12EE0F9E070284DD0732852
:102270006FD075284ED078280DD154E0A1690F9801
:1022800088472528054600D16CE7E1690F98884703
:102290006D1C00D16DE7E6E00A224CE00A2252E014
:1022A000012023466A460F99C04307F0B5F9CFE0F5
:1022B00040212846234608436060A80701D5002234
:1022C00039E000223FE0E80700D020E72068011D48
:1022D00021600068290501D5067018E7290701D596
:1022E000068014E7A90703D5F117066041600EE7E1
:1022F00006600CE740212846234608436060A80793
:1023000001D5082217E008221DE05E492846084052
:10231000606016E040212846234608436060A80715
:10232000BCD5B9E715E04021284608436060A807FE
:1023300007D52346102201200F99C04300F0A6F8CC
:1023400086E01022234601200F99C043FEF7E8F9EA
:102350007EE0002163280B460191009102910D91CE
:1023600002D05B2808D03CE02079C00601D40120CF
:10237000A0600120009034E0E06801210D906269C6
:10238000039890475E2807D101200190E068012161
:102390000D906269039890472169002906D10B4688
:1023A00004AA8F00491C0829D351FADB00285AD00F
:1023B0002169002927D00298401C02906269039885
:1023C000012190475D28F1D10198002808D0002014
:1023D00004AB8100401C5A58D24308285A50F8DBFD
:1023E00004AB2069002820791DD0400726D5029A29
:1023F00000980D9B00922246029001200F99C04345
:1024000000F05FFA24E0C117C90E09184A11490902
:10241000930004AA9A184901411A136801208840C0
:1024200003431360CAE74007224617480F9902D5B5
:1024300000F045F90CE000F0CEF809E002982246E1
:1024400000990D9B009002910F480F9900F0C6F97A
:1024500000280ADA401C06D10E98002803D000207C
:10246000C04311B0F0BD0C98FBE7E90702D10C990D
:10247000491C0C91361800200E9048E6CCCCCC0CB0
:10248000FFFFFF7FF1F7FFFFFEFFFFFFFFB51C46D9
:102490000025ED4385B00020009001909F685E68A4
:1024A000A16906986D1C88470290216A8847002818
:1024B000F6D10298401C0CD0032040028643002F26
:1024C00019DD700614D502982B2809D02D280FD1BC
:1024D00003E00020C04309B0F0BD012080020643A4
:1024E000A16906986D1C88477F1E002F029002DDAF
:1024F0000298302803D00798002828D024E0012033
:10250000A169400206436D1C06987F1E8847002F74
:10251000029003DD782805D0582803D007980028BA
:1025200010D011E00798002801D010280CD101200C
:10253000A169400286436D1C06987F1E8847029061
:10254000102000E008200790C017039016E00A2032
:10255000F9E70120039B40020643079A019900987E
:102560007F1E00F05BFB029AD3178018594101913E
:102570000090A16906986D1C88470290002F06DD27
:1025800007990298FEF7F2FE00280290E1DAE1696D
:1025900006988847B00502D40120C0439BE7F007A6
:1025A00010D1700610D5700505D50098019B00224A
:1025B00041429A4101E0019A00992068031D23607D
:1025C000006806C0284686E72068011D2160006873
:1025D000019A0099F5E7FFB5144683B00020002664
:1025E00000905068019091699768049888470C9909
:1025F00005460698084305D009E0A1690498761CB1
:1026000088470546216A284688470028F5D1681C76
:1026100003D00198C00704D017E00020C04307B0E2
:10262000F0BD2068011D2160006800900DE0019858
:10263000C00704D1009805700098401C0090A16963
:10264000761C04987F1E88470546002F1CDD681CF9
:102650001AD0069800280FD0E817C00E4019411173
:1026600040098A000699400151182A1A0968012078
:1026700090400142DBD107E00C980028D7D12846D2
:10268000216A88470028D2D0E169049888470C98CD
:10269000002807D1002E05DD0198C00702D100985F
:1026A00000210170A068B84204DD0C98002804D015
:1026B000002F02D00120C043B1E73046AFE7FFB59D
:1026C000144687B00020019050680390976800205E
:1026D00002900646049005909169089888471099E1
:1026E00005460A98084305D009E0A1690898761CB8
:1026F00088470546216A284688470028F5D1681C86
:1027000003D00398C00704D02CE00020C0430BB0D6
:10271000F0BD2068011D21600068019022E004AA3C
:102720006846E9B201F07CFA411C07D0801C09D050
:10273000002002900398C00707D00DE0E1690898D7
:10274000884746E00120029007E06846018801982A
:1027500001800198801C01907F1EA1690898761C59
:1027600088470546002F1CDD681C1AD00A980028EF
:102770000FD0E817C00E4019411140098A000A998C
:10278000400151182A1A0968012090400142C6D11F
:1027900007E010980028C2D12846216A88470028FF
:1027A000BDD0E169089888470298002811D1109897
:1027B000002806D1002E04DD0398C00701D101993D
:1027C0000880A068B84204DD1098002804D0002FCB
:1027D00002D00120C0439AE7304698E7FFB514467F
:1027E00085B000200090506801909668002002900B
:1027F00005460390916906988847109907460898FE
:10280000084305D009E0A16906986D1C8847074672
:10281000216A384688470028F5D1781C03D00198F2
:10282000C00704D01CE00020C04309B0F0BD206800
:10283000011D21600068009012E00198C00709D1D5
:10284000B9B2009802AA00F023F9411C34D00099D3
:1028500008180090A1696D1C0698761E88470746E7
:10286000002E14DD781C12D00898002807D03B46B3
:102870000F9A0E9900F0BEFC0028DED107E01098F8
:102880000028DAD13846216A88470028D5D0E16986
:10289000069888471098002806D1002D04DD01987D
:1028A000C00701D100990870A068B04204DD1098FB
:1028B000002804D0002E02D00120C043B5E72846EE
:1028C000B3E7FFB5144683B000273D46506801903A
:1028D000916996680498884700900E990698084375
:1028E00005D009E0A16904986D1C88470090216A11
:1028F000009888470028F5D10098401C03D0019823
:10290000C00704D014E00020C04307B0F0BD206829
:10291000011D216007680BE00198C00702D10098F3
:102920003880BF1CA1696D1C0498761E88470090F2
:10293000002E15DD0098401C12D00698002807D004
:10294000009B0D9A0C9900F055FC0028E4D107E09B
:102950000E980028E0D1216A009888470028DBD033
:10296000E169049888470E98002805D1002D03DD01
:102970000198C00700D13880A068B04204DD0E98ED
:10298000002804D0002E02D00120C043BDE7284615
:10299000BBE70000F7B516460C461046FEF70CFFE5
:1029A0002078611C61280AD0722802D0772839D19A
:1029B00002E00125002404E00225042401E02D4D5D
:1029C00008240222032301270878491C2B2806D05B
:1029D000622807D02039C87F742807D008E01D433B
:1029E0001443F1E7042005433C43EDE71020044382
:1029F0000098214604F0B2FC411C13D00021316143
:102A000071600121F5604902F1617061200704D510
:102A1000304602220021FEF7F7FC306D3843306566
:102A20003046FEBD0020FEBDF8B50D460646124CF0
:102A3000206DC10704D0410804D044086400F7E7C2
:102A4000224610E05420FDF73DFC070010D0790825
:102A5000206D490001221143084354212065384666
:102A6000FEF792F83A4629463046FFF793FFF8BD45
:102A70000020F8BD028000003404002010B50A4692
:102A80000146024801F039F810BD00007C22002008
:102A900070B516460C460546FEF72EFF0368FF206C
:102AA0000230C05C012807D0FF2C0ED8185D00282A
:102AB0000BD001202C7070BDFF3332462146083305
:102AC0001868C3182846984770BD0020C04370BDE1
:102AD00010B5002801D0FEF709FF10BD10B501F0B8
:102AE000D7F8FFF7F5FF10BD10B501F0E9F8FFF7D3
:102AF000EFFF10BD10B501F0FDF8FFF7E9FF10BDC5
:102B000010B5002102A001F0A9F8012010BD0000BD
:102B10005349475056464E3A2050757265207669A3
:102B2000727475616C20666E2063616C6C65640004
:102B300010B50446FDF77EFF204610BD10B50446D3
:102B4000FDF7DCFF204610BD01226946114B120340
:102B500082188A421A6001D811467047196070477E
:102B600070B50C4C6D46012636032368AD1B9A18D0
:102B7000AA420ED8AD1A9019EE0F75196D10AA1849
:102B8000904200D91046C01D0B60C208D200D01A76
:102B9000226070BD7801002010B500F00EF80169C8
:102BA000002903D000220261884701E08068804745
:102BB000FEF728FE10B5FEF725FE70B500F02AF8E6
:102BC00004680546002C15D12020FDF77BFB04008E
:102BD00012D0002009492C6003C4094921602071EA
:102BE000A060E06007492061083C002901D001F0A5
:102BF000BAF8E061204670BDFEF704FE0000000058
:102C0000B52B000800000000704700000048704726
:102C1000A822002000487047BC22002043435143B3
:102C200030B55C18010C130C0D4692B25D4380B2B6
:102C300051432C19054655430A0C09044D196241AC
:102C40005843010C00044019514130BDF8B51F46EE
:102C5000044601230068DB02032601461840072AC8
:102C600005DB002801D017A506E017A504E0002821
:102C700001D016A500E016A5102081432160A069AF
:102C8000C01E002FA06101D0401EA0612046FDF7AC
:102C900091FB002F09D038466268A1689047206AEE
:102CA000401C2062C01C206206E0206AFAE76268CD
:102CB0002878A1686D1C9047761EF8D22046FDF753
:102CC0008FFBF8BD4E414E006E616E00494E4600CE
:102CD000696E6600FFB58BB00878FF2806D0491CE6
:102CE0002D2805D000230020009009E000200EE0F0
:102CF0000123F8E7009A0A2462438018491C0090D7
:102D00000878FF28F6D1002B02D0009840420090AE
:102D1000002503952C460D9800782D2801D02B28EE
:102D200015D10D99491C2D280D9102D0002003903A
:102D30000DE00120FBE7401C214600270A223B460C
:102D40000D902846FFF76AFF35183C464C410D9818
:102D50000678FF2EEFD1002108460020C0460399D7
:102D6000002902D08100401840080002860F012E81
:102D700001DD0026F6430E990098471828462043A7
:102D80000BD0FF20F530C7421ADA0398C1070B9821
:102D9000002E41600ADD012009E00398C1070B986D
:102DA00041600B99002008600FB0F0BD00200B9926
:102DB0000860FDF783FA02210160182108461AE035
:102DC000FF20F530874219DD002E02DAFC487844F6
:102DD00001E0FC48784406C80B9806C00B9803999C
:102DE0004068C90708430B994860FDF767FA02215C
:102DF0000160142108460020C046D5E7002108469E
:102E00000020C04639000A9001D5724200E03246E7
:102E1000002900DA794207A800F0FCF907AB07CBDC
:102E200004AB07C3E848009000200146214304D1C9
:102E30002C460546E44920390091210C0904014340
:102E400006D1290C24040C4300992D04103900915B
:102E5000210E0906014306D1290E24020C430099D4
:102E60002D0208390091210F0907014306D1290FCE
:102E700024010C4300992D01091F0091A10F89071E
:102E8000014306D1A90FA4000C430099AD00891E8F
:102E90000091E10FC907084304D100986D196441FE
:102EA000401E0090002F0295019406DD32466846D0
:102EB000012304A900F042FC05E0012332466846E4
:102EC00004A900F090FC044603980D46002802D0A7
:102ED0000120C0074440002108460020C0460A994E
:102EE000BA4E48400007800F07D1600040082843D1
:102EF00003D06000400DB04214D1FDF7DFF902218C
:102F000001606000400DB0420CD1B148784406C861
:102F10000B9806C00B98E10FC907406808430B994E
:102F2000486041E70B9844600B9805603CE7FFB5AB
:102F30001F4695B0002000250C909E685C68ED430C
:102F40001390FFF763FEC0680168405C1490B96994
:102F500016986D1C88470A90396A88470028F6D170
:102F60000A98401C0AD00D20C0018443002E12DDB7
:102F70000A982B2809D02D280DD103E00020C0434A
:102F800019B0F0BD012080020443B96916986D1C88
:102F90008847761E0A90600504A901D52D2000E01F
:102FA0002B206A46491C107410A8002E0D910B901E
:102FB0003BDD0A98692805D0492803D06E2801D046
:102FC0004E281DD13B46039002200296179A16996F
:102FD000C0430095019406F02FFBC11CD0D10FE037
:102FE000B96916986D1C88470A900120761E400228
:102FF0000443179805601398401C002E139014DDAD
:103000000A983028ECD0782801D058280DD1139890
:1030100001280AD13B460296179A1699001F00957F
:10302000019406F001FBC11CAAD114990A988842A8
:1030300046D18020044308E00C981799401E0C905C
:10304000012040020443681C0860B9696D1C169891
:10305000761E884730280A90EED031E014998842D5
:1030600005D1200603D480200443761E1EE00A9872
:1030700004F006F9002826D0012008A940020443E4
:103080000D980331761E88420BD20A980D9930387C
:1030900008700D98401C0D90200607D50C98401E16
:1030A00003E0200602D40C98401C0C90A00502D529
:1030B0001799681C0860B96916986D1C88470A90B2
:1030C000002ECBDC59E0002E57DD0A98652801D090
:1030D000452852D1A00550D50320B9690002844388
:1030E0006D1C1698761E8847002E0A900CDD2B2842
:1030F00004D02D2808D1FF2001300443B969169867
:103100006D1C8847761E0A90E00501D52D2100E050
:103110002B210B9801700B98401C0B90009025E020
:10312000012012A9400204430B980131761E884207
:103130000ED20A980B9930380006000E087003D1A1
:1031400000990B9888420AD90B98401C0B9006E016
:10315000E00501D51F4801E01E4840420C90B969C6
:1031600016986D1C88470A9017980560002E04DD9C
:103170000A9804F085F80028D2D1F9691698884792
:103180000D99FF2004AA08700B99087000200E907A
:103190000F900C9B10A90EA8FFF79CFDA00502D470
:1031A0000120C043ECE62420044215D0E0071FD1E3
:1031B00038680F9A0E99031D3B60006806C017E03F
:1031C000FA740000EC7400003E400000FF070000AD
:1031D000B4730000F1D8FFFF0EA9684603F044FF66
:1031E000E00705D13868009A011D39600068026067
:1031F0002846C5E610B509E00488801C9C4205D12C
:10320000002A01D0002010BD012010BD491EF3D2BC
:10321000104610BDF7B516468AB0334878446C4660
:1032200003467C33C06F5A689B680DC42E487844AF
:10323000763003AC0DC80DC43720C0010818372103
:103240001B30FDF701FD05460C46803D1B3C02D5B9
:103250006442012000E000200027099010E0E00710
:103260000CD00C2020497843794432464C3941181F
:103270006846012300F054FA6B4607C364107F1CB4
:10328000002CECD1184F7F442E3F16E0E80712D0F7
:103290002001C0190EC80691089307920068F042F9
:1032A00001D1981908903246012306A903A800F01D
:1032B00037FA03AB07C36D10641C002DE6D10998E3
:1032C000002806D032466946012303A800F07EFAA2
:1032D00005E001233246694603A800F021FA0A9B63
:1032E00007C30DB0F0BD0000546800000346400065
:1032F0000A4610B5400D0BD00121C9070F24A402C6
:1033000000191C0364082143540D2143D20207E035
:1033100000210120F2E7D40F490021435200401E52
:103320000029F8DADB0FDB07184310BDFFB50D46A7
:10333000144685B04868516803F023FE009101905F
:10334000A868A16803F01DFE02910390A868616857
:1033500003F017FE029A12188242029201D2012053
:1033600000E00020019A0B18D2180028019202D028
:103370008A4202D903E08A4201D2012000E0002003
:103380000099081800906868A16803F0FAFD029A95
:1033900012188242029201D2012000E00020019A1C
:1033A0000B18D2180028019202D08A4202D903E0F9
:1033B0008A4201D2012000E0002000990818009004
:1033C0002868216840004900400849084018FA4927
:1033D000471814E001994000C90F08430090019874
:1033E00002994000C90F08430190029803994000D8
:1033F000C90F08430290039840007F1E0390009875
:103400000028E7DA0898002801D0EC4E00E00026FA
:10341000B74201DA012000E00020002804902AD001
:10342000F71BF806C00E15D0029B2021091A039A3B
:103430008B401A430392029A019BC2408B401A436D
:103440000292019A009BC2408B4000991A4301925C
:10345000C14000917B110DD06F460320C11A03D5E6
:1034600000218200B95003E08A008100BA587A50E6
:10347000401EF3D5374603980299002800D001205A
:10348000014308980291002808460CD0002800D07B
:1034900001200199019A490508430121D20AC90274
:1034A000D202019200E001210E9B0122D207012BE2
:1034B00002D0002B03D013E0002807D120E0904277
:1034C00004D890420CD1019B0B4209D0019B5918A2
:1034D000019105D10099491C009101D17F1C0092F6
:1034E00000280DD0102108460020C046049800286E
:1034F00006D00F98002803D0082108460020C046B7
:1035000028682168019B009A4840C10F0598C907A7
:1035100039430EC009B0F0BDFFB587B0099A0898CD
:103520000899536892684068896896460022039318
:1035300017469446089A12685300099A5B08126865
:10354000520052089A1A9E4BD4180A9A002A01D0A7
:10355000352200E040220692002201231546049203
:10356000DB07059324E0002D05D175460346039E35
:103570004D1BB34109D375466646039B491B049D09
:103580009841059B7519AC465F4163463B4308D0A3
:10359000059B049EDD0776082E435B080496059381
:1035A00001E0521E641EC50FED0749184041521C30
:1035B000069B9A42D7DB002D04D17546039A6B1AFD
:1035C000824101D203200CE0039A0B466B4042403B
:1035D000134303D0014303D0012002E0022000E0A6
:1035E0000020614601910021009702910A9900296B
:1035F00005D0614640020143704B019102E0800713
:10360000002302909C4201DA012000E00020070024
:103610003AD01A1BD006C00E15D0029D2021019C65
:10362000091AC5408C402543029C8C4000D00124DF
:103630002543019C0295009DC4408D4000992C4378
:103640000194C140009154111DD06D460221002209
:1036500002290CD10320001B07E0002804DB8600B0
:10366000AE59002E00D00122401C0328F5DB081BB8
:1036700002D588002A5004E08000285810438A00B0
:10368000A850491EE3D51C460A98002802980CD081
:10369000002800D001200199019A49050843012121
:1036A000D20AC902D202019200E00121109B01223C
:1036B000D207012B02D0002B03D013E0002807D142
:1036C0001FE0904204D890420CD1019B0B4209D0DC
:1036D000019B5918019105D10099491C009101D114
:1036E000641C009200280CD0102108460020C0461F
:1036F000002F06D01198002803D00821084600208A
:10370000C04608980999019A009B006809684840DA
:10371000C10F0798C907214382600AC00BB0F0BDF2
:1037200000B585B0019300920A460146002302A825
:10373000FFF7FCFD02A807C805B000BDFFB50A46AB
:103740001F4685B00799019301230091014602A805
:10375000FFF7ECFD02990398049ECA0F4900D207B7
:1037600000920F22490892028C1A0021002800DBE7
:103770000C46450013486D08844214D3079A002A6A
:1037800004DA441E0026104DF64302E004460D46BE
:103790000E46102108460020C046002F03D0042109
:1037A00008460020C0462005E90A0843009908435E
:1037B0006905F20A1143ADE602C0FFFF013C0000BB
:1037C000FF3F0000FF070000FFFFFF7F00B585B04F
:1037D000019300920A460146002302A8FFF79CFECF
:1037E00002A807C8A8E7FFB50A461F4685B0079993
:1037F000019301230091014602A8FFF78DFE029973
:103800000398049ECA0F4900D20700920F2249086C
:1038100092028C1A0021002800DB0C46450011485A
:103820006D08844214D3079A002A04DA441E002645
:103830000D4DF64302E004460D460E4610210846A3
:103840000020C046002F03D0042108460020C046B7
:103850002005E90A0843009908436905F20A114363
:1038600058E60000FF070000FFFFFF7FF8B50546A0
:103870000C46C8680521C90488430121890508430D
:10388000E060800602D52046FDF7D6FE7149E0686B
:103890000140022903D02046FDF778FEBCE0052157
:1038A000012249030140D20391420FD1C00306D542
:1038B0006168E06A884200D80846606006E02069D6
:1038C000E0626060606903F00BFDA061A168002206
:1038D000EEB200290EDAE06883050BD4C943A1607B
:1038E0000921226049030843E0606068411C61606F
:1038F0000670ACE0E068012149030843E060002065
:1039000020602069002831D1606903F003FD0125A2
:1039100027462437ED02002816D0A0898005800FA5
:1039200008D0E069FCF7CEFC0028206102D0E068F6
:10393000284318E001202761E061E06803210902C3
:103940008843012189020DE0E069FCF7BBFC0028F7
:103950002061EFD0E0682843E0608105890F03D142
:10396000FF2101310843E06020696060E2683A4F5E
:103970002569D0051FD56168E06A884200D80846ED
:10398000411B05D022462846FDF70AFE002843D1F8
:10399000E068010204D5E56200206560A06053E0A4
:1039A000691CE1626160E169491E3843A160E06021
:1039B00030462E70F8BD100201D53A4009E060682B
:1039C000411C61600670E06838430A2EE06006D052
:1039D0000022E16A6068814203D90B4602E00122BD
:1039E000F7E70346A7895B1B7F0504D4E7699F427D
:1039F00001DD002A1ED0814200D801460F1A0020A6
:103A0000E5626560002BA06009DD22461946284664
:103A1000FDF7C6FD002802D00020C043F8BD002FEE
:103A200008D0A069E5626560C01BA061E068102154
:103A30000843E060E068000209D56168A069E562BA
:103A4000491B40186560A0610120C043F8BD3046A5
:103A5000F8BD0000821000000000010070B50646AD
:103A600008464A4290430FD02A20741C002530702B
:103A7000FFF7CCF80346A90000225858010F0001B7
:103A800009292DD957312CE0042913D004DC012950
:103A900008D0022904D109E008290FD0102911D03B
:103AA000002070BDFFF7B2F800680EE0FFF7AEF837
:103AB00040680AE0FFF7AAF8806806E0FFF7A6F87A
:103AC000C06802E0FFF7A2F80069002806D080086D
:103AD000800001468039C96F081870BD4EA070BDC6
:103AE00030312170521C641C082AC7D36D1C052D6F
:103AF000C1DB00202070304670BD10B5002901D018
:103B00004B0901D0002010BD002A05D013782A2BC4
:103B100005D000F036F810BDFFF7A0FF10BD00F093
:103B200001F810BDF7B50F46541C0025002631469C
:103B30002078641C0246303A092A03D90346613BC7
:103B4000052B17D8392801D8104600E05738360120
:103B50000643491C0829EBD30120A840384203D072
:103B6000FFF754F8A90046506D1C052DDEDB2078C8
:103B7000002801D00020FEBD00983946FFF76EFFF7
:103B8000FEBDF8B50C460646154688070AD511460F
:103B90002248784404F09CFB071E3BD0FFF736F820
:103BA0007F1C4760E0070AD029461C4878441A3831
:103BB000C046C046071E2DD0FFF728F807606007F3
:103BC0000AD52946154878443438C046C046071EF1
:103BD00020D0FFF71BF8876020070AD529460F4839
:103BE00078444E3804F08AFB071E13D0FFF70EF816
:103BF000C760E0060AD52946084878446838C046B8
:103C0000C046051E06D0FFF701F805612146304683
:103C1000FFF724FFF8BD00004300000076680000B5
:103C200070B516460C460546FDF766FE0368FF2094
:103C30000230C05C012805D0185D00280BD001209F
:103C40002C8070BDFF333246214604331868C318F8
:103C50002846984770BD0020C04370BD70B505462A
:103C60000C460A2000E06D1CFDF739FE002D06D041
:103C700028780028F7D102E0641CFDF730FE002C04
:103C800002D020780028F7D10A20FDF728FE70BD69
:103C900010B5002102A0FFF7E1FF012010BD0000D8
:103CA000534947414252543A2041626E6F726D61EE
:103CB0006C207465726D696E6174696F6E000000CE
:103CC00010B5014602A0FFF7C9FF012010BD00009A
:103CD00053494752545245443A20526564697265CB
:103CE00063743A2063616E2774206F70656E3A20AA
:103CF0000000000010B5012805D0002103A0FFF747
:103D0000ADFF012010BD09A1F8E70000534947525B
:103D1000544D454D3A204F7574206F66206865619B
:103D200070206D656D6F7279000000003A20486563
:103D30006170206D656D6F727920636F727275703E
:103D400074656400F8B517460E460546002B07D08B
:103D5000104658434419E41B2046B047A542FAD107
:103D600028460838F8BD10B58820FCF7ABFA0028C3
:103D700001D00021017010BD802904D8002802D094
:103D80000178002901D0002070470121017008301E
:103D90007047002803D002460832914201D000202B
:103DA0007047002101707047FFB51C4683B0059D28
:103DB00000904D43002923D0A768002041E0002F48
:103DC00041DCE069A8421EDA019900291BD0224695
:103DD00029460098FDF7E4FB002801D0A7602DE0FC
:103DE000E0684105890F01D0002008E02269616880
:103DF000891AE269511AC003A16001D44842A06047
:103E0000059807B0F0BDA84204DAE0680121C905B1
:103E10000843E060214600980078FFF727FDE2683C
:103E20000121C9058A43411CE26007D0A768002828
:103E300006DB0098401C6D1E009015E00020E0E7B6
:103E40000120019010E0AF423E4600DD2E46324692
:103E500060680099FCF7EEFD6068BF1B8019606028
:103E600000988019AD1B0090002DA8DCA760C7E763
:103E700010B5034900F092FA0148FCF712FD10BD9D
:103E8000DC040020F8B5224C4E00069DA6420AD85C
:103E9000A64201D1002806D15E00A64203D8A64260
:103EA0000AD1002A08D00D24240425422CD029460A
:103EB000002000F090FAF8BD0C461C430CD4994247
:103EC00002D0EFF30080F8BD904202D0EFF3008003
:103ED000F8BDEFF30080F8BD09242407E5008B420C
:103EE00006D0EFF30080A043591A06D2284304E01D
:103EF000101A05D3EFF30080A04380F30088F8BDCB
:103F0000EFF30080A043F1E7009500F07BFAF8BDE5
:103F10000000E0FF10B5FCF7D1F9006810BD10B546
:103F20000446FCF7CBF9046010BD0000FFB51F4646
:103F300089B0139812994005C00FC0070590002062
:103F4000079005460446461E049002903C20491CFA
:103F500012910690B9690A98884703901498401EF8
:103F600014901498002841DD03982E2816D01021B3
:103F7000FDF7FCF9002834DB012104910799014386
:103F80001AD0069900290CDB069AC11700F044FAF2
:103F9000054306980C43001F069006E0012002909E
:103FA0000EE0002801D0012005430120079002986F
:103FB000002805D1361D03E00298002800D0361FE6
:103FC0001298401C1290B9690A9888470390149877
:103FD000401E149004980028C3D00B9912980860D2
:103FE000BFE70398702808D0502806D0F9690A98CE
:103FF00088470498002815D051E000200390012044
:104000000290049800280AD01298401C1290B969B6
:104010000A9888471499491E0029149106DCF96909
:104020000A9888470120C0430DB0F0BD2B2804D06A
:104030002D280DD10020C04302901298401C1290F0
:10404000B9690A9888471499491E00291491E6DD38
:10405000411CE4D00A21FDF789F90028DFDB039930
:104060000A225143081803901298401C1290B96913
:104070000A9888470A21FDF779F914990B9A491E85
:104080001491129911601499002901DD0028E6DAD3
:10409000F9690A9888470299039848438619139842
:1040A0002421084004902846204304D0A10F89070A
:1040B000090002D006E005989BE0A90FA4000C437C
:1040C000AD00B61EE10FC907080002D16D196441A9
:1040D000761E0498002803D00B2002905D4803E070
:1040E000282002907D20C0438642039007DA811B7E
:1040F000029808184128029001DD41200290029A9E
:1041000001200021521E00F087F9024628400B468C
:104110002140084301D0012000E00020079000204A
:10412000521EC04343412A4023401A4301D001207C
:1041300000E0002007990690014352D00021084674
:104140000020C0460321059A89050840002A05D0B1
:1041500082008018C20F10184010084080150128F6
:1041600002DD0020C04301E0012815D0401C38D0FA
:104170000798002835D0069800280DD1029A012012
:10418000002100F049F928402140084301D00120D6
:1041900000E00020002824D0029A0120002100F035
:1041A0003BF9034640198C4661412A1A8C410FD3D2
:1041B0000298402807DD0498039E002801D0343E71
:1041C00002E0173E00E0761C01240025E40708E029
:1041D0005B1E62460024E4436241DD43D443054054
:1041E0000C4003980121081AB04206DA1A490598D2
:1041F00008430190002000900EE060006205010B72
:10420000E80A1043059A009068460A4313490A4396
:104210003146019203F022F8049800280AD013983E
:10422000C00714D13868019A0099031D3B600068EB
:1042300006C00CE002A8694602F016FF1398C007FA
:1042400005D13868029A011D396000680260129831
:10425000EAE6000002FCFFFF0000F07F0000F03FF4
:10426000FFB51D4687B01198484A109C129E400524
:104270001399C00F761EC0070243019200220092DC
:10428000FF22D2051043202291434929059003D0F3
:1042900017464E2928D04FE03DA002AA0BC801279F
:1042A0000BC2A9690898641C8847761E014607D48A
:1042B00002A8C05D002803D02022914381420AD089
:1042C000E96908988847032F36D0082F34D0012099
:1042D000C0430BB0F0BD7F1C032F01D0082FE0D1ED
:1042E0000999601C0860DCE7A9690898641C884784
:1042F000761E2DD4B84341282AD1A9690898641C98
:104300008847761E24D4B8434E2821D1A96908983D
:10431000641C884701990122D20411430191059937
:10432000D200114305910999761E0C6001D428280A
:1043300006D0E969089888471198C00712D023E091
:10434000A9690898641C8847761E01D4002803DAFE
:10435000E96908988847BAE72928F1D10998641CC7
:104360000460E9E711982421084207D02868019ADF
:104370000099031D2B60006806C005E028680599B8
:10438000021D2A60006801602046A2E70000F07F5D
:10439000494E46494E4954590000000070B50D463B
:1043A000044604E0294603F0A5F9401C04D0207817
:1043B000641C0028F6D170BD0020C04370BDF8B564
:1043C00016461F460C46851B02E02846B847AD1B23
:1043D000641EFAD2F8BDC80212D54803400F002867
:1043E00004D0C803C043012188407047EFF3008028
:1043F0000001000903210907084380F30088704782
:104400000020704710B500200249029A00F014F80D
:1044100010BD00000000F87F10B5202A04DB014623
:10442000203A9140002010BD914020239C1A034661
:10443000E3401943904010BD10B50C461107090F19
:10444000092904D00A290AD008290CD104E0114610
:104450000820FFF7C0FF06E0510606D501E051062F
:1044600001D50120C007214610BDD10607D50101A5
:104470000909CC084907000E0006044309E0410F72
:1044800020024907000A0143200E00061D22D141E7
:1044900001430846E7E710B503F07CFB03F02CFA74
:1044A00010BD38B504466846C046C04601462046A1
:1044B00004F0F2FA38BD00000148006870470000BF
:1044C000D800002002480168491C016070470000C4
:1044D000D800002010B50648016810221143016081
:1044E000032000F007F800F07BF8002010BD00006A
:1044F00000200240F8B52F488169C0142D4A0143BD
:104500009161916901400091D1680143D160D16806
:104510008143D16000F09AFC284C2748206028484D
:10452000E060294827490068FCF780FB401E606076
:1045300000202061A060A061204600F03FFB002128
:10454000204600F061FB0421204600F05DFB21685D
:104550004A6A1E48026000687D22D2008018886383
:104560001B490D2000F0B6FB01271A4E780330607E
:10457000194D2868FF2109028843286017490E2039
:1045800000F0A8FBB80330602868FF2109048843C5
:10459000B905084328602068C1683943C1602068B4
:1045A000C16804221143C160204600F021FB0020B5
:1045B000F8BD000000100240002C0140F003002074
:1045C000FFFF000040420F00DC000020C40000207C
:1045D0001981000800E100E00CE400E075800008AB
:1045E00070470000F0B505465F4889B000680F4687
:1045F000C007C00FB8420AD25B48016849084900A9
:10460000394301600068C007C00FB84271D12878F3
:10461000800706D555484168F0229143AA681143A6
:1046200041602878C00754D06868012821D04F49DC
:104630000228096822D089075BD54C4C616889083B
:10464000890001436160FFF737FF06466968484803
:10465000012916D06268022925D01207920F38D09E
:104660000446FFF729FF801BA0422DD9032009B083
:10467000F0BD3E49096889033BD5DEE7890138D59D
:10468000DBE762681207920F012A22D00446FFF787
:1046900013FF801BA042E9D8344840680007800F10
:1046A0000128F4D115E01207920F022A11D0044616
:1046B000FFF702FF801BA042D8D82C4840680007B3
:1046C000800F0228F4D104E0284840680007800FDA
:1046D000C7D125480168C907C90FB9420CD901687B
:1046E00049084900394301600068C007C00FB8425B
:1046F00002D0012009B0F0BD2878400707D51B493A
:104700004868072212029043EA6810434860194A39
:104710006C460FCA0FC4184B04AD0FCB0FC5134C1A
:1047200062680C2011460140144804290DD0082964
:104730000BD19102090F6B465D5CE16A04AB09077E
:10474000090F595CFCF772FA684361680C4A090664
:10475000090F515CC8400B4908600320FFF7CAFEEF
:10476000002009B0F0BD000000200240001002400F
:1047700088130000F04700080048000800127A0083
:1047800078970008DC000020044805490068496863
:10479000044A4905490F515CC8407047DC000020BD
:1047A000001002408897000810B511A30FCB88B005
:1047B0006C460FC412A00FC80FC415494A680C20DC
:1047C000134603401348042B0FD0082B0DD193023E
:1047D0001B0F6C46E45CC96A04AB0907090FD203DE
:1047E000595C920FFCF722FA604308B010BD00003C
:1047F00002030405060708090A0B0C0D0E0F101022
:104800000102030405060708090A0B0C0D0E0F1020
:104810000010024000127A00F8B504460078E44D1A
:10482000C0074DD068680007800F01282BD068684A
:104830000007800F022804D16868C003800F022897
:1048400021D0012062680004012A23D08100002ABF
:1048500001D0052A22D02A6882432A60286888432A
:104860002860606800281DD0FFF726FE06462868ED
:10487000800325D4FFF720FE801B64287ED828689B
:104880008003F7D51CE02868800319D560680028EC
:1048900075D015E0296801432960E2E72A680A43D8
:1048A0002A60F7E7FFF708FE06462868800307D569
:1048B000FFF702FE801B642860D828688003F7D4C5
:1048C0002078800743D568680007800F26D0686885
:1048D0000007800F022804D16868C003800F0128F8
:1048E0001CD0E068002820D02968012001432960FD
:1048F000FFF7E2FD06462868800707D4FFF7DCFDD6
:10490000801B02283AD828688007F7D52868F82144
:1049100088432169C9000843286018E02868800797
:10492000F4D5E06801282AD1F0E728684008400063
:104930002860FFF7C1FD06462868800707D5FFF706
:10494000BBFD801B022819D828688007F7D420787F
:1049500000072AD5E069002815D0696A01200143C3
:104960006962FFF7A9FD0646686A80071DD4FFF754
:10497000A3FD801B022801D8686A01E090E014E1E1
:104980008007F4D511E0686A400840006862FFF7CC
:1049900093FD0646686A800707D5FFF78DFD801BEB
:1049A00002287DD8686A8007F7D42078400768D548
:1049B00000200090E869C00008D4E96901200007E0
:1049C0000143E961E969014001200090794F3868AD
:1049D000C00511D43868B91508433860FFF76CFD7D
:1049E00006463868C00507D4FFF766FD801B6428BB
:1049F00056D83868C005F7D5A06801281ED0002811
:104A000001D005281ED0286A400840002862286A84
:104A1000042188432862A068674E00281BD0FFF756
:104A20004BFD0746286A800723D4FFF745FDC01BCE
:104A3000B04260D8286A8007F7D51AE0286A0121B9
:104A40000843E7E7296A042001432962296A012013
:104A500001432962DFE7FFF72FFD0746286A800739
:104A600007D5FFF729FDC01BB04244D8286A80074C
:104A7000F7D40098002804D0E86901210907884389
:104A8000E8612078C0061CD56069012835D0401D3A
:104A9000686B50D0042108436863686B400800E0ED
:104AA00029E040006863FFF707FD0646686B800752
:104AB00007D5FFF701FD801B02281CD8686B800713
:104AC000F7D4606A00286ED069680907890F022947
:104AD0006BD001273F060228286830D0B8432860F1
:104AE000FFF7EAFC0446286880015CD5FFF7E4FC88
:104AF000001B022854D90320F8BD686B0421084329
:104B00006863686B012108436863FFF7D5FC0646BC
:104B1000686B800707D4FFF7CFFC801B0228EAD818
:104B2000686B8007F7D5686BF8218843A169C900D5
:104B300008436863C5E7042188436863F3E7B84323
:104B40002860FFF7B9FC06462868800107D5FFF703
:104B5000B3FC801B0228CED828688001F7D4E86A0D
:104B6000216B000900010843E862E16AA06A014381
:104B700068687B22D2039043014369602868384308
:104B80002860FFF799FC0446286880010BD4FFF7E2
:104B900093FC001B0228AED828688001F7D502E0FC
:104BA00028688001A2D40020F8BD0120F8BD0000D3
:104BB000001002400070004088130000002801D15E
:104BC0000120704770B5054604462035687F0028EF
:104BD00003D12877204600F00AF802206877211DCB
:104BE000206800F0CFF901206877002070BD704781
:104BF0000222014620314A770268136801200343EC
:104C0000136048770020704710B4012422460368DF
:104C10008A40196A91431962196A114319620C4A50
:104C20000168914208D00B4A914205D00A4A91424C
:104C300002D00A4A914204D14A6C0123DB031A4391
:104C40004A64006801682143016010BC002070477D
:104C5000002C014000400140004401400048014058
:104C6000002801D10120704770B505460446603523
:104C7000687A0026002803D12E72204600F029F819
:104C800024206872206801684908490001602046B4
:104C900000F024FA01281BD0606A002802D02046C8
:104CA00000F0B6F9206841680122D20291434160C8
:104CB0002068816808229143816020680168012290
:104CC000114301603046E66620216972A9722E7296
:104CD00070BD7047F0B484460D4802680D4FD24352
:104CE00092070FD0C40200229300E658DD191B1969
:104CF0002E605B68921C6B60302AF5DB0268032330
:104D00001A43026060468000C0190164F0BC70471D
:104D1000000001400000002070B592B0002506465A
:104D20000F951095342168461195FBF72DFF01244E
:104D300021460EA80E94FFF755FC00281FD10094C1
:104D4000002E0FD0052001900226F0030A900520C6
:104D5000C0040B9009960C946846FFF75DFD00288F
:104D60000DD101E00194EFE707200E90109501218D
:104D70000F9611950EA8FFF735FC002802D00020F1
:104D800012B070BD012012B070BD000038B5002413
:104D90002049062838D202007A44127992189744A2
:104DA000020D161F332909244A69E4060120400434
:104DB00002434A6149690140009128E0164C4A6962
:104DC000200202434A614969014000911FE0134CEF
:104DD0004A69200202434A6149690140009116E094
:104DE0000F4C4A690120000502434A6149690140AC
:104DF00000910CE00B4C4A690120800502434A6196
:104E000049690140009102E007A002F05AFC2046E7
:104E100038BD0000001002400004004800080048AF
:104E2000000C00480014004850696E6D61702065E8
:104E300072726F723A2077726F6E6720706F727441
:104E4000206E756D6265722E0000000070B5114D08
:104E500069680C2001401048104C03D0042901D08F
:104E6000082901D020600CE069686A6889020E0F89
:104E7000E96AB61C0907090F491CFBF7D7FE704306
:104E80002060686806490006000F085C2168C14080
:104E9000216070BD0010024000127A00DC0000208A
:104EA00078970008F0B5324C93B020680126304363
:104EB000206060682F490840606020682E490840E3
:104EC00020602068B1048843206060683F210904A5
:104ED00088436060E06A00090001E062206BFF2106
:104EE000943188432063206B802108432063606BEA
:104EF000B04360630025A560A0693043A0612049EC
:104F00001E480860FFF7E6FA0120FFF705FF0028BA
:104F100024D1FFF701FF002820D10227102000979D
:104F20000195029506A9039605950490E1C1C0027A
:104F30000A900520C0040B900C956846FFF76CFCA6
:104F400000280AD107200E90109501210F97119586
:104F50000EA8FFF747FB002800D0FEE7E16801201C
:104F6000C0020143E160E1688143E16013B0F0BD3C
:104F7000001002400CB8FF08FFFFF6FE00127A0096
:104F8000DC000020F0B402681B4B1C4C984201D09E
:104F9000A04203D17025AA434D682A43184D194EEB
:104FA000194F98420AD0A04208D0184CA04205D010
:104FB000A84203D0B04201D0B84205D11446032222
:104FC00012029443CA6822438024A2434C692243BC
:104FD00002608A68C2620A688262984205D0A8426A
:104FE00003D0B04201D0B84201D109690163012167
:104FF0004161F0BC70470000002C014000040040FB
:1050000000400140004401400048014000200040B1
:1050100010B4818CC90707D001684A6801235B047A
:105020009A43836A1A434A60818C890707D50168CD
:105030004A6801231B049A43C36A1A434A60818C5D
:10504000490707D501684A6801239B049A43036B0B
:105050001A434A60818C090707D501684A68012311
:10506000DB039A43436B1A434A60818CC90607D518
:105070000268916801231B039943836B1943916074
:10508000818C890607D501688A6801235B039A43EE
:10509000C36B1A438A60818C490612D503685A682B
:1050A00001210905046C8A4322435A60026C8A423A
:1050B00007D10268516803235B059943436C194388
:1050C0005160818C090607D501684A680123DB0419
:1050D000806C9A4302434A6010BC7047F8B504469E
:1050E0002369A268E5691A43636910202B430021F4
:1050F00025681A432B680E46504F3B4013432B60E4
:1051000023685A6803252D03AA43E5682A435A6099
:10511000236AA26925681A43AB680B273F02BB4389
:105120001343AB60464A2568954210D1454A126B3D
:105130009207920F14D0012A05D0022A05D0032A23
:105140000FD102200DE004200BE0082009E03E4AC8
:10515000954205D03D4A954202D03D4A954200D144
:1051600000200122E369D203934235D100280ED0FA
:10517000022816D004281CD0082824D001260A09A9
:1051800008071201400F21681043C8602DE0FFF7A7
:10519000FBFA616840004A088018FBF747FD81B2BE
:1051A000EDE761682B4A48088018FBF73FFD81B2A4
:1051B000E5E7FFF7F9FA616840004A088018FBF755
:1051C00035FD81B2DBE761680122480812048018CE
:1051D000FBF72CFD81B2D2E7002808D0022811D0BD
:1051E000042818D0082821D001263046F8BDFFF742
:1051F000CBFA61684A088018FBF718FD216880B275
:10520000C860F2E76168144A48088018FBF70EFD91
:1052100080B2E860E9E7FFF7C7FA61684A088018DA
:10522000FBF704FD216880B2C860DEE761684808CA
:105230008018FBF7FBFC80B2E860D6E7F369FFEF6C
:105240000038014000100240004400400048004087
:10525000004C00400024F40000127A001FB51C46E8
:1052600000F06EFD04494968204604B010BDC046F8
:10527000C046C046C046F7E77C01002013B50024B5
:10528000012001F013FE0446204601F0EEFD00204F
:10529000C0431CBDC046C046C046C046F4E700003F
:1052A000F3B58BB0054600200A9003A800F0F7FA8A
:1052B00059E00A98002801D0012000E00020029067
:1052C00003A92846029A00F085F8044604202040ED
:1052D000002807D02A79214625A0FBF75DF8002099
:1052E0000DB0F0BDE007C00F00283BD0002600271E
:1052F00006E003A9C85D314602F0CCF906467F1CE2
:10530000082FF6DB002E0ED003A800F099FA07460E
:10531000324639461FA0FBF73FF8E021A868084352
:10532000A8600020DCE7192001F0C0FD01900028F2
:1053300004D0019800F0B3FA019000E00020009042
:10534000192203A90098FBF775FB69460C9803F036
:1053500048F90A98401C0A9002202040002800D0FA
:1053600001E001E000E0A4E700BF0120B8E7000091
:10537000736561726368524F4D20726573756C740A
:105380003D253032582C205F7374617475733D2550
:10539000640D0A0066696E644D756C7469706C65A5
:1053A0004465766963657328293B20435243204551
:1053B00052524F523A20524F4D3D25732C204352AA
:1053C00043383D253032580D0A00000001468868F8
:1053D00070470000F7B58CB004460E460020A06070
:1053E0000E98002803D171490860714908700020A7
:1053F0000B906F480078002804D000206C4908709A
:105400000FB0F0BD2068816820468847012807D08A
:10541000B021A0680843A060002064490860EFE75D
:10542000F0200A9020680AA90269204690470128C6
:1054300005D0C021A0680843A0600020E0E700205C
:105440000B900125A2E001210991089107912068A4
:1054500009A9C26820469047012805D0D021A0683C
:105460000843A0600020CBE7206808A9C268204656
:105470009047012805D0D021A0680843A0600020F3
:10548000BEE708A8017900780840069008A80079CE
:105490000121484008A9097801225140084005909F
:1054A0000698002806D00320207100203F4908609C
:1054B0000B90A5E70598002830D03C48006885424D
:1054C00002D1012007902CE038480068854203DDB6
:1054D000002007900B9524E03246681E0146C7174E
:1054E0007F0F7F18FB10D15C04910146C7177F0F17
:1054F0007F18FF10FF00C71B03970121039FB940CE
:10550000049F3940002901D0012100E000210791CA
:105510006846007F002804D10B9502E008A80179B5
:1055200007913146681E6A46127F04920246C717E9
:105530007F0FBF18FF100397039A8B5C0246C717B3
:105540007F0FBF18FF10FF00C71B02970127029AA9
:105550009740FAB20192049A002A03D01A46019F9A
:105560003A4302E01A46019FBA43039FCA5500BF5F
:10557000206807A9C26820469047012805D0D0219D
:10558000A0680843A06000203AE76D1C402D00DCB5
:1055900059E706490B98086008460068002803D1BF
:1055A0000120034908702BE7032029E7FC000020B5
:1055B0000001002010B5044606482060002020713C
:1055C000A060102120460C3002F0FDFF04460C3C88
:1055D000204610BD109B000810B50446012120464E
:1055E0001C3000F0D3FB10BD70B504460D46002002
:1055F000A060204600F078F8002805D10120A060C6
:1056000004202071207970BD204600F0D2F8206877
:105610000221C269204690472878002802D02046FF
:10562000FFF7DAFF20680A21C2692046904720462A
:1056300000F05AF8287020683021C269204690474F
:105640002046FFF7C9FF20680A21C269204690471B
:10565000012020712079D6E770B504460D46002060
:10566000A06000263AE0204600F03EF8002805D170
:105670000120A06004202071207970BD204600F038
:1056800098F820680221C269204690472878C00710
:10569000C00F002802D02046FFF79EFF2878401058
:1056A000287020680A21C26920469047204600F0F1
:1056B0001BF8002803D02878802108432870206830
:1056C0003021C269204690472046FFF785FF2068B9
:1056D0000A21C26920469047701CC6B2082EC2DB60
:1056E000012020712079C8E7014600BF00BF086A89
:1056F0000068CA691040002801D0012000E00020A5
:1057000000BF002801D0012070470020FCE710B541
:1057100004460020A0602046FFF7E6FF002805D1E0
:10572000042020710120A060207910BD204600F0E7
:1057300040F82068FF21E131C269204690472046A9
:10574000FFF74AFF20680A21C26920469047204699
:10575000FFF7CAFF002805D1042020710220A060B5
:105760002079E2E720683C21C26920469047204624
:10577000FFF7BAFF002803D0032020712079D4E777
:105780002068F021C269204690472046FFF7ACFF11
:10579000002805D1042020710320A0602079C4E7EF
:1057A0002068F021C26920469047012020712079AD
:1057B000BBE710B50446002120461C3000F0E6FA95
:1057C00010BD70B505460C46204602F075FD70BD53
:1057D00070B5044625461C3501F0EAFE0121284635
:1057E00001F0C4FF01F02AFF00BF032120461C3056
:1057F00000F0C0FA2046FFF7EFFE00BF2046FFF79B
:1058000073FF0028FAD0F02002F056FD70BD0000B2
:105810000FB410B504462046FFF7CCFE04460748F7
:1058200020601C2203A9A018FAF71EFD2046FFF7EE
:10583000CFFF204610BC08BC04B01847389B0008B6
:10584000F0B50146002223E08E5C3007000F8E5C2D
:10585000331100240025092B03DC1E463036F5B237
:1058600002E01E463736F5B257000E460836F555AB
:10587000092803DC06463036F4B202E00646373625
:10588000F4B25600761C0F460837BC55501CC2B205
:10589000082AD9DB00230B7608460830F0BD014604
:1058A000002002E000220A54401C0828FADB0846C7
:1058B0007047FFB581B01F460D00064601D00C466B
:1058C00000E04024002E03D1204601F0D5FA064620
:1058D0003B462146039AFBF779FB002802DA0020B9
:1058E00030700FE0844201DA441C02E0844209D1A6
:1058F0006400002D02D0002005B0F0BD304601F05C
:10590000ADFAE1E73046F7E7FFB5494D00272868D3
:1059100089B0002858D147A00020C046040001D11A
:105920002C460C3420463A21FBF7A2FF00280DD06C
:105930003F4A0770121D42A1401CFBF7F7FC0128EB
:1059400002D16868002801DC012068603D4914200C
:1059500005910846C04606001BD0B760F7600120DD
:1059600040027060384837463060103708A8C0469B
:10597000C0460246354904A803F072F8014638468D
:1059800003F092F80646103E04A803F0ABF8304846
:1059900030602C4E07A8C046C046024621466846E5
:1059A00003F05EF8074601A800F0CCFF024630681D
:1059B0003946C36830469847A86001A800F0D4FF74
:1059C000684603F08FF82C60AC68601C28D002A8F1
:1059D00004906F681B4E06A80B9DC046C046024649
:1059E00016A103A803F03CF80095019030683B46EF
:1059F0000569224631460498A84703A803F072F8C7
:105A0000029A10460C38806800280BD00C9B0A992B
:105A10000998FFF74EFF044602A803F063F82046FA
:105A20000DB0F0BD02A803F05DF80020F8E700001B
:105A30003801002052575354444552520000000090
:105A40002564000060220020609B0008459F00083C
:105A5000649E00080FB47FB5154D2A68002A04D053
:105A60000898032805DC002190477FBC08BC04B0DF
:105A7000184709AE694608200846C046002803D0EA
:105A800000F04EFD044600E000243246204608990E
:105A900000F002FD206881682046884701462A6898
:105AA000089890472068016820468847DDE7000095
:105AB000740100200749884201D10420704706493B
:105AC000884202D00549884201D1082070470C2045
:105AD000704700003404002088040020DC0400200B
