:020000040800F2
:1000000000400020A1020008A9020008AB0200087D
:1000100000000000000000000000000000000000E0
:10002000000000000000000000000000AD02000819
:100030000000000000000000AF020008B10200084C
:10004000B302000800000000B3020008B302000879
:10005000B3020008B3020008B3020008B3020008AC
:1000600000000000B3020008B3020008B302000859
:10007000B3020008B3020008B30200080000000049
:10008000B3020008B3020008B3020008B30200087C
:10009000B3020008B3020008B3020008B30200086C
:1000A000B3020008B3020008B3020008B30200085C
:1000B000B3020008B302000800000000B302000809
:1000C00000F002F800F0C3F80CA030C8083824187B
:1000D0002D18A246671EAB4654465D46AC4201D180
:1000E00000F0B5F87E460F3E0FCCB64601263342EF
:1000F00000D0FB1AA246AB4633431847C4D80000D1
:10010000E4D80000103A02D378C878C1FAD8520770
:1001100001D330C830C101D504680C6070470000BD
:100120000023002400250026103A01D378C1FBD813
:10013000520700D330C100D50B60704710B56E294F
:1001400002D101F0BCFB10BD702902D100F0EFF923
:1001500010BD662902D10CF0EFFC10BD652902D15B
:100160000CF0EAFC10BD672902D10CF0E5FC10BDD3
:10017000612902D10CF0E8FC10BD03681B0A01D311
:1001800080231943692902D100F05CF910BD64296C
:1001900002D100F057F910BD752902D100F052F9D3
:1001A00010BD6F2902D101F09DFC10BD782902D14C
:1001B00000F0AAF910BDE92902D101F039FC10BD07
:1001C000E42902D101F034FC10BDF52902D101F07F
:1001D0002FFC10BDEF2902D101F090FC10BDF829D1
:1001E00002D100F09FF910BD0368DB0901D3802321
:1001F0001943632902D101F09DFB10BD732902D17F
:1002000001F0A0FB10BDE32902D103F022F810BDDC
:10021000F32902D103F025F810BD002010BD1FB551
:100220000098019901F05FFA03F01AFE0400002023
:1002300000210BF031F8401C6060002000210BF021
:1002400041F8E06002F0B0FA00F096FE1FBD09F040
:10025000B5FA114603B409F0C0FA03BCFFF7DFFF9B
:1002600004F0CEFD09F016FD70B505460C461646A5
:1002700002E00FCC0FC5103E102EFAD2082E02D38A
:1002800003CC03C5083E042E07D301CC01C5361F9D
:1002900003E021782970641C6D1C761EF9D270BDB4
:1002A0000448804704480047FEE7FEE7FEE7FEE714
:1002B000FEE7FEE7395A0008C10000080048704711
:1002C0000C06002070B5064601F0F0F905683046CE
:1002D0000B30C408E400B44201D8002070BD686847
:1002E0002A46002818D00168A14211D30B462146A6
:1002F00008318B4208D3436801194B6003681B1B0C
:100300000B605160046001E041685160001D70BDE8
:10031000024640680028E6D12146284601F0CEF981
:100320000028DCD170BD70B50446051F01F0BEF990
:100330000068002C1AD0446801E020466468002C54
:1003400001D0AC42F9D301680A18AA4204D12A6844
:1003500005468918016000E0456028684119A142FE
:1003600005D16168696021684018286070BD6C60C3
:1003700070BD00001CB50C46064B7B4469460090DE
:10038000204601F0B4FA04460020694601F0C2FAA2
:1003900020461CBD9715000010B50B4601461846B7
:1003A00001F0D4FA10BD00000FB4054910B503AA3E
:1003B000029801F0CBFA10BC08BC04B0184700004A
:1003C000640600200FB41CB5084B06AA7B4469469E
:1003D0000090059801F08BFA04460020694601F070
:1003E00099FA20461CBC08BC04B01847451500000B
:1003F00070B50C460546012A05D02878800600D540
:10040000EA69002302E0012305E05B1C934202D26B
:10041000E05C0028F9D1A869E618C01AA861286A2A
:10042000C0182862284601F0B9F904E06A6820780B
:10043000A968641C9047B442F8D3284601F0C4F977
:1004400070BD0000F7B5002575291068009914A645
:1004500011D001F0CAF9002802DA404211A608E0E2
:10046000009909688A0701D50FA602E0490704D55B
:100470000EA6012501E001F0C1F9009F00242437F8
:1004800004E002F081FA30313955641C0028F8D1BB
:100490002B4632462146009801F0B9F9FEBD000016
:1004A000000000002D0000002B00000020000000D4
:1004B000F8B50F460188090502D5224C7C4402E0BC
:1004C000204C7C440E3405460021243508E01607F4
:1004D0001209360FA65D6E541E0732431B09491CD4
:1004E00016461E43F3D1224604780023240705D57F
:1004F000702F06D0002901D00223113201F087F9B4
:10050000F8BD01231032F9E770B504460D462146C7
:10051000106801F073F90023024629462046FFF7D0
:10052000C7FF70BDD21DD308DB000CCBC0E730B4D1
:10053000036820241268234303600823C36130BC8E
:100540000023B5E73CC80000F3B50446002081B0A5
:1005500020622046E1688847002872D0252802D012
:100560006268A168ABE0594F00267F442046E168ED
:1005700088472028054608DB312D06D27819203817
:100580000078002801D00643F0E7B00701D5042029
:1005900086430020E0610746A0612A2D0AD0284644
:1005A00009F014F9002827D0B8000019303D009058
:1005B000856119E00298BA00121902C8916102908F
:1005C0002046E1688847012F054617D1E0690028D9
:1005D0001FDA202086431CE000980A2180694843E6
:1005E00000994019303888612046E16888470546FF
:1005F00009F0ECF80028EFD1012F0AD02E2D08D1F8
:100600002046E16888470546202006437F1C022FCC
:10061000C3DBA069002803DA4042A0610120064341
:10062000F00701D0102086436C2D0BD0682D09D027
:100630004C2D3CD06A2D38D0742D38D07A2D36D040
:1006400016E040E0E1682F4620468847B84205465C
:1006500009D16C2F29D001208002E1680643204691
:100660008847054604E06C2F1DD0FF20013006436B
:10067000002D28D028464138192803D80120C0026F
:1006800006432035204626602946029A1646FFF783
:1006900055FD002810D001280BD0F61DF008C00031
:1006A0000830029055E74020E1E78020D5E70020A0
:1006B000D3E7361D02964CE762682846A16890474A
:1006C000206A401C44E7206AFEBD0000B6C7000057
:1006D0000FB400B58DB010A909900B900020C04355
:1006E00000910A9000200C90074878440690074833
:1006F00078446A4607900F9909A801F057FB0DB09E
:1007000008BC04B018470000E3160000FD16000006
:10071000FFB51D460027FF4383B05C6800200190B1
:100720009E68A96904987F1C88470090296A8847B9
:100730000028F6D10098401C0CD0032040028443CE
:10074000002E19DD600614D500982B2809D02D281D
:100750000FD103E00020C04307B0F0BD01208002AC
:100760000443A96904987F1C8847761E002E0090D8
:1007700002DD0098302803D00598002825D035E008
:100780000120A96940020443761E04987F1C884713
:10079000002E009003DD782805D0582803D0059856
:1007A000002810D022E00598002801D010281DD183
:1007B0000120A96940028443761E04987F1C884763
:1007C0000090102002E0082000E00A2005900DE0D3
:1007D0000121059A49020C430199761E51430818DC
:1007E0000190A96904987F1C88470090002E05DDC0
:1007F0000599009801F0ACF90028E9DAE969049854
:100800008847A00502D40120C043A5E7E00722D114
:10081000600611D56005019800D5404229680A1D7F
:100820002A600968220501D5087014E0220701D565
:10083000088010E008600EE02868011D296000684B
:10084000210502D50199017005E02107019901D523
:10085000018000E0016038467EE7000070B5044684
:10086000C068810713D0800601D5A56A04E0A1699C
:10087000606840182169451A204601F04DFF0022AA
:1008800006462946204601F055FE304670BD002040
:1008900070BD70B5002802D0FFF7E0FF70BD0025E5
:1008A000074C6E1E08E02046FFF7D8FF002800D056
:1008B0003546206D44086400002CF4D1284670BDF4
:1008C0001006002070B50D46044604E0294609F0E4
:1008D00037FA401C04D02078641C0028F6D170BD83
:1008E0000020C04370BD0000F7B516460C46104608
:1008F00000F07CF82078611C61280AD0722802D0B0
:10090000772839D102E00125002404E002250424DF
:1009100001E02D4D08240222032301270878491CF9
:100920002B2806D0622807D02039C87F742807D02A
:1009300008E01D431443F1E7042005433C43EDE781
:10094000102004430098214608F0AEFF411C13D04C
:100950000021316171600121F5604902F16170612E
:10096000200704D530460222002101F0E3FD306D5E
:10097000384330653046FEBD0020FEBDF8B50D465B
:100980000646124C206DC10704D0410804D044082B
:100990006400F7E7224610E05420FFF793FC0700BD
:1009A00010D07908206D49000122114308435421D9
:1009B0002065384600F09AF93A4629463046FFF756
:1009C00093FFF8BD0020F8BD028000001006002053
:1009D00010B5002902D0FF22013201E0012292026B
:1009E00001235B0201F042FE10BD0000FEB504468B
:1009F000466900690F4F0190E56800200090A80744
:100A000007D0204601F088FE304608F0EBFE0028B3
:100A100001DA3846FEBD280502D50198FFF783FCB0
:100A20004C21204600F062F9206D4008400020650E
:100A30000098FEBDFFFFFFFF0EB5044615460E46AB
:100A400012A003F075F9204603F072F915A003F027
:100A50006FF9304603F06CF914A003F069F96C46A5
:100A60000020E0720A20A0720A3407E00A2128461A
:100A700000F09CF930310546641E2170002DF5DC34
:100A8000204603F055F901F02DFF00002A2A2A2004
:100A9000617373657274696F6E206661696C6564F9
:100AA0003A2000002C2066696C6520002C206C69BF
:100AB0006E65200030B5441C03E00178401C00291D
:100AC0000DD08107F9D10B4BDD0104C8D11A914338
:100AD0002940FAD0001B0A0603D0C01E30BD001BFF
:100AE00030BD0A0401D0801E30BD0902FCD0401E7A
:100AF00030BD0000010101010346F0B50B439B0727
:100B00002DD1244DEF01042A29D308C810C95E1B3A
:100B10009E43121F3E4017D0D8B2E1B2401A3106B0
:100B2000014310D198B2A1B2401A310401430AD155
:100B300018022102000A090A401A3102014302D1B7
:100B4000180E210E401AF0BDA342DCD018BA21BA0B
:100B5000884201D90120F0BD0020C043F0BD002A29
:100B600001D10020F0BD03780C78401C491C002BFB
:100B70000DD0A3420BD1521E09D003780C78401C33
:100B8000491C002B03D0A34201D1521EEBD1181BEC
:100B9000F0BD000001010101F8B5042A2CD3830740
:100BA00012D00B78491C0370401C521E83070BD0D7
:100BB0000B78491C0370401C521E830704D00B782D
:100BC000491C0370401C521E8B079B0F05D0C91A8D
:100BD000DF002023DE1B08C90AE0FFF745FBF8BD54
:100BE0001D4608C9FD401C46B4402C4310C0121FCE
:100BF000042AF5D2F308C91A521EF0D40B78491C06
:100C00000370401C521EEAD40B78491C0370401C30
:100C1000012AE4D409780170F8BD431A70B59342F3
:100C20001BD28918801804E0491E401E0B78521E02
:100C300003709307F8D106E01039103878C91039DD
:100C400078C01038103A102AF6D203E0091F001FAE
:100C50000B680360121FF9D570BDFFF705FB70BD6F
:100C6000F8B5064614460843800707D0751AA54212
:100C700019D20819102D13D2311907E03046FFF7A9
:100C8000CCFFF8BD401E491E02780A70641EF9D2DE
:100C9000F8BD471B2A463946FFF77EFF641B3846DE
:100CA000A542F6D3011B22463046FFF775FFF8BD7B
:100CB00001E004C0091F0429FBD28B0701D5028083
:100CC000801CC90700D00270704700290BD0C307F1
:100CD00002D00270401C491E022904D3830702D5AA
:100CE0000280801C891EE3E70022EEE70022DFE796
:100CF00082078B079A4237D170B5920F0AD003242E
:100D000002780B78401C491C002A2BD09A4229D12A
:100D10002042F5D11D4EF40104C808C9951B954326
:100D2000254010D19A4207D104C808C9951B9543A4
:100D3000254008D19A42EFD012BA1BBA01209A423C
:100D400000D2404270BD12BA1BBA2DBA182410004E
:100D5000E0401900E140401A05D12E00E64002D1E2
:100D6000083CF4D1D01A70BD02780B78401C491CA5
:100D7000002A09D09A4207D102780B78401C491CFE
:100D8000002A01D09A42EFD0D01A70470101010128
:100D9000002203098B4273D3030A8B4258D3030BFF
:100DA0008B423CD3030C8B4221D312E003460B430E
:100DB0007FD4002243088B4274D303098B425FD354
:100DC000030A8B4244D3030B8B4228D3030C8B4280
:100DD0000DD3FF22090212BA030C8B4202D3121266
:100DE000090265D0030B8B4219D300E0090AC30B3B
:100DF0008B4201D3CB03C01A5241830B8B4201D3E8
:100E00008B03C01A5241430B8B4201D34B03C01AD0
:100E10005241030B8B4201D30B03C01A5241C30A48
:100E20008B4201D3CB02C01A5241830A8B4201D3B9
:100E30008B02C01A5241430A8B4201D34B02C01AA3
:100E40005241030A8B4201D30B02C01A5241CDD248
:100E5000C3098B4201D3CB01C01A524183098B4293
:100E600001D38B01C01A524143098B4201D34B017C
:100E7000C01A524103098B4201D30B01C01A5241DF
:100E8000C3088B4201D3CB00C01A524183088B4266
:100E900001D38B00C01A524143088B4201D34B004F
:100EA000C01A5241411A00D20146524110467047C1
:100EB0005DE0CA0F00D04942031000D340425340C6
:100EC00000229C4603098B422DD3030A8B4212D386
:100ED000FC22890112BA030A8B420CD389019211B8
:100EE0008B4208D3890192118B4204D389013AD0F5
:100EF000921100E08909C3098B4201D3CB01C01ACA
:100F0000524183098B4201D38B01C01A52414309DC
:100F10008B4201D34B01C01A524103098B4201D3CA
:100F20000B01C01A5241C3088B4201D3CB00C01A37
:100F3000524183088B4201D38B00C01A5241D9D24F
:100F400043088B4201D34B00C01A5241411A00D2D0
:100F50000146634652415B10104601D34042002BCC
:100F600000D54942704763465B1000D3404201B54B
:100F70000020C046C04602BD70B5064C7C44064DFC
:100F80007D4403E0206800198047241DAC42F9D15C
:100F900070BD0000ACCB0000CCCB0000F8B517460C
:100FA0000E460546002B07D0104658434419E41B53
:100FB0002046B047A542FAD128460838F8BD0000BF
:100FC0000246C80FC00781434B0030B54B405B0061
:100FD0009B0D20D01923DB06C91801231B0599425C
:100FE00020DB0324A40704251346AB400BD3002BBE
:100FF00004D1EB0613409B00E34204D401246407B0
:10100000002312195941FF231B0599420BD2C90035
:101010000143500F09E0CB0204D50143080302430A
:1010200005D0054830BDFF21C905084330BD08463D
:1010300007210905884330BD0000C07FF0B50C468C
:10104000871A9C410D46861A9D4103D2C01BA141BF
:10105000D21963410D0D1F0DC94EEC1BAE435CD080
:101060007F057F0D0026002F51D02D05AC46A943EA
:10107000DD020123ED0A1B051D4320231B1B24D485
:101080001746E740381871412F46E740CC199D407C
:101090002818314661410C0D27D161449A4013D57F
:1010A0000023401C594152000ED14008400001224B
:1010B0004B005205D34207D305204007C14201D55A
:1010C000B04900E0B0493046F0BD6B00002A00D0C6
:1010D00001229A181F23203C1B1B01D5002302E08C
:1010E000E540281871410C0DD7D0012424050919B9
:1010F000C407CD0740084908E40F28436144002C89
:10110000D5D00024401C61419A40D0D1CDE76A057A
:10111000520DD9D1C90FC907D5E79C4D4E00002803
:1011200001D0012400E0002434195F00002A01D01E
:10113000012600E00026BE19954FAC420CD8AE4205
:101140000AD8B44206D001256D05EC42BCD0104649
:101150001946F0BD9942FCD000203946F0BDF0B5EB
:101160001FB40C460F46811A9F412546861A9D41A1
:1011700006D20125ED076F40401ABC4152187B4151
:10118000210D1E0D8D1BAC467D4D8D437ED075050A
:101190006D0D7CD00D05AE46AC431B031B0B794D8A
:1011A00052429D41202366469B1B14D31746F740AD
:1011B000381800260090744160462F460741E41914
:1011C00000989D402818664116D4714671189A40BF
:1011D00025D5012320E093182A466A415200002BAE
:1011E00000D0521C1E23203E9B1B002B61DD35418D
:1011F000EE1728186641E8D5001876415B1C9A4026
:1012000000D3401C4B05F3181524E34010D3002BEA
:1012100052D071467118D30FC01802D3491C05B0C3
:10122000F0BD0123DB079A42F9D140084000F6E700
:1012300001225205B21801D1002853D00123CC0A53
:10124000DB029943891E002A08D1020C03D0020C4C
:101250000004103902E00246002020390023550B1B
:1012600005D112020823550B01D152010D23550C53
:1012700001D112011B1DD50C01D192009B1C150D33
:1012800001D152005B1C2025EE1A01E02CE022E087
:101290000546F54015439840CA1AE1076918130539
:1012A000C918002ABBDA032040070818C10FC90774
:1012B0000FE071466118B2E7F1074008084371106A
:1012C00071444A000CD001235B059A42A7D2C90F92
:1012D000C9070020A3E74905490D26D1002001E0F8
:1012E0000028F4D100219AE7284D6600002801D09B
:1012F000012100E0002171185F00002A01D00126C1
:1013000000E00026BE19224FA94210D8AE420ED8E6
:10131000B14208D001256D05E94206D01946A80260
:10132000414010467BE79C4201D0214677E70020F0
:10133000394674E710B50C465C4005D50124E40736
:101340006340FFF70CFF10BDFFF778FE10BD30B40F
:101350000C465C4004D50124E407634030BC6DE6D4
:1013600030BCFCE670B50124E40761400D465D40E9
:1013700002D4FFF763FE70BD6340FFF7F0FE70BD5F
:10138000FF0700000000F0FF0000F07F0000E0FF1A
:101390000000F87F1F22030C02D10F22000402D0AC
:1013A000030E03D004E00020014670470002083A13
:1013B000030F01D10001121F830F01D18000921E83
:1013C000002801DB4000521E120551184205C012D0
:1013D000411810467047C10FC90700D04042012292
:1013E00092071143D6E701218907D3E770B5054677
:1013F0004800440D124B0020002C0AD0634008D056
:101400009A4206DA6642B24203DD120540195141A2
:1014100070BD002C08D0002B09D0C90FC907002AC5
:10142000F6DB084A114370BDC90FC90770BD2846D5
:101430000A03104302D00020034970BD284670BD46
:10144000FF0700000000F07F0000F87F0121C905C0
:101450000123411842001B06D3185B0E0AD0C110AD
:101460000722D206891840075242D14201D55200C4
:1014700089187047090208D50146002A03D0C10F18
:10148000C9070020704710467047420202D0002072
:1014900002497047072109050143F4E70000F87F7E
:1014A000F0B5FF252D04C609C209FF2704462E40CA
:1014B0000137CB093E4348402A402B400746002ACB
:1014C0006BD0002B69D0AA4267D0AB4265D0002810
:1014D00000DA32460125ED0529432C43090220029A
:1014E000090AD21A4B0C7F24E31A434C000A7C44AD
:1014F000E35C7D242404121914145B00A2188842B2
:1015000001D3521C00E0400049420C465C432411C8
:101510005C43DB016415E318040A5C43C502200D3B
:101520000C4644436419250A5D432303EC0C0D4625
:10153000654300030019EB184C42A34201D35B182A
:10154000401CD4052018002B07D05B00C91804D319
:10155000401C002901D1400840003F2189048A42F3
:1015600009D3002A08DC1106090F04D0032149071A
:101570004018C00FC007F0BD0122410012068918B3
:101580007F2252069142F6D205214907C84201D571
:101590009010F0BDFF20C005F0BD002F00DA3246EC
:1015A0001648AA4207D2AB4205D21902090E17D03B
:1015B000F80FC007F0BDFF2563002D06AB42F9D838
:1015C0004900A942F6D8AB4201D1A942F2D0A942C2
:1015D00001D1002101E061004908D0050843F0BDB8
:1015E0001102090EFBD0FF200243D005F0BD0A46D0
:1015F0000146104654E70000A2B800000000C07F7A
:1016000010B501469E240002CA15A307002A02D085
:101610001843002A04DBA21A002A0CDDD04010BDBA
:101620001206120E01D140004008A21A03D4D04085
:1016300040420028F3DDFF2248001206904201D903
:10164000002010BDC817C043584010BD1F22030C16
:1016500002D10F2200041CD0030E01D10002083A6F
:10166000030F01D10001121F830F01D18000921ED0
:10167000002801DB4000521ED205511802125118F9
:101680001922904004D3491C002801D1490849007F
:1016900008467047C10FC90700D040420122920797
:1016A0001143D3E701218907D0E7000000487047C4
:1016B00058240020704770477047704738B504467B
:1016C0000A460020694602F055FB002805D0024674
:1016D0002046009901F0BAF9012038BD10B501206B
:1016E00002F008FB10BDF8B502F038FB05460020FB
:1016F0000C461020C0460646A819A0420DD9324615
:101700006946002002F036FB070001D102F0F2FA30
:101710000098A04200D00546C419FFF7C7FFF61D88
:1017200007460560F008C0004619284600F008F892
:10173000B44204D031463868A21B01F087F9F8BDE5
:1017400000210160416080607047102070470FB435
:10175000014610B504AA039800F0F8F810BC08BCC4
:1017600004B018477CB51D4616460C00009001D009
:101770000019401E084B7B442A46694601903046BA
:1017800000F0B5F8002C054603D06946002000F0B3
:10179000C1F828467CBD0000B31A000070B50446AD
:1017A00085690068C10601D5302600E02026C00703
:1017B00007D070BD62683046A1689047206A401C1F
:1017C00020626D1EF6D570BD70B50446856900783F
:1017D000C00707D170BD6268A16820209047206AC9
:1017E000401C20626D1EF6D570BD09684A0501D502
:1017F00040B27047C905FCD500B2704709684A0578
:1018000001D5C0B27047C905FCD580B27047FFB59D
:1018100004460D4681B0243000902168880604D526
:101820001022E0699143216000E00120A84201DD1F
:10183000471B00E000270498A1697A191018081ABC
:10184000A0612078C00602D42046FFF7A7FF00263B
:1018500008E003986268A168805D9047206A401C98
:10186000761C206204988642F3DB2078C0060AD5F5
:101870002046FFF793FF06E06268A168302090479A
:10188000206A401C206238467F1E0028F4DC07E0F6
:1018900000986268A168405D9047206A401C206201
:1018A00028466D1E0028F3DC2046FFF78DFF2078C8
:1018B000000602D5022005B0F0BD0120FBE711684B
:1018C0000268006A530501D5087009E0D30501D507
:1018D000088005E0130602D5C21705C100E00860C4
:1018E0000120704701694A1C02610878704700B501
:1018F0008FB002910021059105490193794403912C
:10190000114604906846FEF71FFE0FB000BD0000B0
:10191000E5FFFFFF0A681070521C0A60704710B59F
:101920004369002B02D0C046C04601E0FEF760FDCF
:10193000012010BD1278014624310A7000224A703D
:101940000122ECE711680022D243E8E7084B70B5AA
:101950000D467B44FFF7CBFF0446284600F0C4FB4E
:10196000002802D00020C04370BD204670BD00009A
:10197000EB830000F7B50446154686B02B48784443
:10198000002703C83E460090019111E007986A467F
:101990007100415A02A802F07BF9411C07D021785E
:1019A000890603D5E269391891420ED83F18761C92
:1019B0002078800602D5E069B84206DDAE42E5DB5C
:1019C00007987100405A0028E0D1A069C01BA061AF
:1019D0002046FFF7E3FE154878445A3803C80090C4
:1019E0000020019116E041006A460798415A02A87A
:1019F00002F04EF90590401C0AD0002505E062680F
:101A000002A8A168405D90476D1C05988542F6D3F9
:101A10000498401CB0420490E5DB206AC0192062A3
:101A20002046FFF7D1FE09B0F0BD000052B400001F
:101A3000F7B5D21D0025D20815A6D200F52905CA92
:101A400011D0002A05DA00214042914111A60A4630
:101A500008E0009909688B0701D50FA602E0490745
:101A600001D50EA601251146009F0024243704E06D
:101A700001F01EF830323A55641C02460A43F7D191
:101A80002B46324621460098FFF7C1FEFEBD0000FE
:101A9000000000002D0000002B00000020000000CE
:101AA00070B504460021243408E05507D2086D0FB4
:101AB000303565545D072A43DB08491C15461D4334
:101AC000F3D10468002310A2250708D5A40601D489
:101AD000002904D0C46901230CA2641EC461FFF76D
:101AE00096FE70BD10B5044621461068FFF786FECD
:101AF000002302462046FFF7D3FF10BDD21DD108B8
:101B0000C9000CC9CCE70000000000003000000054
:101B10000FB400B58DB010A909900B900020C04300
:101B200000910A9000200C900748784406900748DE
:101B300078446A4607900F9909A800F037F90DB06C
:101B400008BC04B018470000A3020000BD0200005A
:101B50003A2800D23038202302469A43412A01D342
:101B600010463738884201D30020C0437047FFB584
:101B70001C460025ED4385B00020009001909F6831
:101B80005E68A16906986D1C88470290216A8847A3
:101B90000028F6D10298401C0CD003204002864356
:101BA000002F19DD700614D502982B2809D02D2896
:101BB0000FD103E00020C04309B0F0BD0120800236
:101BC0000643A16906986D1C88477F1E002F02906E
:101BD00002DD0298302803D00798002828D024E09E
:101BE0000120A169400206436D1C06987F1E8847AC
:101BF000002F029003DD782805D0582803D00798DD
:101C0000002810D011E00798002801D010280CD12E
:101C10000120A169400286436D1C06987F1E8847FB
:101C20000290102000E008200790C017039016E0F3
:101C30000A20F9E70120039B40020643079A019915
:101C400000987F1E00F01CFF029AD317801859419C
:101C500001910090A16906986D1C88470290002FA1
:101C600006DD07990298FFF773FF00280290E1DA7A
:101C7000E16906988847B00502D40120C0439BE77C
:101C8000F00710D1700610D5700505D50098019B9E
:101C9000002241429A4101E0019A00992068031D07
:101CA0002360006806C0284686E72068011D216081
:101CB0000068019A0099F5E7FFB5144683B000204B
:101CC00000260090506801909169976804988847B1
:101CD0000C9905460698084305D009E0A1690498C7
:101CE000761C88470546216A284688470028F5D192
:101CF000681C03D00198C00704D017E00020C0433F
:101D000007B0F0BD2068011D2160006800900DE063
:101D10000198C00704D1009805700098401C0090FD
:101D2000A169761C04987F1E88470546002F1CDD9C
:101D3000681C1AD0069800280FD0E817C00E40196A
:101D4000411140098A000699400151182A1A096870
:101D5000012090400142DBD107E00C980028D7D148
:101D60002846216A88470028D2D0E169049888472C
:101D70000C98002807D1002E05DD0198C00702D17C
:101D8000009800210170A068B84204DD0C9800287A
:101D900004D0002F02D00120C043B1E73046AFE7A6
:101DA00002685118137801601846704710B5D16069
:101DB0000549794451610549794411620021116155
:101DC000114601F053FA10BDEBFFFFFF6F0D00004D
:101DD0004268002A08D001680B78491C002B03D008
:101DE000521E06C0184670470121C160881E704708
:101DF0004268002A0BD0C3680168002B07D18368B2
:101E00008B4204D0491E521C06C00020704700209F
:101E1000C0437047FFB5144687B00020019050685A
:101E200003909768002002900646049005909169FF
:101E300008988847109905460A98084305D009E094
:101E4000A1690898761C88470546216A2846884774
:101E50000028F5D1681C03D00398C00704D02CE0FB
:101E60000020C0430BB0F0BD2068011D2160006858
:101E7000019022E004AA6846E9B201F0EBFE411CA1
:101E800007D0801C09D0002002900398C00707D01B
:101E90000DE0E1690898884746E00120029007E0DC
:101EA00068460188019801800198801C01907F1E7E
:101EB000A1690898761C88470546002F1CDD681C20
:101EC0001AD00A9800280FD0E817C00E4019411107
:101ED00040098A000A99400151182A1A096801200C
:101EE00090400142C6D107E010980028C2D1284690
:101EF000216A88470028BDD0E16908988847029880
:101F0000002811D11098002806D1002E04DD039876
:101F1000C00701D101990880A068B84204DD10987B
:101F2000002804D0002F02D00120C0439AE7304699
:101F300098E7FFB5144685B00020009050680190E6
:101F4000966800200290054603909169069888479C
:101F5000109907460898084305D009E0A16906983A
:101F60006D1C88470746216A384688470028F5D106
:101F7000781C03D00198C00704D01CE00020C043A7
:101F800009B0F0BD2068011D21600068009012E0DA
:101F90000198C00709D1B9B2009802AA01F078FEF1
:101FA000411C34D0009908180090A1696D1C069856
:101FB000761E88470746002E14DD781C12D008983C
:101FC000002807D03B460F9A0E9901F0A9FD002882
:101FD000DED107E010980028DAD13846216A884718
:101FE0000028D5D0E169069888471098002806D1C6
:101FF000002D04DD0198C00701D100990870A06888
:10200000B04204DD1098002804D0002E02D0012038
:10201000C043B5E72846B3E7FFB5144683B00027B1
:102020003D465068019091699668049888470090F1
:102030000E990698084305D009E0A16904986D1C23
:1020400088470090216A009888470028F5D10098B9
:10205000401C03D00198C00704D014E00020C04306
:1020600007B0F0BD2068011D216007680BE00198F2
:10207000C00702D100983880BF1CA1696D1C04986C
:10208000761E88470090002E15DD0098401C12D067
:102090000698002807D0009B0D9A0C9901F040FD8E
:1020A0000028E4D107E00E980028E0D1216A0098CA
:1020B00088470028DBD0E169049888470E980028FB
:1020C00005D1002D03DD0198C00700D13880A0683C
:1020D000B04204DD0E98002804D0002E02D001206A
:1020E000C043BDE72846BBE7C06880210840704771
:1020F00070B50D4601461446D36850692A4607F06C
:102100009FFC002808DA411C08D0E1680122400049
:10211000920311434008E160281A70BD204600F088
:10212000CBFA0020C04370BDC16840221143920128
:10213000914300220260C1604905890F01D082608D
:10214000704702694168891AC269891A81607047BB
:10215000FEB504460121C0688905774B0843E0605D
:10216000010310D599108843E060810606D4E26A25
:1021700061688A4200D80A46511A21601843E0601B
:1021800020346079FEBD9843E060800602D5204689
:1021900000F0E8FA6949E0680140012903D02046CF
:1021A00000F08AFABFE02168002600290BDAC94353
:1021B00021600121A66009030843E0606068411CBA
:1021C00061600078FEBD5E4908420DD005212660A1
:1021D0000903884340210843E06021696068401A90
:1021E000E169401AA0609EE02169002915D1C00371
:1021F00013D4E069FEF766F80028206118D0E06883
:102200000121C9020843E0608105890F03D1FF2144
:1022100001310843E0602069606060690090E06817
:10222000C1061BD5C0030FD5204600F075FA15E096
:1022300020460321243020610120E061E06809028A
:10224000884301218902E4E721696068401AA16995
:102250004118009807F02EFC0028A0DBE068C003BE
:102260002AD56168E06A884200D808462169451A83
:10227000E069471B1BD0A0690190204600F04CFA92
:1022800001984119A061009807F014FC002886DB32
:10229000E068012149040843E060000202D5A0691A
:1022A0004019A061E1692069C91B45180DE020466D
:1022B00000F032FAE769F5E725696168A069E76926
:1022C000491BE56240186560A061E0681021884301
:1022D000E0604005800F02D0204601F095FCE068E8
:1022E0000121A66009030843E060000205D52069CA
:1022F000E06260600120C043FEBD224639462846A8
:10230000FFF7F6FE411C0ED029180028E1620DD01F
:10231000401E2060681C6060E06801214904084399
:10232000E0602878FEBD0020C043FEBD6560204609
:10233000FFF7FAFEF7E70000000020008120000010
:1023400040400000F8B505460C46C8680521C904A0
:102350008843012189050843E060800602D52046B4
:1023600000F000FA7149E0680140022903D02046DC
:1023700000F0A2F9BCE00521012249030140D2038B
:1023800091420FD1C00306D56168E06A884200D847
:102390000846606006E02069E0626060606907F0FE
:1023A00045FAA061A1680022EEB200290EDAE068C9
:1023B00083050BD4C943A160092122604903084366
:1023C000E0606068411C61600670ACE0E06801217B
:1023D00049030843E060002020602069002831D1D3
:1023E000606907F03DFA012527462437ED020028F1
:1023F00016D0A0898005800F08D0E069FDF762FF44
:102400000028206102D0E068284318E001202761FD
:10241000E061E068032109028843012189020DE09F
:10242000E069FDF74FFF00282061EFD0E068284306
:10243000E0608105890F03D1FF2101310843E0608D
:1024400020696060E2683A4F2569D0051FD5616850
:10245000E06A884200D80846411B05D0224628463B
:1024600000F034F9002843D1E068010204D5E562A8
:1024700000206560A06053E0691CE1626160E16971
:10248000491E3843A160E06030462E70F8BD10024E
:1024900001D53A4009E06068411C61600670E0685F
:1024A00038430A2EE06006D00022E16A606881426B
:1024B00003D90B4602E00122F7E70346A7895B1B1D
:1024C0007F0504D4E7699F4201DD002A1ED08142C6
:1024D00000D801460F1A0020E5626560002BA0605D
:1024E00009DD22461946284600F0F0F8002802D0FF
:1024F0000020C043F8BD002F08D0A069E5626560E8
:10250000C01BA061E06810210843E060E0680002A1
:1025100009D56168A069E562491B40186560A06142
:102520000120C043F8BD3046F8BD00008210000015
:1025300000000100F8B5044616460D464769007BC9
:10254000800730D0384607F08BF900282BD132466F
:102550001026002A25D0012A02D0022A23D104E025
:10256000204600F061F845191BE0384607F05EF997
:10257000E16831430028E16004DA204600F09CF86D
:102580000120F8BDC9030BD56268E16A914200D809
:102590001146A26989182269891A814200DD08461C
:1025A0002D18002D01DA0220F8BDE16A6068E268AA
:1025B000814206D29103E06203D5012149048A4396
:1025C0003243A669AE4211DCE16A814201D90B4671
:1025D00000E003469F192369FF1AAF4206DD8142DE
:1025E00001D90F4600E007469F4206D12020024352
:1025F0000020A060A56220600DE0AD1BE669AE1B67
:102600008142A66000D90846C01A281A20605819CD
:10261000606020208243034802400020E260403492
:102620002072F8BDBFCFD7FF10B50146C268900732
:1026300003D0900607D5886A0AE0FDF73FFE012126
:102640000160881E10BD8B694868C0180B69C01AEC
:1026500040310B7A002B02D0497A401A10BD110389
:10266000FCD50028FADD401E10BD000070B5C4681E
:10267000A50713D0650211D4D51FF93D0AD0FF3D3F
:102680006D1E07D0FF3DFF3D022D07D101462431CD
:10269000012305E0074E5D1EB54201D3012070BD48
:1026A0000161C36141600F2109028C431443C4607E
:1026B000002070BDFFFFFF00C1688022114392031C
:1026C0009143C1600021816001607047F7B51446F5
:1026D0000E463348D5685769054209D03846A16986
:1026E00007F0E8F9002811DB2D48C0430540E560FC
:1026F0002B4632463846009907F0FAF94200A169A4
:102700005208B21A89180028A16104D02046FFF7A8
:10271000D3FF0020C043FEBD70B504460569C06A02
:102720006168884200D80846E1680522D2049143D6
:10273000E160C90314D5A84209D02246411B2846AE
:10274000FFF7C4FF002802D00020C04370BDE5623F
:1027500000206560A060E068012109048843E06012
:10276000002070BD10B50446C06820218843E06099
:10277000A16AA06988420ED02046FFF7CDFFE0682D
:1027800003210903884310210843E060A06AA06187
:102790002069E06260600349E0680840E06010BDC5
:1027A00010000200BFBFFFFF10B543485421FEF7E1
:1027B0009DFA42485421FEF799FA41485421FEF708
:1027C00095FA40483C493D4B404A01603E48036011
:1027D0003B4810605A1C0A65411C196501210165BE
:1027E0003C48354A3AA17844FEF77EF8002804D1E7
:1027F000384878440C3801F077FA38482F4A36A127
:102800007844FEF771F8002804D1344878440C3835
:1028100001F06AFA32482A4A2FA17844FEF764F898
:10282000002804D12E4878440C3801F05DFA40238A
:102830002148DC0000212246FFF718FF002804D0C1
:10284000244878445C3801F04FFA1C482246402363
:102850000021FFF70BFF002804D0204878445C38A3
:1028600001F042FA1648224610230021FFF7FEFE2F
:10287000002804D01A4878445C3801F035FA10BDBD
:102880000F4870B5006D44080B486400FEF7AEF8C1
:102890000A48FEF7ABF80A48FEF7A8F809E0206DF1
:1028A000450820466D00FEF7A1F82046FDF73BFDE8
:1028B0002C46002CF3D170BD1006002064060020C9
:1028C000B806002034010020380100203C0100201F
:1028D000720000009EA30000770000008BA30000A0
:1028E00079A3000010B5002001F0F8F9C046C046F9
:1028F000012000F09DF810BD10B501F001FA01F0C3
:10290000E7F910BD034670B502460B439B070FD194
:102910000E4CE60100E008C208C91D1B9D4335426C
:10292000F9D0D9B21170521C00290DD01B0AF8E75A
:102930000B78491C1370521C002B05D00B78491CD6
:102940001370521C002BF3D170BD00000101010176
:102950000022CBB20178401C994200D1421E0029CE
:10296000F8D11046704710B5520001F0F1F910BDD2
:10297000421E5378521C002BFBD10B78491C13705C
:10298000521C002BF9D1704701468008081A020931
:102990001018020A1018020C1018C0088200121831
:1029A0005200891A01E0401C0A390A29FBD27047FB
:1029B00000DE10B506F065FD06F08EFC10BD0000CF
:1029C00010B5FF231B0644009C421DD84C009C42BE
:1029D0001AD80346124A0B4307D4401A02D3EFF326
:1029E000008010BDEFF3008010BD081A06D2EFF38F
:1029F000008001219043C907084302E0EFF3008003
:102A0000904380F3008810BD0D231B041A4204D0AC
:102A10001146002001F002FA10BD01F017FA10BDB6
:102A20000000009008B5694608700320ABBE08BDE1
:102A300001491820ABBEFEE72600020010B501F0E8
:102A40000FFA001D10BD00BF5188000010B50346ED
:102A5000406801E003464068002801D08842F9D36D
:102A60001868C3188B4206D0CB1CD808C000001DC4
:102A7000411A521A0146081D0A60FDF754FC10BDA8
:102A80004343514330B55C18010C130C0D4692B210
:102A90005D4380B251432C19054655430A0C090485
:102AA0004D1962415843010C00044019514130BD99
:102AB0000B4670B5024689078008084319469D08F1
:102AC000141AA94125090807054308092C1948418A
:102AD000250A01060D43010A2C194141200C0D0461
:102AE00028430D0C00194D41002140194D41C008EB
:102AF00069070843E908840F8D00254384002418E2
:102B00004D4124196D41121BAB4107E00925ED43EE
:102B10002C11521963410024401C61411C460A25B6
:102B20000026551BB441F1D270BD10B50446FFF725
:102B300085FF0068005DC007C00F10BD7047FFB57E
:102B40000C461E468FB003CA089009914F007D0DB8
:102B500000D16D1E002108460020C0460321099ABD
:102B600089050840002A03DA8200801840080840DE
:102B7000800D01280A9002DD0020C0430A900898C9
:102B800007430DD0F048F149281848430714189816
:102B900000281DD07542291E1DDD0A9842421BE007
:102BA0001898012802D00020302104E00020F243D0
:102BB00005E02154401CB042FBDB30460022189B4C
:102BC000002121540F998B600A60486013B0F0BD5A
:102BD000BD1B6D1CDFE70A9A002900DA69420BA8C9
:102BE00001F08AF90BAB07CB03AB07C3089909982F
:102BF00001F0EEF96B4607C30146D5480918002DD0
:102C000000910BDDD24903980A9A494240180023EB
:102C100003A90390684601F04BFC08E003990A9A67
:102C20000023081803A90390684601F0EBFB6B46EC
:102C300007C30004000C03D00020C043410800E09B
:102C40001046189A002A03D00022009215461EE072
:102C5000751E05D4FFF72CFF303262556D1EF9D575
:102C600001220843079602D000227F1C04E020784E
:102C7000302801D100227F1E002A069787D01EE04F
:102C8000112D07DAFFF714FF303262556D1C024632
:102C90000A43F5D1084303D00098002819D00EE06C
:102CA0000021681E05E0235C625C63542254401ED0
:102CB000491C8142F7DBA81B401E07950690079A26
:102CC00018990020A0540F98079B069A81600CC0A9
:102CD0007CE711260020189059E7D21DF0B50D466B
:102CE0000446D10893B0C90003C90C900D9106F0B9
:102CF0009FFB02460D98C00F01D02D2007E02068F1
:102D0000810701D52B2002E04007C00F4001032AB4
:102D10000F9001D0072A05DB03462946204601F023
:102D2000A7F80EE12078800601D5E76900E00627C4
:102D30002846652D04D0662814D0672D69D12DE072
:102D40000020112F009001DB112300E07B1C0CAA56
:102D500003A910A8FFF7F3FE1199002610987D1C17
:102D60000E9142E001203B460CAAC0070B900120C7
:102D7000009003A910A8FFF7E2FE119D1298109988
:102D8000002600280E9501D1781C0D18781B02D45E
:102D900046427D1C761EE81B00903AE0012F00DAC7
:102DA00001270020112F009001DD112300E03B4698
:102DB0000CAA03A910A8FFF7C2FE11993D4610986E
:102DC00000260E91217809070BD40E99A94200DA4A
:102DD0000D4603A9012D04DD4A19203AD27F302A7D
:102DE00006D0B84201DA011D04DA012100910FE09A
:102DF0006D1EEFE7002802DC86192D1A03E0411C46
:102E0000A94200DD0D46801B401C00900120C00738
:102E10000B902078000705D40098A84202DB002020
:102E2000C043009069460020C8720B98012102AF90
:102E30000337C907884225D0022010902B2011901B
:102E40000B9800280BDA40420B902D20119006E0E1
:102E50000B98FFF799FD30317F1E0B903970109958
:102E6000481E00291090F3DC0B980028F0D111982F
:102E70007F1E38702088000501D5452000E06520C0
:102E80007F1E387001A8C01BC01D0B900F98002832
:102E900000D0012041190098C01709180B98081894
:102EA000A169081A401EA0612078C00602D42046FD
:102EB000FEF774FC0F98002805D06268A16890475F
:102EC000206A401C20622078C00625D52046FEF7E7
:102ED00065FC21E0002E07DB0E98B04204DD03A85C
:102EE0006268805DA16802E06268A1683020904756
:102EF000206A761C401C20620098401E002800902A
:102F00000AD100F0ADFFC06862680168405CA1684A
:102F10009047206A401C206228466D1E0028D9DC9C
:102F200007E062683878A1687F1C9047206A401CDF
:102F300020620B99481E00290B90F2DC2046FEF718
:102F400043FC032042E6000001FCFFFF104D00009F
:102F5000E1DFFFFFD21DF0B504460D46D0088DB06D
:102F6000C000466807683146384606F061FA0246F6
:102F7000F00F01D02D2307E02068810701D52B2316
:102F800002E04007C00F43016846002B037001D0E8
:102F9000012000E00020032A0A9001D0072A04DB68
:102FA0002946204600F064FF2DE12078800601D4F8
:102FB0000D2500E0E5697000400D0D2D01904BDA04
:102FC000300D00210B9008460020C04603218905E2
:102FD0000840002E05DA82008018C20F1018401039
:102FE00008408015012801DD0020C043A90000230E
:102FF000182906D39C460A460123183A1B07D340DA
:1030000003E001221205CA4094460C31202902D364
:103010003A46203900E032468A40002802DD002A84
:1030200006D119E0002817D10121C9078A4213D31C
:10303000194663467F185E41002806D10120C0076B
:10304000824202D1084687439E430B98310D81424C
:1030500002D00198401C01902088000502D57149DA
:10306000794402E06F49794419396B460A98302255
:103070001A540A980A7C401C1A54401C0A90019861
:10308000002801DC302000E031201872019A012074
:10309000002A02D0644BD21804E072003A4302D0F6
:1030A000614A521C0192002D02DC2278120703D5DE
:1030B0006A462E20507202200022864694460CE07A
:1030C00032033601120F6D1E8B5C02AA1354624646
:1030D000521C401C9446052A01DA002DF0DC002227
:1030E00002AE08E03B0F3F01CB5C521C6D1E335417
:1030F000401C082A01DA002DF4DC23689A0601D569
:1031000011E0401E704504DD3218203AD27F302A8B
:10311000F7D0002807DD3218203AD27F2E2A02D1BC
:103120001A0700D4401E002D03DD3E223254401CFD
:103130006D1E497C31540199401C002906DA2D216D
:10314000471C315401984042019003E02B21471C59
:10315000315401987D21C900884206DBFDF726FE27
:103160003030F0557F1C019101E0642808DB0198A4
:103170006421FDF71BFE3030F0557F1C019101E00A
:103180000A2806DB01980A21FDF710FE3030F055C1
:103190007F1C01980A21FDF709FE3031F1550A988C
:1031A000A1697F1C7A191018081AA0612078C0063E
:1031B00002D42046FEF7F2FA216A6E460A980818F1
:1031C000206204E062683078A168761C90470A9813
:1031D000401E0A90401CF5D12078C00602D520463A
:1031E000FEF7DCFA02AE09E03078761C3E280DD0FE
:1031F0006268A1689047206A401C20627F1EF3D25B
:103200002046FEF7E1FA0DB00320F0BD206A401918
:10321000206203E06268A168302090476D1EEDD304
:10322000F8E700008B9F000001FCFFFF0CC9083984
:103230009A4202D2531C0B601070704710B543695C
:10324000002B02D0C046C04601E0FEF793FB0120F0
:1032500010BD12880146243182840022C2840122DA
:10326000ECE711680022D243E8E70000F3B50C4612
:103270008FB000200C90012000260E9008460C30E4
:1032800003906269039801219047051E2ED0252DD9
:103290002DD0216A8847002818D06269039801213F
:1032A0009047216A88470028F7D16269411E039838
:1032B000904700E0761CA1690F988847216A8847EB
:1032C0000028F7D1E1690F988847DAE7A1690F98DC
:1032D0008847A842074601D1761CD2E7E1690F98DA
:1032E00088477F1C02D10C98002877D075E162696D
:1032F000039800273D46394690472A280CD1626939
:10330000039801219047012506E00A214F433F1809
:10331000303FEBD4102005436269039801219047A8
:10332000014630390A2903D2B1498F42DEDCECE78D
:10333000E90600D4AF4F6C280AD04C2810D068287A
:1033400024D06A282ED074280CD07A280AD00DE018
:1033500062690398012190476C2823D004211CE066
:10336000202005436269039801219047A7606528E2
:1033700065604FD026DC582839D01ADC452849D062
:1033800012DC252834D04128B0D143E0626903988B
:1033900001219047682802D008210D43E6E701206B
:1033A000C002DEE70220DCE7462833D047289DD163
:1033B00030E05B2870D061282CD063286CD0642862
:1033C00094D161E06F284FD009DC662822D06728AD
:1033D00020D0692826D06E2888D12EE0F9E0702808
:1033E0004DD073286FD075284ED078280DD154E079
:1033F000A1690F9888472528054600D16CE7E16947
:103400000F9888476D1C00D16DE7E6E00A224CE07A
:103410000A2252E0012023466A460F99C04309F070
:103420009BFBCFE040212846234608436060A80765
:1034300001D5002239E000223FE0E80700D020E774
:103440002068011D21600068290501D5067018E774
:10345000290701D5068014E7A90703D5F1170660EF
:1034600041600EE706600CE74021284623460843EA
:103470006060A80701D5082217E008221DE05E4918
:1034800028460840606016E040212846234608434D
:103490006060A807BCD5B9E715E04021284608437D
:1034A0006060A80707D52346102201200F99C0436A
:1034B000FEF75DFB86E01022234601200F99C043F2
:1034C000FDF726F97EE0002163280B46019100916B
:1034D00002910D9102D05B2808D03CE02079C00613
:1034E00001D40120A0600120009034E0E0680121B7
:1034F0000D906269039890475E2807D101200190E2
:10350000E06801210D9062690398904721690029C4
:1035100006D10B4604AA8F00491C0829D351FADBB7
:1035200000285AD02169002927D00298401C029017
:1035300062690398012190475D28F1D10198002824
:1035400008D0002004AB8100401C5A58D243082800
:103550005A50F8DB04AB2069002820791DD04007C1
:1035600026D5029A00980D9B0092224602900120D7
:103570000F99C043FEF750FD24E0C117C90E09188A
:103580004A114909930004AA9A184901411A13687B
:103590000120884003431360CAE7400722461748CA
:1035A0000F9902D5FEF736FC0CE0FEF785FB09E02B
:1035B0000298224600990D9B009002910F480F99A6
:1035C000FEF7B7FC00280ADA401C06D10E98002846
:1035D00003D00020C04311B0F0BD0C98FBE7E90711
:1035E00002D10C99491C0C91361800200E9048E627
:1035F000CCCCCC0CFFFFFF7FF1F7FFFFFEFFFFFFFE
:10360000FFB58BB00878FF2806D0491C2D2805D0BF
:1036100000230020009009E000200EE00123F8E7DD
:10362000009A0A2462438018491C00900878FF28F9
:10363000F6D1002B02D0009840420090002503955F
:103640002C460D9800782D2801D02B2815D10D99E6
:10365000491C2D280D9102D0002003900DE001207F
:10366000FBE7401C214600270A223B460D902846D6
:10367000FFF706FA35183C464C410D980678FF2EA8
:10368000EFD1002108460020C0460399002902D04E
:103690008100401840080002860F012E01DD00263F
:1036A000F6430E9900984718284620430BD0FF2078
:1036B000F530C7421ADA0398C1070B98002E416013
:1036C0000ADD012009E00398C1070B9841600B99BE
:1036D000002008600FB0F0BD00200B990860FCF7D7
:1036E000EDFD02210160182108461AE0FF20F530A7
:1036F000874219DD002E02DAFC48784401E0FC48DC
:10370000784406C80B9806C00B9803994068C9070F
:1037100008430B994860FCF7D1FD02210160142198
:1037200008460020C046D5E7002108460020C046D4
:1037300039000A9001D5724200E03246002900DAD1
:10374000794207A800F0D8FB07AB07CB04AB07C34F
:10375000E848009000200146214304D12C4605464C
:10376000E44920390091210C0904014306D1290CB8
:1037700024040C4300992D0410390091210E0906F0
:10378000014306D1290E24020C4300992D02083969
:103790000091210F0907014306D1290F24010C4391
:1037A00000992D01091F0091A10F8907014306D13E
:1037B000A90FA4000C430099AD00891E0091E10FF0
:1037C000C907084304D100986D196441401E009058
:1037D000002F0295019406DD32466846012304A9B4
:1037E00000F01EFE05E001233246684604A900F001
:1037F0006CFE044603980D46002802D00120C00745
:103800004440002108460020C0460A99BA4E48406C
:103810000007800F07D160004008284303D06000F4
:10382000400DB04214D1FCF749FD02210160600057
:10383000400DB0420CD1B148784406C80B9806C080
:103840000B98E10FC907406808430B99486041E7AE
:103850000B9844600B9805603CE7FFB51F4695B098
:10386000002000250C909E685C68ED43139000F0EA
:10387000F7FAC0680168405C1490B96916986D1C2D
:1038800088470A90396A88470028F6D10A98401C70
:103890000AD00D20C0018443002E12DD0A982B2887
:1038A00009D02D280DD103E00020C04319B0F0BD90
:1038B000012080020443B96916986D1C8847761E62
:1038C0000A90600504A901D52D2000E02B206A464E
:1038D000491C107410A8002E0D910B903BDD0A9826
:1038E000692805D0492803D06E2801D04E281DD163
:1038F0003B46039002200296179A1699C043009502
:10390000019409F039F9C11CD0D10FE0B9691698BA
:103910006D1C88470A900120761E400204431798C8
:1039200005601398401C002E139014DD0A9830286F
:10393000ECD0782801D058280DD1139801280AD14D
:103940003B460296179A1699001F0095019409F0BC
:103950000BF9C11CAAD114990A98884246D180203B
:10396000044308E00C981799401E0C900120400277
:103970000443681C0860B9696D1C1698761E884758
:1039800030280A90EED031E01499884205D1200603
:1039900003D480200443761E1EE00A9805F016FF2B
:1039A000002826D0012008A9400204430D980331C5
:1039B000761E88420BD20A980D99303808700D98FF
:1039C000401C0D90200607D50C98401E03E02006F1
:1039D00002D40C98401C0C90A00502D51799681CC5
:1039E0000860B96916986D1C88470A90002ECBDCD8
:1039F00059E0002E57DD0A98652801D0452852D19C
:103A0000A00550D50320B969000284436D1C1698A7
:103A1000761E8847002E0A900CDD2B2804D02D2816
:103A200008D1FF2001300443B96916986D1C8847FE
:103A3000761E0A90E00501D52D2100E02B210B9880
:103A400001700B98401C0B90009025E0012012A9FA
:103A5000400204430B980131761E88420ED20A9828
:103A60000B9930380006000E087003D100990B98AE
:103A700088420AD90B98401C0B9006E0E00501D55E
:103A80001F4801E01E4840420C90B96916986D1C11
:103A900088470A9017980560002E04DD0A9805F003
:103AA00095FE0028D2D1F969169888470D99FF2014
:103AB00004AA08700B99087000200E900F900C9BC0
:103AC00010A90EA8FFF79CFDA00502D40120C04359
:103AD000ECE62420044215D0E0071FD138680F9A85
:103AE0000E99031D3B60006806C017E0EAA20000C3
:103AF000DCA200003E400000FF070000A4A100007F
:103B0000F1D8FFFF0EA9684605F0FCFCE00705D1DF
:103B10003868009A011D3960006802602846C5E6D1
:103B200010B509E00488801C9C4205D1002A01D010
:103B3000002010BD012010BD491EF3D2104610BD5B
:103B4000FFB51C4683B0059D00904D43002923D04E
:103B5000A768002041E0002F41DCE069A8421EDA9E
:103B6000019900291BD0224629460098FEF7AEFD98
:103B7000002801D0A7602DE0E0684105890F01D041
:103B8000002008E022696168891AE269511AC003BD
:103B9000A16001D44842A060059807B0F0BDA842DA
:103BA00004DAE0680121C9050843E0602146009875
:103BB0000078FEF7C7FBE2680121C9058A43411C72
:103BC000E26007D0A768002806DB0098401C6D1E45
:103BD000009015E00020E0E70120019010E0AF42E6
:103BE0003E4600DD2E46324660680099FCF7D4FF61
:103BF0006068BF1B8019606000988019AD1B009041
:103C0000002DA8DCA760C7E770B505460A4C0B4E2F
:103C10000EE0206DC00708D0AC4206D03146E06807
:103C2000814302D12046FCF719FE206D4408640050
:103C3000002CEED170BD0000100600200202000032
:103C400010B50A460146024800F0D1FC10BD000044
:103C50005C24002070B516460C460546FEF7EEFEC5
:103C60000368FF200230C05C012805D0185D0028E1
:103C70000BD001202C8070BDFF3332462146043327
:103C80001868C3182846984770BD0020C04370BD0F
:103C900070B516460C460546FEF7D0FE0368FF20B9
:103CA0000230C05C012807D0FF2C0ED8185D002818
:103CB0000BD001202C7070BDFF33324621460833F3
:103CC0001868C3182846984770BD0020C04370BDCF
:103CD00010B5002801D0FEF7ABFE10BD10B500F006
:103CE00033FDFFF7F5FF10BD10B500F045FDFFF700
:103CF000EFFF10BD10B500F059FDFFF7E9FF10BD53
:103D000010B5002102A000F005FD012010BD00004B
:103D10005349475056464E3A205075726520766991
:103D2000727475616C20666E2063616C6C656400F2
:103D300010B50349FCF7C6FD0148FCF7AAFD10BD0C
:103D4000B806002010B50446FCF726FF204610BD3B
:103D500010B50446FCF784FF204610BD01226946D9
:103D6000114B120382188A421A6001D8114670471B
:103D70001960704770B50C4C6D46012636032368F8
:103D8000AD1B9A18AA420ED8AD1A9019EE0F7519EC
:103D90006D10AA18904200D91046C01D0B60C208D1
:103DA000D200D01A226070BD8C01002010B500F046
:103DB0000EF80169002903D000220261884701E062
:103DC00080688047FEF78EFD10B5FEF78BFD70B55D
:103DD00000F04AF804680546002C15D12020FCF7B5
:103DE00071FA040012D0002009492C6003C409496B
:103DF00021602071A060E06007492061083C002933
:103E000001D000F0FBFCE061204670BDFEF76AFDCA
:103E100000000000C93D000800000000C80212D5E3
:103E20004803400F002804D0C803C0430121884044
:103E30007047EFF3008000010009032109070843E0
:103E400080F30088704700207047000010B50248DA
:103E500000F0F5FC10BD00000000C07F70470000BE
:103E60000048704788240020004870479C240020A8
:103E7000F8B51F46044601230068DB02032601460D
:103E80001840072A05DB002801D017A506E017A572
:103E900004E0002801D016A500E016A510208143FB
:103EA0002160A069C01E002FA06101D0401EA0614A
:103EB0002046FDF773FC002F09D038466268A168E0
:103EC0009047206A401C2062C01C206206E0206AE5
:103ED000FAE762682878A1686D1C9047761EF8D2D0
:103EE0002046FDF771FCF8BD4E414E006E616E003C
:103EF000494E4600696E6600F7B516468AB03348EB
:103F000078446C4603467C33C06F5A689B680DC486
:103F10002E487844763003AC0DC80DC43720C0015C
:103F2000081837211B30FCF741FF05460C46803D41
:103F30001B3C02D56442012000E0002000270990CC
:103F400010E0E0070CD00C20204978437944324639
:103F50004C3941186846012300F054FA6B4607C3F8
:103F600064107F1C002CECD1184F7F442E3F16E0CC
:103F7000E80712D02001C0190EC8069108930792D5
:103F80000068F04201D1981908903246012306A931
:103F900003A800F037FA03AB07C36D10641C002DB3
:103FA000E6D10998002806D032466946012303A8C5
:103FB00000F07EFA05E001233246694603A800F0CE
:103FC00021FA0A9B07C30DB0F0BD0000009100006C
:103FD000034640000A4610B5400D0BD00121C90729
:103FE0000F24A40200191C0364082143540D21432B
:103FF000D20207E000210120F2E7D40F490021435B
:104000005200401E0029F8DADB0FDB07184310BD11
:10401000FFB50D46144685B04868516805F0EFF9C4
:1040200000910190A868A16805F0E9F90291039058
:10403000A868616805F0E3F9029A121882420292B8
:1040400001D2012000E00020019A0B18D2180028AC
:10405000019202D08A4202D903E08A4201D20120B1
:1040600000E000200099081800906868A16805F039
:10407000C6F9029A12188242029201D2012000E08F
:104080000020019A0B18D2180028019202D08A420F
:1040900002D903E08A4201D2012000E00020009909
:1040A0000818009028682168400049004008490825
:1040B0004018FA49471814E001994000C90F084315
:1040C0000090019802994000C90F0843019002989E
:1040D00003994000C90F08430290039840007F1ED7
:1040E000039000980028E7DA0898002801D0EC4EE9
:1040F00000E00026B74201DA012000E0002000289D
:1041000004902AD0F71BF806C00E15D0029B202180
:10411000091A039A8B401A430392029A019BC240E8
:104120008B401A430292019A009BC2408B40009937
:104130001A430192C14000917B110DD06F460320BC
:10414000C11A03D500218200B95003E08A00810022
:10415000BA587A50401EF3D5374603980299002882
:1041600000D00120014308980291002808460CD095
:10417000002800D001200199019A49050843012136
:10418000D20AC902D202019200E001210E9B012253
:10419000D207012B02D0002B03D013E0002807D157
:1041A00020E0904204D890420CD1019B0B4209D0F0
:1041B000019B5918019105D10099491C009101D129
:1041C0007F1C009200280DD0102108460020C04618
:1041D0000498002806D00F98002803D0082108462C
:1041E0000020C04628682168019B009A4840C10F02
:1041F0000598C90739430EC009B0F0BDFFB587B0B7
:10420000099A0898089953689268406889689646A0
:104210000022039317469446089A12685300099A9D
:104220005B081268520052089A1A9E4BD4180A9AD8
:10423000002A01D0352200E040220692002201230C
:1042400015460492DB07059324E0002D05D1754641
:104250000346039E4D1BB34109D375466646039B37
:10426000491B049D9841059B7519AC465F41634607
:104270003B4308D0059B049EDD0776082E435B0870
:104280000496059301E0521E641EC50FED07491800
:104290004041521C069B9A42D7DB002D04D1754643
:1042A000039A6B1A824101D203200CE0039A0B4659
:1042B0006B404240134303D0014303D0012002E08E
:1042C000022000E000206146019100210097029148
:1042D0000A99002905D0614640020143704B0191C3
:1042E00002E08007002302909C4201DA012000E0F6
:1042F000002007003AD01A1BD006C00E15D0029D30
:104300002021019C091AC5408C402543029C8C4009
:1043100000D001242543019C0295009DC4408D409E
:1043200000992C430194C140009154111DD06D4659
:104330000221002202290CD10320001B07E00028E3
:1043400004DB8600AE59002E00D00122401C032859
:10435000F5DB081B02D588002A5004E080002858AD
:1043600010438A00A850491EE3D51C460A9800282D
:1043700002980CD0002800D001200199019A49052B
:1043800008430121D20AC902D202019200E00121B0
:10439000109B0122D207012B02D0002B03D013E087
:1043A000002807D11FE0904204D890420CD1019B15
:1043B0000B4209D0019B5918019105D10099491C64
:1043C000009101D1641C009200280CD010210846F5
:1043D0000020C046002F06D01198002803D00821E5
:1043E00008460020C04608980999019A009B006879
:1043F00009684840C10F0798C907214382600AC075
:104400000BB0F0BD00B585B0019300920A4601469D
:10441000002302A8FFF7FCFD02A807C805B000BDF5
:10442000FFB50A461F4685B0079901930123009105
:10443000014602A8FFF7ECFD02990398049ECA0FFB
:104440004900D20700920F22490892028C1A0021DB
:10445000002800DB0C46450013486D08844214D345
:10446000079A002A04DA441E0026104DF64302E0A3
:1044700004460D460E46102108460020C046002F77
:1044800003D0042108460020C0462005E90A08435D
:10449000009908436905F20A1143ADE602C0FFFF27
:1044A000013C0000FF3F0000FF070000FFFFFF7F0F
:1044B00000B585B0019300920A460146002302A888
:1044C000FFF79CFE02A807C8A8E7FFB50A461F46EB
:1044D00085B00799019301230091014602A8FFF7D7
:1044E0008DFE02990398049ECA0F4900D2070092DC
:1044F0000F22490892028C1A0021002800DB0C468A
:10450000450011486D08844214D3079A002A04DA42
:10451000441E00260D4DF64302E004460D460E46AD
:10452000102108460020C046002F03D00421084671
:104530000020C0462005E90A0843009908436905A0
:10454000F20A114358E60000FF070000FFFFFF7F5B
:1045500070B5064608464A4290430FD02A20741C84
:1045600000253070FFF77CFC0346A9000022585854
:10457000010F000109292DD957312CE0042913D04E
:1045800004DC012908D0022904D109E008290FD050
:10459000102911D0002070BDFFF762FC00680EE00A
:1045A000FFF75EFC40680AE0FFF75AFC806806E00F
:1045B000FFF756FCC06802E0FFF752FC00690028D4
:1045C00006D08008800001468039C96F081870BD88
:1045D0004EA070BD30312170521C641C082AC7D314
:1045E0006D1C052DC1DB00202070304670BD10B55C
:1045F000002901D04B0901D0002010BD002A05D0B0
:1046000013782A2B05D000F036F810BDFFF7A0FF75
:1046100010BD00F001F810BDF7B50F46541C002581
:10462000002631462078641C0246303A092A03D914
:104630000346613B052B17D8392801D8104600E006
:10464000573836010643491C0829EBD30120A840FE
:10465000384203D0FFF704FCA90046506D1C052D1D
:10466000DEDB2078002801D00020FEBD009839460E
:10467000FFF76EFFFEBDF8B50C46064615468807E7
:104680000AD511462248784406F006FE071E3BD0A4
:10469000FFF7E6FB7F1C4760E0070AD029461C486D
:1046A00078441A38C046C046071E2DD0FFF7D8FB05
:1046B000076060070AD52946154878443438C04653
:1046C000C046071E20D0FFF7CBFB876020070AD526
:1046D00029460F4878444E3806F0F4FD071E13D0E3
:1046E000FFF7BEFBC760E0060AD5294608487844B4
:1046F0006838C046C046051E06D0FFF7B1FB05610D
:1047000021463046FFF724FFF8BD000043000000BB
:104710009E94000070B505460C460A2000E06D1C12
:10472000FEF780F9002D06D028780028F7D102E0A6
:10473000641CFEF777F9002C02D020780028F7D10E
:104740000A20FEF76FF970BD10B5002102A0FFF737
:10475000E1FF012010BD0000534947414252543A45
:104760002041626E6F726D616C207465726D696E4E
:104770006174696F6E00000010B5014602A0FFF77A
:10478000C9FF012010BD000053494752545245440F
:104790003A2052656469726563743A2063616E27DA
:1047A00074206F70656E3A200000000010B501287B
:1047B00005D0002103A0FFF7ADFF012010BD09A126
:1047C000F8E7000053494752544D454D3A204F7584
:1047D00074206F662068656170206D656D6F7279F9
:1047E000000000003A2048656170206D656D6F72B1
:1047F0007920636F727275707465640010B58820DB
:10480000FBF760FD002801D00021017010BD802958
:1048100004D8002802D00178002901D00020704778
:104820000121017008307047002803D00246083289
:10483000914201D00020704700210170704710B5EF
:104840000C461107090F092904D00A290AD00829A2
:104850000CD104E011460820FFF7E0FA06E051060B
:1048600006D501E0510601D50120C007214610BD43
:10487000D10607D501010909CC084907000E000639
:10488000044309E0410F20024907000A0143200EBA
:1048900000061D22D14101430846E7E710B5FBF7AA
:1048A0000DFD006810BD10B50446FBF707FD046060
:1048B00010BD0000FFB51F4689B01398129940053E
:1048C000C00FC00705900020079005460446461E0D
:1048D000049002903C20491C12910690B9690A98F4
:1048E000884703901498401E14901498002841DDC6
:1048F00003982E2816D01021FDF72AF9002834DB62
:1049000001210491079901431AD0069900290CDB73
:10491000069AC11700F04EFA054306980C43001F93
:10492000069006E0012002900EE0002801D0012050
:104930000543012007900298002805D1361D03E0A9
:104940000298002800D0361F1298401C1290B969B6
:104950000A98884703901498401E149004980028E1
:10496000C3D00B9912980860BFE70398702808D04D
:10497000502806D0F9690A9888470498002815D06D
:1049800051E00020039001200290049800280AD0F2
:104990001298401C1290B9690A9888471499491EC8
:1049A0000029149106DCF9690A9888470120C04360
:1049B0000DB0F0BD2B2804D02D280DD10020C04310
:1049C00002901298401C1290B9690A98884714996D
:1049D000491E00291491E6DD411CE4D00A21FDF7AF
:1049E000B7F80028DFDB03990A2251430818039027
:1049F0001298401C1290B9690A9888470A21FDF75D
:104A0000A7F814990B9A491E1491129911601499E0
:104A1000002901DD0028E6DAF9690A988847029939
:104A20000398484386191398242108400490284687
:104A3000204304D0A10F8907090002D006E00598A1
:104A40009BE0A90FA4000C43AD00B61EE10FC907FF
:104A5000080002D16D196441761E0498002803D025
:104A60000B2002905D4803E0282002907D20C04387
:104A70008642039007DA811B0298081841280290A9
:104A800001DD41200290029A01200021521E00F017
:104A900091F9024628400B462140084301D00120ED
:104AA00000E0002007900020521EC04343412A40EE
:104AB00023401A4301D0012000E00020079906900E
:104AC000014352D0002108460020C0460321059A28
:104AD00089050840002A05D082008018C20F1018EE
:104AE000401008408015012802DD0020C04301E08D
:104AF000012815D0401C38D00798002835D00698DA
:104B000000280DD1029A0120002100F053F928401D
:104B10002140084301D0012000E00020002824D0DB
:104B2000029A0120002100F045F9034640198C4605
:104B300061412A1A8C410FD30298402807DD04985E
:104B4000039E002801D0343E02E0173E00E0761CB0
:104B500001240025E40708E05B1E62460024E443CC
:104B60006241DD43D44305400C4003980121081AFB
:104B7000B04206DA1A4905980843019000200090D7
:104B80000EE060006205010BE80A1043059A0090F0
:104B900068460A4313490A433146019204F004FE71
:104BA000049800280AD01398C00714D13868019AD5
:104BB0000099031D3B60006806C00CE002A869462E
:104BC00004F0A0FC1398C00705D13868029A011DB3
:104BD0003960006802601298EAE6000002FCFFFFFC
:104BE0000000F07F0000F03FFFB51D4687B0119830
:104BF000484A109C129E40051399C00F761EC007AC
:104C00000243019200220092FF22D205104320228B
:104C100091434929059003D017464E2928D04FE0EB
:104C20003DA002AA0BC801270BC2A9690898641C01
:104C30008847761E014607D402A8C05D002803D02D
:104C40002022914381420AD0E96908988847032FBE
:104C500036D0082F34D00120C0430BB0F0BD7F1CEC
:104C6000032F01D0082FE0D10999601C0860DCE710
:104C7000A9690898641C8847761E2DD4B84341283A
:104C80002AD1A9690898641C8847761E24D4B843A1
:104C90004E2821D1A9690898641C884701990122EE
:104CA000D204114301910599D2001143059109994C
:104CB000761E0C6001D4282806D0E9690898884738
:104CC0001198C00712D023E0A9690898641C88478E
:104CD000761E01D4002803DAE96908988847BAE704
:104CE0002928F1D10998641C0460E9E7119824216E
:104CF000084207D02868019A0099031D2B600068BC
:104D000006C005E028680599021D2A600068016058
:104D10002046A2E70000F07F494E46494E495459CB
:104D200000000000F8B5224C4E00069DA6420AD8AD
:104D3000A64201D1002806D15E00A64203D8A642B1
:104D40000AD1002A08D00D24240425422CD029465B
:104D50000020FFF763F8F8BD0C461C430CD49942C1
:104D600002D0EFF30080F8BD904202D0EFF3008054
:104D7000F8BDEFF30080F8BD09242407E5008B425D
:104D800006D0EFF30080A043591A06D2284304E06E
:104D9000101A05D3EFF30080A04380F30088F8BD1C
:104DA000EFF30080A043F1E7009500F01FF8F8BD95
:104DB0000000E0FF10B5202A04DB0146203A9140B4
:104DC000002010BD914020239C1A0346E340194364
:104DD000904010BDF8B516461F460C46851B02E0F4
:104DE0002846B847AD1B641EFAD2F8BD10B50020A6
:104DF0000249029AFFF723FD10BD00000000F87F72
:104E000010B505F00BFD05F0B1F810BD0021C16033
:104E1000704738B504466846C046C046014620463D
:104E200006F07EFF38BD70B50024014620314A7877
:104E3000022A03D004218163012416E0026813686A
:104E40000E25AB431360026813685B085B001360B8
:104E50000122056C1346AB40C56B6B604A700022A3
:104E60000A70416B002900D08847204670BD0000C1
:104E70000148006870470000EC000020024801680B
:104E8000491C016070470000EC00002010B5064886
:104E90000168102211430160032000F007F800F0C0
:104EA0007BF8002010BD000000200240F8B52F481C
:104EB0008169C0142D4A01439161916901400091BB
:104EC000D1680143D160D1688143D16000F088FD91
:104ED000284C274820602848E06029482749006876
:104EE000FBF756FF401E606000202061A060A061BB
:104EF000204600F03FFB0021204600F061FB04212A
:104F0000204600F05DFB21684A6A1E480260006886
:104F10007D22D200801888631B490D2000F0A4FC7C
:104F200001271A4E78033060194D2868FF210902C5
:104F30008843286017490E2000F096FCB8033060C3
:104F40002868FF2109048843B905084328602068C0
:104F5000C1683943C1602068C16804221143C1603F
:104F6000204600F021FB0020F8BD000000100240A8
:104F7000002C0140CC050020FFFF000040420F0044
:104F8000F0000020D800002021B0000800E100E07F
:104F90000CE400E07DAF000870470000F0B5054666
:104FA0005F4889B000680F46C007C00FB8420AD2F8
:104FB0005B48016849084900394301600068C0073F
:104FC000C00FB84271D12878800706D5554841688E
:104FD000F0229143AA68114341602878C00754D059
:104FE0006868012821D04F490228096822D0890722
:104FF0005BD54C4C61688908890001436160FFF70B
:1050000037FF064669684848012916D062680229B8
:1050100025D01207920F38D00446FFF729FF801BD6
:10502000A0422DD9032009B0F0BD3E49096889038B
:105030003BD5DEE7890138D5DBE762681207920FBE
:10504000012A22D00446FFF713FF801BA042E9D8B3
:10505000344840680007800F0128F4D115E012079A
:10506000920F022A11D00446FFF702FF801BA042D4
:10507000D8D82C4840680007800F0228F4D104E0FB
:10508000284840680007800FC7D125480168C90734
:10509000C90FB9420CD90168490849003943016078
:1050A0000068C007C00FB84202D0012009B0F0BDAF
:1050B0002878400707D51B49486807221202904309
:1050C000EA6810434860194A6C460FCA0FC4184B6F
:1050D00004AD0FCB0FC5134C62680C201146014084
:1050E000144804290DD008290BD19102090F6B46F1
:1050F0005D5CE16A04AB0907090F595CFBF748FEE8
:10510000684361680C4A0906090F515CC8400B49A5
:1051100008600320FFF7CAFE002009B0F0BD0000C0
:10512000002002400010024088130000A85100082F
:10513000B851000800127A00B8CC0008F000002036
:105140000448054900684968044A4905490F515C0B
:10515000C8407047F000002000100240C8CC000892
:1051600010B511A30FCB88B06C460FC412A00FC8A6
:105170000FC415494A680C20134603401348042BFA
:105180000FD0082B0DD193021B0F6C46E45CC96A4B
:1051900004AB0907090FD203595C920FFBF7F8FD26
:1051A000604308B010BD00000203040506070809AB
:1051B0000A0B0C0D0E0F1010010203040506070860
:1051C000090A0B0C0D0E0F100010024000127A009D
:1051D000F8B504460078E44DC0074DD06868000774
:1051E000800F01282BD068680007800F022804D1A7
:1051F0006868C003800F022821D001206268000483
:10520000012A23D08100002A01D0052A22D02A6851
:1052100082432A60286888432860606800281DD07F
:10522000FFF726FE06462868800325D4FFF720FEF8
:10523000801B64287ED828688003F7D51CE0286886
:10524000800319D56068002875D015E029680143EE
:105250002960E2E72A680A432A60F7E7FFF708FEB9
:1052600006462868800307D5FFF702FE801B6428E6
:1052700060D828688003F7D42078800743D5686811
:105280000007800F26D068680007800F022804D12D
:105290006868C003800F01281CD0E068002820D077
:1052A0002968012001432960FFF7E2FD06462868CE
:1052B000800707D4FFF7DCFD801B02283AD8286856
:1052C0008007F7D52868F82188432169C900084379
:1052D000286018E028688007F4D5E06801282AD102
:1052E000F0E72868400840002860FFF7C1FD064647
:1052F0002868800707D5FFF7BBFD801B022819D857
:1053000028688007F7D4207800072AD5E0690028AC
:1053100015D0696A012001436962FFF7A9FD0646BD
:10532000686A80071DD4FFF7A3FD801B022801D8FF
:10533000686A01E090E014E18007F4D511E0686A42
:10534000400840006862FFF793FD0646686A8007E0
:1053500007D5FFF78DFD801B02287DD8686A80077E
:10536000F7D42078400768D500200090E869C00095
:1053700008D4E969012000070143E961E9690140B6
:1053800001200090794F3868C00511D43868B915EC
:1053900008433860FFF76CFD06463868C00507D43F
:1053A000FFF766FD801B642856D83868C005F7D51E
:1053B000A06801281ED0002801D005281ED0286A28
:1053C000400840002862286A042188432862A068B7
:1053D000674E00281BD0FFF74BFD0746286A800761
:1053E00023D4FFF745FDC01BB04260D8286A800770
:1053F000F7D51AE0286A01210843E7E7296A042063
:1054000001432962296A012001432962DFE7FFF78E
:105410002FFD0746286A800707D5FFF729FDC01B27
:10542000B04244D8286A8007F7D40098002804D0F6
:10543000E869012109078843E8612078C0061CD586
:105440006069012835D0401D686B50D004210843A5
:105450006863686B400800E029E040006863FFF77C
:1054600007FD0646686B800707D5FFF701FD801B27
:1054700002281CD8686B8007F7D4606A00286ED0B9
:1054800069680907890F02296BD001273F060228A6
:10549000286830D0B8432860FFF7EAFC0446286843
:1054A00080015CD5FFF7E4FC001B022854D90320DF
:1054B000F8BD686B042108436863686B01210843E9
:1054C0006863FFF7D5FC0646686B800707D4FFF7D3
:1054D000CFFC801B0228EAD8686B8007F7D5686B81
:1054E000F8218843A169C90008436863C5E704211E
:1054F00088436863F3E7B8432860FFF7B9FC0646C2
:105500002868800107D5FFF7B3FC801B0228CED89E
:1055100028688001F7D4E86A216B0009000108437C
:10552000E862E16AA06A014368687B22D203904383
:1055300001436960286838432860FFF799FC0446F6
:10554000286880010BD4FFF793FC001B0228AED81B
:1055500028688001F7D502E028688001A2D40020E5
:10556000F8BD0120F8BD00000010024000700040AE
:1055700088130000002801D10120704770B505464E
:1055800004462035687F002803D12877204600F0A4
:105590000AF802206877211D206800F0BDFA01207A
:1055A0006877002070BD70470222014620314A779B
:1055B0000268136801200343136048770020704796
:1055C00010B40124224603688A40196A9143196283
:1055D000196A114319620C4A0168914208D00B4ABA
:1055E000914205D00A4A914202D00A4A914204D11E
:1055F0004A6C0123DB031A434A64006801682143B3
:10560000016010BC00207047002C014000400140A8
:1056100000440140004801400168CA69D243D207F2
:1056200001D101220A620168CA69D243920701D4FA
:1056300002220A620168CA69D243520701D40422D5
:105640000A620068C169C943090701D408210162DF
:1056500070470000F8B502680446D16910680B076E
:1056600025461B0F6035002B66D09368FF27DE07A9
:10567000F60F21370740374367D0CF0706D0C7055D
:1056800004D501271762E26E3A43E2668A0708D51D
:10569000DA0706D0276802223A62E26E04273A430C
:1056A000E2664A0708D5DA0706D0236804221A62A0
:1056B000E26E02231A43E2660A0709D5202202405D
:1056C000324305D0236808221A62E36E1343E3666F
:1056D000E26E002A2FD0890604D5800602D5204626
:1056E00000F0D0FAE06E000703D42068806840061E
:1056F0004DD520680168FF22213291430160206866
:1057000081684908490081602020A872206881686A
:10571000490638D5826840218A438260606E00283D
:1057200031D02E494163606EFFF77DFB002802D027
:10573000606E416B8847F8BD8B0605D5830603D59F
:10574000204600F09FFAF8BD93680B0638D5030693
:1057500036D5687A2128F6D120464030418A002982
:105760001BD00123A1681B03994202D121690029A2
:105770001DD0E16C4A1CE264226809781185418AD7
:10578000491E4182F8BD2046FFF746FFF8BD20467E
:10579000FFF742FF0020E066F8BD106880218843D3
:1057A000106020680168402211430160F8BDE16C7F
:1057B0000988C905C90D1185E16C891CE164DEE722
:1057C0004906F3D54006F1D51368204640218B43A6
:1057D00013602021697200F03EF8F8BD715C00088A
:1057E000002801D10120704770B505460446603598
:1057F000687A0026002803D12E72204600F029F88E
:105800002420687220680168490849000160204628
:1058100000F076FA01281BD0606A002802D02046EA
:1058200000F0C0F9206841680122D2029143416032
:105830002068816808229143816020680168012204
:10584000114301603046E66620216972A9722E720A
:1058500070BD704770470068C169C943490601D4EB
:105860004021016270470000F0B484460D48026890
:105870000D4FD24392070FD0C40200229300E65886
:10588000DD191B192E605B68921C6B60302AF5DBFA
:10589000026803231A43026060468000C019016455
:1058A000F0BC7047000001400000002070B592B0CD
:1058B000002506460F951095342168461195FBF793
:1058C00015FA012421460EA80E94FFF767FB002865
:1058D0001FD10094002E0FD0052001900226F00366
:1058E0000A900520C0040B9009960C946846FFF7B7
:1058F0006FFC00280DD101E00194EFE707200E9026
:10590000109501210F9611950EA8FFF747FB00286F
:1059100002D0002012B070BD012012B070BD000096
:1059200038B500242049062838D202007A4412797A
:1059300092189744020D161F332909244A69E40678
:105940000120400402434A6149690140009128E076
:10595000164C4A69200202434A614969014000919C
:105960001FE0134C4A69200202434A614969014021
:10597000009116E00F4C4A690120000502434A617C
:105980004969014000910CE00B4C4A6901208005F7
:1059900002434A6149690140009102E007A004F016
:1059A00070F9204638BD0000001002400004004895
:1059B00000080048000C00480014004850696E6D53
:1059C0006170206572726F723A2077726F6E672015
:1059D000706F7274206E756D6265722E000000002B
:1059E00070B5114D69680C2001401048104C03D06F
:1059F000042901D0082901D020600CE069686A6898
:105A000089020E0FE96AB61C0907090F491CFBF74A
:105A1000BFF970432060686806490006000F085C03
:105A20002168C140216070BD0010024000127A0060
:105A3000F0000020B8CC0008F0B5324C93B02068DC
:105A400001263043206060682F490840606020686C
:105A50002E49084020602068B104884320606068B7
:105A60003F21090488436060E06A00090001E062A8
:105A7000206BFF21943188432063206B80210843F1
:105A80002063606BB04360630025A560A06930436C
:105A9000A06120491E480860FFF7F8F90120FFF7D0
:105AA00005FF002824D1FFF701FF002820D102279D
:105AB000102000970195029506A90396059504907C
:105AC000E1C1C0020A900520C0040B900C95684605
:105AD000FFF77EFB00280AD107200E9010950121C8
